:100000000C944A030C9491030C9491030C94910367
:100010000C9491030C9491030C9491030C94910310
:100020000C9491030C9491030C9463240C94352547
:100030000C94851E0C9491030C9491030C949103E1
:100040000C9491030C9491030C9491030C949103E0
:100050000C9491030C94ED1E0C9491030C94910359
:100060000C9491030C9491030C9491030C949103C0
:100070000C9491030C9491030C9491030C949103B0
:100080000C9491030C9491030C9491030C949103A0
:100090000C9491030C9491030C9491030C94910390
:1000A0000C9491030C9491030C949103700D730DB7
:1000B0007B0D800D850D8A0D8F0D940D990D9E0D74
:1000C000A30DA80DAA0DAD0DB00DB30DB60DB90D54
:1000D000BB0DC00D5E145E1490149014DD141B163D
:1000E0001B161B16FD149A15AB15AB150B161B161C
:1000F0001B16141699169916AB16AB16A216AB164C
:10010000AB16AB1699169916A716AB16AB16A71613
:100110006A1F601F781FD11FD81FD81FD11FD81F7B
:10012000D81F991FD81FA31FAD1FD81FD81FD81FB6
:10013000D81FD11FD81FD81FD11FD81F861FD81F67
:10014000D81FBD1FBD1FBD1FBD1FBD1FBD1FBD1FB4
:10015000BD1FBD1FD31FD81F6A1F5D1FD81FD81F0B
:10016000D81FD81FD81FD81FD81FD81FD81FD81FD7
:10017000D31FD81FD81FD11FD81FBB1FBB1FBB1F2A
:10018000BB1FBB1FBB1FBB1FBB1FBB1FD31FA2259A
:10019000C925BB26C925BB2615263826BB268E2693
:1001A0009D26165C1E001F00200021002200230057
:1001B00024002500260027002D002E0031002B00F2
:1001C00014001A000800150017001C0018000C008D
:1001D000120013002F0030004C00E0000400160055
:1001E000070009000A000B000D000E000F0033008D
:1001F000340000002A00E10000001D001B00060082
:100200001900050011001000360037003800E50025
:1002100028000000E300E200000000002C000000C5
:100220000000000000000000E00002510151350014
:100230003A003B003C003D003E003F0040004100D2
:100240004200430044004500010001002A00520022
:100250004C00010001000100010001000100460006
:100260005200010001000100500051004F00010048
:1002700001004A0401004A004B0050004F000000FA
:100280000100010000000100010001000100010067
:10029000010001004D004E0051000100010000006E
:1002A00001000100000000002C0000000000000020
:1002B000000000000100010001000000000000003B
:1002C000000000000000000000000000000000002E
:1002D0000000000000000000C45CC25CC35C0000C1
:1002E000000000000000000000000000000000000E
:1002F00000000000000000000000000000000000FE
:10030000005C000000000000000000000000000091
:1003100000000000000000000000000000000000DD
:1003200000000000000000000000000000000000CD
:1003300000000000000000000000000000000000BD
:1003400000000100010000047F3F1F64321464328A
:1003500014783C1E1E140A052223252628292A2C3F
:100360002D2F3032333536383A3B3D3E40424345FF
:1003700047494A4C4E5051535557595A5C5E60623A
:10038000646668696B6D6F71737577797B7D7F814A
:10039000838587898A8C8E90929496989A9C9E9F4A
:1003A000A1A3A5A7A8AAACAEAFB1B3B4B6B8B9BB68
:1003B000BCBEBFC1C2C3C5C6C7C9CACBCCCDCED0D7
:1003C000D1D2D2D3D4D5D6D7D7D8D9D9DADADBDBC4
:1003D000DBDCDCDCDCDCDDDDDDDDDCDCDCDCDCDB5B
:1003E000DBDBDADAD9D9D8D7D7D6D5D4D3D2D2D1A4
:1003F000D0CECDCCCBCAC9C7C6C5C3C2C1BFBEBC97
:10040000BBB9B8B6B4B3B1AFAEACAAA8A7A5A3A107
:100410009F9E9C9A98969492908E8C8A89878583C9
:10042000817F7D7B79777573716F6D6B69686664A9
:1004300062605E5C5A5957555351504E4C4A494779
:10044000454342403E3D3B3A3836353332302F2D1E
:100450002C2A292826252322FFAA7F5540000101A6
:100460000101010101010102020202020202020273
:100470000303030303030303040404040404040543
:100480000505050506060606060707070707080807
:100490000808090909090A0A0A0B0B0B0C0C0C0DB8
:1004A0000D0D0E0E0E0F0F0F101011111112121351
:1004B000131414151516161717181819191A1A1BCC
:1004C0001B1C1D1D1E1E1F2020212222232424252B
:1004D0002626272829292A2B2C2D2D2E2F30313264
:1004E00032333435363738393A3B3C3D3E3F404174
:1004F00042434445464748494A4C4D4E4F5051535C
:1005000054555658595A5B5D5E5F61626465666812
:10051000696B6C6D6F7072737577787A7B7D7E8096
:1005200082838587888A8C8E8F91939596989A9CE2
:100530009EA0A2A3A5A7A9ABADAFB1B3B5B7BABCF6
:10054000BEC0C2C4C6C9CBCDCFD1D4D6D8DBDDDFC7
:10055000E2E4E7E9EBEEF0F3F5F8FAFDFF0403302F
:10056000000000100374006F006B0079006F00360C
:1005700000300000001E0354006F006B0079006F14
:100580000020004B006500790062006F006100727E
:1005900000640000000403090409023B000201009A
:1005A000A03209040000010301010009211101002A
:1005B000012240000705810308000A090401000127
:1005C00003000000092111010001226D00070582CE
:1005D0000320000A1201100100000008EDFE606017
:1005E00001000102030105010980A1018503190130
:1005F0002AB700150126B700950175108100C005C6
:100600000C0901A101850419012AA002150126A0E7
:1006100002950175108100C005010906A10185053B
:10062000050719E029E715002501950875018102E4
:100630000507190029EF1500250195F075018102C4
:1006400005081901290595057501910295017503A4
:100650009101C005010906A101050719E029E71567
:100660000025019508750181029501750881010534
:1006700007190029FF150026FF009506750881005F
:100680000508190129059505750191029501750364
:100690009101C00011241FBECFEFDAE0DEBFCDBF55
:1006A00004B603FE27C08091E2029091E302A0917C
:1006B000E402B091E5028730904BA740B04BD1F4F3
:1006C0001092E2021092E3021092E4021092E5020C
:1006D00014BE84B7877F84BF0FB6F894A895809125
:1006E0006000886180936000109260000FBEE0E0BF
:1006F000F8E3099511E0A0E0B1E0E4EBFFE402C00B
:1007000005900D92A83BB107D9F722E0A8EBB1E024
:1007100001C01D92A23EB207E1F70E948C210C9409
:10072000D8270C9400000C944C060C944D0681E0E4
:10073000089581E008950C9499031F93CF93DF935C
:1007400000D000D01F92CDB7DEB749835A832091E5
:10075000DE0189819A81211112C0662349F00E942D
:10076000BE1B182F682F89819A810E94631B03C0CA
:100770000E94921B182F69817A81812F04C00E94E8
:10078000BE1B69817A810F900F900F900F900F9090
:10079000DF91CF911F910C944D04FC014081518158
:1007A0006281738184810C949D030E94EE1C8111EF
:1007B00002C00E94971D0E945A0F0C9493030C9440
:1007C000950308950C94E10381E008950C94E403EB
:1007D000CF93C82F0E94E2038C2F0E94E603CF9193
:1007E000089508950E9489160E94F1032FEF84E373
:1007F0009CE0215080409040E1F700C000000C9444
:10080000131F0F931F93CF93DF93EC010E94CD032F
:100810008C01BE010E949B038823A9F1BE01C8017F
:100820000E94CA0D882379F1BE01C8010E940E10F2
:10083000882349F1BE01C8010E944F10882319F195
:10084000BE01C8010E947A118823E9F0BE01C801E7
:100850000E94590D8823B9F08A81882369F0011517
:100860008CE5180731F00E3D1C4531F40E94971DB0
:100870000AC00E94F20307C0CE01DF91CF911F9101
:100880000F910C94970380E0DF91CF911F910F910E
:10089000089580E090E0089508959EE0799FF0012A
:1008A000112496E4899FE00DF11D1124E60FF11D3E
:1008B000EE0FFF1FEE55FE4F859194910895880F1E
:1008C000991FFC01EA5BFC4F859194910895CF93A9
:1008D000DF930E944D040E947505EC01811520E50F
:1008E000920708F041C0811530E4930708F0C7C0B3
:1008F000803E910520F5803C910508F0B1C0883A12
:10090000910570F4853A910508F0A2C081309105F7
:1009100009F4E7C008F4E3C0049708F0E2C0DFC0C0
:100920008F3B910508F0DBC0C85AD0E0CC0FDD1F2B
:10093000C35EDE4F0990D881C02DD464D2C081152A
:1009400040E2940750F4C11581E0D80708F0C9C00F
:10095000C83ED10508F4C5C0C2C0811520E3920786
:1009600008F084C09F707EC0811535E5930708F0BC
:1009700044C0811544E5940708F098C0C11582E58C
:10098000D80708F5C11521E5D20708F07BC08C2FE8
:10099000837021E030E002C0220F331F8A95E2F716
:1009A0003C68CE0174E0969587957A95E1F783705F
:1009B000382BCF70C695C69580E2C89FE001112400
:1009C000C22BD32B8EC02C2F26952695CE0183705B
:1009D0009927C115D34508F05AC040E2249F9001E1
:1009E0001124C1E0D0E002C0CC0FDD1F8A95E2F7F0
:1009F0002C2B3D2BE901DC6874C0811549E5940777
:100A0000A0F4C11588E5D80708F055C0C11526E542
:100A1000D20708F064C08C2F0E9409068F71C82F7E
:100A2000D0E0DC2FCC27D0625CC081153AE593077B
:100A300008F446C090568115904208F050C08D2FA2
:100A40008F710E940906DD27D0628F71D82B49C0B3
:100A5000C55AD0E0C55BDE4FC881D0E0D06441C04C
:100A6000805C91090E945F04EC013BC09927D3FF91
:100A700003C0EC01D86C35C0EC01D06C32C0DF7023
:100A8000D06A2FC0DC2FCC27C16FD06A2AC040E2C9
:100A9000249F90011124C1E0D0E002C0CC0FDD1FE3
:100AA0008A95E2F7C22BD32BDA681BC0D82FCC274C
:100AB000C46FD06A16C0DC2FCC27C06FD06A11C0BB
:100AC0008F700E94090694E0D695C7959A95E1F734
:100AD000CF70D0E0DC2FCC27D069C82B02C0C0E09B
:100AE000D0E0CE01DF91CF9108958238910569F170
:100AF000B0F48133910509F46DC048F48932910551
:100B000009F463C08A32910509F469C008958533F8
:100B1000910509F455C089339105B9F00895833ED4
:100B2000910569F138F4803E9105B1F0823E91055E
:100B300009F10895863E9105A9F1873E9105B9F125
:100B4000843E910509F064C023C02091D30220FDAA
:100B50004FC021FD4DC008958091D30280FD44C057
:100B60008091D40280FF44C08091D30284FD42C0B2
:100B700083EE4DC08091D30282FF38C0F5CF8091C3
:100B8000D30282FD33C08091D40280FD31C0ECCF0E
:100B90008091D40281FF32C08091D30284FD2AC0AB
:100BA00087EE35C08091D30283FF26C0F5CF8091B8
:100BB000D30283FD21C08091D40281FD1FC0ECCF00
:100BC0008091D30285FD1CC01DC08091D30285FD9C
:100BD00019C016C08091D30286FD16C017C080913F
:100BE000D30286FD13C010C089E311C082EE0FC08E
:100BF00080EE0DC080E00BC086EE09C084EE07C019
:100C000089E205C085E303C08AE201C081E390E088
:100C100008959091D30292FF0DC0282F287128309B
:100C200019F4877F846006C0282F2471243011F4C2
:100C30008B7F886093FF0DC0282F2871283119F40D
:100C4000877E846106C0282F2471243111F48B7EA5
:100C500088612091D40220FF0DC0382F38713830C0
:100C600019F4877F816006C0382F3171313011F45B
:100C70008E7F886021FF0DC0282F2871283119F43C
:100C8000877E816106C0282F2171213111F48E7E6B
:100C9000886194FD877E089508950895E82FF0E017
:100CA000EE0FFF1FEF55FD4F80819181089508954C
:100CB00080EA8A95F1F70895AEE4B1E041E050E0B2
:100CC0002EE02A0F8D91E82FE295EF70F0E031A130
:100CD0008F70BA0102C0660F771F8A95E2F7CB01C9
:100CE000962F9095932391A392A1892B82A32A13E7
:100CF000E9CFACE5B1E041E050E025E02A0F8D916D
:100D0000E82FE295EF70F0E031A18F70BA0102C0D8
:100D1000660F771F8A95E2F7CB01962F9095932364
:100D200091A392A1892B82A32A13E9CFE7E9F2E0EC
:100D3000A1EAB2E0119211921D921D9272E0E13A85
:100D4000F707C1F785E00E9446070C94D5032F9260
:100D50003F924F925F926F927F928F929F92AF924B
:100D6000BF92CF92DF92EF92FF920F931F93CF9398
:100D7000DF939EE4C92E91E0D92EE12CF12C10E0F6
:100D8000AA24A394B12CD6018D916D01C82FC295D0
:100D9000CF70D0E099A18F70450101C0880C8A9571
:100DA000EAF7892F882989A38AA1082D0095802335
:100DB0008AA30E945806A5010E2C02C0440F551F9D
:100DC0000A94E2F73A01609470948CE5282E81E051
:100DD000382EE7E9F2E0512CBF0180819181D101E9
:100DE0004D901D01242D22952F7030E0D901909651
:100DF0002C9130E0B42DBF7002C035952795BA957F
:100E0000E2F720FD04C09C01242B352B03C09C017C
:100E100026213721318320833296DB012D913C91AD
:100E20008217930711F055245394B2E0E13AFB077F
:100E300099F689A1082309A38AA1882A8AA21529DB
:100E4000EFEFEE1AFE0AFEE0EF16F10409F09BCF79
:100E5000212F45E061EA72E087E992E00E944707AE
:100E60000E94DF03812FDF91CF911F910F91FF909F
:100E7000EF90DF90CF90BF90AF909F908F907F903A
:100E80006F905F904F903F902F9008950895FF923C
:100E90000F931F93CF93DF93F82E092F162FD72F81
:100EA000C42F222349F081E08093BA010E94B71E2B
:100EB0009093B9018093B8018091BA018823D9F049
:100EC0008091B8019091B9010E94C31E069798F0D5
:100ED000EF2DF02FA12FBD2F80E090E04C2F50E0A0
:100EE0008417950734F4219131912D933D93019608
:100EF000F7CF1092BA01DF91CF911F910F91FF9020
:100F00000895AF92BF92CF92DF92FF920F931F93FB
:100F1000CF93DF93D62E372FE82FF0E0711106C064
:100F2000E35AFB4F6491762F862F75C0C72FD0E010
:100F3000E35AFB4F2491F22E022F10E046E0649F0B
:100F4000C0011124EFEFF0E0BF010E940D27AB01BB
:100F50006BEA6403C001659F900D11248D0D911DF6
:100F60008D0D911D982F990F890FDF01AC1BBD0BC3
:100F70000A9FB0010B9F700D1A9F700D1124972FBF
:100F8000839FD0011124AB2FBB276F01CA1ADB0A44
:100F90000C9DD0010D9DB00D1C9DB00D11245F0165
:100FA000A81AB108AC9E6001AD9ED00CBC9ED00CBE
:100FB0001124CD2DDD27EC1BFD0B0E9FE0010F9FB3
:100FC000D00D1E9FD00D1124ED2F4230510591F010
:100FD0004CF441155105E1F041305105B9F4E22FCF
:100FE0002B2F16C04430510569F044F046305105AE
:100FF00079F00CC0E22F272F9D2F0AC0272F9F2D9D
:10100000EB2F06C0E72F922F2D2F02C0E72F9B2F2B
:101010006E2F722F892FDF91CF911F910F91FF902B
:10102000DF90CF90BF90AF9008950895CF93DF9356
:10103000762FE901682F842F0E94810779836883C6
:101040008A83DF91CF9108958091AB02282F269556
:1010500030E02115310519F48170826005C0253218
:10106000310524F0817088648093AB02089588E094
:1010700090E00C949827CF93DF9300D000D0CDB7A9
:10108000DEB7AB01BC0149835A836B837C830E942A
:10109000240849815A816B817C8188E090E00F901F
:1010A0000F900F900F90DF91CF910C94B627EBEA41
:1010B000F2E083E0808311828FEF82838383148246
:1010C00060817181828193810C943B088091AB0295
:1010D00080FF02C08695089580E008958091AF0258
:1010E000833018F48F5F8093AF026091AB027091F0
:1010F000AC028091AD029091AE020C943B088091BD
:10110000AF02882319F081508093AF026091AB0247
:101110007091AC028091AD029091AE020C943B08AC
:101120006091040170E08091AB0280FF0AC0809161
:10113000BF0123E0829FC001112480559D4F0C9474
:101140009E0F8091BE0190910301891780F7E82FCF
:10115000F0E09F01220F331FE20FF31FE055FD4F18
:101160001182108212828F5FF0CF9091AB0290FFBC
:1011700016C09091BE0120910301921770F4E92FDF
:10118000F0E0DF01AA0FBB1FEA0FFB1FE055FD4F88
:101190008183608342839F5FF0CF0C949008089511
:1011A000CF93DF9300D01F92CDB7DEB79091AB0203
:1011B00090FF0AC09E012F5F3F4F0E9416084B818F
:1011C00069818A810E94B5080F900F900F90DF917E
:1011D000CF910895CF93DF93EC01EC81F0E0E85AD2
:1011E000FC4F4491EBEAF2E0628181810E94D008D9
:1011F0008C818F5F8C83DF91CF910895CF93DF93A4
:10120000EC01EBEAF2E0438162818C810E94D0081C
:101210008C818F5F8C83DF91CF9108950F931F9303
:10122000CF93DF9300D01F92CDB7DEB78C018091B2
:10123000BB0181110AC09E012F5F3F4F4FEF6FEF3F
:101240000E9416088A818093BB01F8018481813055
:1012500051F028F0823061F44091BB010AC08091C6
:10126000BB0140E007C06091BB0140E080E003C0EB
:1012700040E080E060E00E94B508F801248130E0A1
:10128000C901019663E070E00E94212784830F90DA
:101290000F900F90DF91CF911F910F910895AF9212
:1012A000BF92CF92DF92EF92FF920F931F93CF9353
:1012B000DF9300D01F92CDB7DEB7182FF62E042F84
:1012C000E22E9091AB0290FF6EC0E92FE695AE2F13
:1012D000B0E0AF59BE4F8C918093C7019E7F923092
:1012E00061F49E012F5F3F4F812F0E9416084B81B2
:1012F00069818A810E94B50844C0823019F4009146
:10130000AE023FC0863019F41091AC023AC0893069
:10131000D9F38931B1F5E9518E2F8170D82EE69538
:10132000F0E0E85AFB4FA590B490C12CBB2460912B
:101330000201C61620F5EC2DF0E0EA9DC001EB9D00
:10134000900DFA9D900D112470E00E940D27812FC1
:10135000D11002C0860F01C0861B9091BE01E90F1B
:10136000F11D9F01220F331FE20FF31F9F01205534
:101370003D4F402F6F2D0E941608C394D8CF0E9476
:1013800090081093AC02F092AD020093AE02EE20F2
:1013900051F06091AB027091AC028091AD029091DE
:1013A000AE020E943B080F900F900F90DF91CF91FB
:1013B0001F910F91FF90EF90DF90CF90BF90AF9073
:1013C0000895EBEAF2E09181282F438162818CE05D
:1013D000890F0C944F0981E00C94E109EBEAF2E0EB
:1013E0009181282F4381628184EF890F0C944F09EA
:1013F00081E00C94EE09EBEAF2E062812CE0620FEE
:1014000008F46FEF282F438181810C944F0981E00C
:101410000C94FB09EBEAF2E062812CE0621B08F419
:1014200060E0282F438181810C944F0981E00C9466
:101430000A0AEBEAF2E043812CE0420F08F44FEF96
:10144000282F628181810C944F0981E00C94190A44
:10145000EBEAF2E043812CE0421B08F440E0282F45
:10146000628181810C944F0981E00C94280A20E06C
:101470000C944F09FF920F931F93CF93DF93EC01CE
:10148000F12C0FEF10E060910201F616E8F42091C4
:10149000BE0130E02F0D311DC901880F991F280FA3
:1014A000391F20553D4F70E0C8010E942127962F1B
:1014B0008C814091AE026091AD02F99E800D1124A5
:1014C0000E941608F394DFCF0E9490089A818C81C5
:1014D00090FF02C08F5F01C081508C83DF91CF915C
:1014E0001F910F91FF900895AF92BF92CF92DF921C
:1014F000EF92FF920F931F93CF93DF93FC018281B2
:1015000080FF02C00FEF01C001E010E04AE0A42E0E
:1015100080910201181708F043C0C12ED12C809190
:10152000BE01E601C80FD11DCE01880F991FC80F5B
:10153000D91FC055DD4F198218821A8234E0E32E7C
:10154000F12CB12C8091BD018B0D8B302CF06A2DCC
:101550000E94FF26892F05C087FF03C090910201DA
:10156000890F082E000C990BC816D90691F48091AA
:10157000AE028E9DA0018F9D500D1124559547956B
:10158000559547959E016091AD028091AC020E94F5
:101590001608B00EF1E0EF1AF108A1F61F5FB8CF00
:1015A0000E9490088091BD01013031F4811102C088
:1015B00080910201815007C090E001966091020184
:1015C00070E00E9421278093BD01DF91CF911F9190
:1015D0000F91FF90EF90DF90CF90BF90AF90089564
:1015E000CF938091BE0190910301891770F4E82F89
:1015F000F0E09F01220F331FE20FF31FE055FD4F74
:101600001182108212828F5FF0CFC0E060910201E0
:10161000C617B8F5EC2FF0E070E0CF010E9421274B
:101620004091BE01480F8091BC01082E000C990B1F
:1016300050E0E817F907C4F020910101022E000CD8
:10164000330B2E173F0784F09A01220F331F240F0C
:10165000351F20553D4F4091AE026091AD02809103
:10166000AC020E9416080BC0FA01EE0FFF1F4E0FCE
:101670005F1FFA01E055FD4F118210821282CF5F89
:10168000C5CF0E949008209100018091BC01820F7B
:101690008093BC0190910101920F90930101191662
:1016A0005CF4082E000C990B4091020150E041506F
:1016B0005109841795071CF0219520930001CF91C3
:1016C00008950F931F93CF93DF938C01FC018481C6
:1016D000958101968170992795838483C0E0D5E533
:1016E00080910201C817F8F42091BE0130E02C0F60
:1016F000311DC901880F991F280F391F20553D4FF3
:101700004C2F4695F80184819581840F911D81703D
:101710004091AE026091AD028D9F802D11240E94F8
:101720001608CF5FDDCFDF91CF911F910F910C9401
:1017300090080F931F93CF93DF93EC0100E010E02C
:1017400080910201282F30E00217130724F59091B1
:10175000BE019801290F311DA901440F551F240F07
:10176000351F20553D4F869590E04C81081719078D
:101770001CF4442331F002C0411103C04091AE0279
:1017800001C040E06091AD028091AC020E94160859
:101790000F5F1F4FD5CF0E9490082C8130E02F5F44
:1017A0003F4F217033272C83DF91CF911F910F91F1
:1017B0000895EBEAF2E080818E7F80836081718101
:1017C000828193810E943B081092C8012FEF80E72D
:1017D00092E0215080409040E1F700C000000C945E
:1017E00090086091AB02669570E04BE050E085E0B8
:1017F00091E00E948327892B19F481E08093C8012E
:101800000E94B71E9093C1018093C00108959091EA
:10181000AB0290FF35C09170811102C0926006C08A
:10182000853210F0986402C0880F982B9093AB0219
:10183000662351F06091AB027091AC028091AD02D1
:101840009091AE020E943B086091AB02669570E0F9
:101850004BE050E085E091E00E948327892B19F04E
:101860001092C80102C00E94F10B81E08093C30175
:101870004091AE026091AD028091AC020C94370AA7
:101880000895682F9091AB02969581E0890F85327B
:1018900008F081E00C94070C81E00C94410C682F57
:1018A0009091AB0296958FEF890F09F484E20C9426
:1018B000070C81E00C944F0C61E00C94070CEBEAF0
:1018C000F2E080818160808386950C945C0C80912D
:1018D000AB0280FD0C94D90B0C945F0C60E00C946F
:1018E000070C8091C60181112EC00E94EE1C81114F
:1018F00004C00E94971D0E9457080E9437086093F9
:10190000AB027093AC028093AD029093AE026E7FF7
:1019100061F40E9457080E9437086093AB027093ED
:10192000AC028093AD029093AE020E942408109204
:10193000C8018091AB0280FF03C086950E946E0CA7
:1019400081E08093C60108950F931F93CF93DF9397
:101950008091C801882309F48CC08091C701E0916F
:10196000AB02E695E81BE093C201823049F4F0E057
:10197000EC5AFC4FE491CE2FD0E00AEE18E049C0BB
:10198000863049F4F0E0EF5AFC4FE491CE2FD0E0DE
:101990000EEF18E03EC0893051F4E695F0E0E25BCE
:1019A000FC4FE491CE2FD0E00AE31AE032C08F3032
:1019B00051F4E695F0E0E55BFC4FE491CE2FD0E0EA
:1019C00004E71AE026C0853149F4F0E0E85BFC4FFB
:1019D000E491CE2FD0E000EF1AE01BC0883181F0F7
:1019E000833239F4E6E4F3E0C591D4910EE019E0D6
:1019F00010C0843251F4C4EFD1E009E91BE009C002
:101A0000C8EED3E001E61BE004C0C0EDD7E005E17D
:101A100018E08091C301882389F01092C3010E94CD
:101A2000B71E9E0120953095820F931F9093C101A0
:101A30008093C0011092C5011092C4018091C00131
:101A40009091C1010E94C31E8C179D0790F0E091F8
:101A5000C001F091C101CE0FDF1FD093C101C0932F
:101A6000C00180EC91E0F801DF91CF911F910F91BF
:101A70000994DF91CF911F910F910895882311F060
:101A8000FA0101C0FB010994CF93DF93C82FD62F31
:101A90000E9466088C1740F00E9466088D1720F49B
:101AA000DF91CF910C944C0C8C2FDF91CF910C9443
:101AB0005C0C0F931F93CF93FB01C281CC2309F4DD
:101AC00063C08C010E943E1C8272F801E25CFC45FE
:101AD000E431F10508F059C0EA5AFF4F0C9457273A
:101AE0000E94670C06C049E55CE06CE47CE00E9463
:101AF0003E0DC0E04AC04CE45CE069E57CE0F7CF15
:101B000048EF59E06BEE79E0F2CF4BEE59E068EF29
:101B100079E0EDCF46E15AE067E07AE0E8CF47E0D0
:101B20005AE066E17AE0E3CF44E35AE065E27AE026
:101B3000DECF45E25AE064E37AE0D9CF4FE758E0E0
:101B40006EE678E0D4CF4EE658E06FE778E0CFCF8E
:101B500081E017C065E082E010C068E086E00DC05B
:101B60006EE089E00AC064E18FE007C067E185E1CB
:101B700004C088E106C062E289E10E94440DB9CF49
:101B800083E20E945C0CB5CFC1E08C2FCF911F91F6
:101B90000F9108959C01FB018281882349F12D3B1F
:101BA000FCE53F07C9F040F42B3BECE53E0769F04C
:101BB0002C3B3C4561F008952F3B9CE5390791F0A3
:101BC00070F0203C3C4589F0089586E001C080E03B
:101BD0000E94CE0E80E008950E943E0EFBCF0E9430
:101BE0001B0EF8CF0E94850EF5CF0E948C0EF2CF0F
:101BF00081E008950E94EE1C811102C00E94971D91
:101C00000E941F1D8093CE02282F2695269526958B
:101C100030E02730310524F0877080638093CE0256
:101C20008091CE0280FF04C086958695869501C07E
:101C300080E00C94F50E2091CE02822F8695869539
:101C40008695482F50E04630510554F48F5F982F09
:101C5000990F990F990F822F8770892B8093CE024D
:101C60008091CE0281608093CE020E94231D8091DC
:101C7000CE028695869586950C94F50E8091CE02BF
:101C8000982F969596959695A1F0915E990F990F3C
:101C9000990F8770892B8093CE02887F91E009F499
:101CA00090E08091CE0290FB80F98093CE020E945A
:101CB000231D8091CE028695869586950C94F50E0F
:101CC0008091CE0280FD13C081608093CE0281306E
:101CD00019F489E08093CE028091CE020E94231DE8
:101CE0008091CE028695869586950C94F50E089582
:101CF0008091CE0280FF08C08E7F8093CE020E942A
:101D0000231D80E00C94F50E08958091CE0280FD95
:101D10000C94780E0C94600E9091CE02892F8695CB
:101D2000869586958F5F8F719770873038F4880F0E
:101D3000880F880F892B8093CE0202C09093CE0229
:101D40008091CE02887F91E009F490E08091CE02EC
:101D500090FB80F98093CE020E94231D8091CE02D9
:101D60008695869586950C94F50E873008F086E06A
:101D70009091CE029770282F220F220F220F922BC4
:101D80009093CE02987F21E009F420E09091CE025A
:101D900020FB90F99093CE020C94F50E0E94B50EA4
:101DA0008091CE020C94231DE82FE295EF70F0E0B5
:101DB00032A1282F2F7081E090E001C0880F2A9572
:101DC000EAF7832B82A30895E82FE295EF70F0E005
:101DD00032A1282F2F7081E090E001C0880F2A9552
:101DE000EAF78095832382A30895CF92DF92EF9242
:101DF000FF92CF93C82F873058F481110AC0809189
:101E00008000877F8093800087E30E94E40E06C0F5
:101E1000C6E0809180008860809380002C2F30E0A5
:101E2000AFEFBFEF0E945D2726E030E040E050E0DA
:101E30000E9435272C3784E138074105510530F4DD
:101E4000C90169E070E00E940D2729C0DA01C901CB
:101E50008A50974DAF4FBF4F6627782F892F9A2F03
:101E600025EF38E241E050E00E94352769017A0110
:101E7000CA01B9010E94EF269B01AC01C701B6015E
:101E80000E94EF26BB27A92F982F872F009721E0CC
:101E9000A207B10511F0BC0102C06FEF7FEF709394
:101EA0008D0060938C00CF91FF90EF90DF90CF90EA
:101EB00008950895279A87E30E94D40E8AE08093BC
:101EC000800089E1809381008FEF9FEF90938700DE
:101ED000809386000C94FA0D21B3342F3095232380
:101EE00031B3432B3FB7F894FC01680F791FE61715
:101EF000F70789F0819198E041BB000000C087FF9F
:101F000021BB880F000000C000C000C021BB00C082
:101F10009A9591F7ECCF3FBF089520B3242B20BBB7
:101F20009B01220F331F620F731F0E946C0F87ECFF
:101F300090E00197F1F700C00000089540E80C948C
:101F40008D0F0F931F93CF93DF93C62FD42F022FA4
:101F5000FC0182818823C9F06093CB010E94B71EE7
:101F60009093CA018093C90180E28C0F883008F0F9
:101F700050C0C77081E001C0880FCA95EAF7DF91B1
:101F8000CF911F910F910C941E141091CB01161339
:101F900030C08091C9019091CA010E94C31E883C43
:101FA000910538F5C0E2CD0F1D17B9F080E2810F21
:101FB000883040F4177081E001C0880F1A95EAF765
:101FC0000E942514C83048F481E09D2F977001C00D
:101FD000880F9A95EAF70E941E14802F0E940B1416
:101FE000C830B8F4D77081E001C0880FDA95EAF7FD
:101FF0000AC080E28C0F883060F4C77081E001C0B5
:10200000880FCA95EAF7DF91CF911F910F910C9439
:102010002514DF91CF911F910F9108959C01CB0161
:10202000233F4CE53407F9F078F4283DFCE53F0701
:10203000B9F0293D4CE5340711F1273D3C4531F518
:1020400026E241EE61EE1EC0253FFCE53F0799F018
:1020500070F0263F3C45D1F427E245EE66EE12C013
:1020600027E245EE0EC026E241EE60EE0BC027E20D
:1020700045EE64EE07C026E241EE62EE03C028E2C0
:1020800041E065EE0E94A10F80E00895FC0182818D
:10209000882319F01092CB01089581E00895CF9321
:1020A000DF93EC01FB018281882309F41FC1C23058
:1020B000FCE5DF0708F41BC1C6319CE5D90738F001
:1020C0009E012A5F3C452930310508F010C10E946D
:1020D000011D9093D4028093D302C031ECE5DE075A
:1020E00009F4C3C008F041C0C8308CE5D80709F432
:1020F0009AC0F0F4C430ECE5DE0709F487C068F458
:10210000C2308CE5D80709F477C0C330DC4509F04C
:10211000E3C08091D302826076C0C630ECE5DE0772
:1021200009F46EC008F07BC08091D30288606BC058
:10213000CC308CE5D80709F485C068F4CA30ECE5EA
:10214000DE0709F474C008F079C00E9489168091F6
:10215000D302806858C0CE308CE5D80709F476C029
:1021600008F07FC08091D3028BC0CB3FECE5DE0747
:1021700009F44FC018F5C3318CE5D80709F47DC0C8
:1021800078F4C131ECE5DE0709F473C0C231DC45F7
:1021900009F0A2C00E9489168091D3028F7733C0C4
:1021A000C5318CE5D80709F472C008F486C0CA3F6F
:1021B000DC4509F091C08091D4023EC0CF3FFCE5E0
:1021C000DF0709F45FC058F4CD3F9CE5D90709F457
:1021D00044C008F43FC08091D40282602DC0C13059
:1021E000FDE5DF0709F475C008F45DC0C230DD45C8
:1021F00009F072C080E06EC08091D302816003C09C
:102200008091D30280618093D30266C08091D30213
:1022100011C08091D40282608093D4025DC080910D
:10222000D3028062F0CF8091D3028064ECCF8091A2
:10223000D30288608460E7CF8160EECF8091D302C3
:102240008E7FE1CF8091D3028D7FDDCF8091D3024D
:10225000877FD9CF8091D40218C08091D4028D7F1E
:10226000DBCF8091D3028F7ECECF8091D3028F7D42
:10227000CACF8091D3028F7BC6CF8091D302877F54
:102280008B7FC1CF8091D4028D7F8E7FC5CF80910F
:10229000D30282FB222720F991E0922790FB82F95A
:1022A00090FB83F9B0CF8091D402982F90959170D4
:1022B0008E7F892B90FB81F9AFCF0E948916809188
:1022C000D30287FB222720F991E0922790FB87F920
:1022D0009ACF81E00E94991D8091D3029091D402FF
:1022E0000E94121D0E94891680E001C081E0DF91EA
:1022F000CF910895CF93DF9386319C4541F5EB0153
:102300000E943E1C282F8A8140911001509111019A
:10231000882379F02A7A91E009F490E09093CC0137
:10232000911102C069E201C065E3CA010E94031E67
:102330000AC08091CC01811102C069E201C065E34D
:10234000CA010E940E1E0E948A1C80E001C081E02A
:10235000DF91CF9108959093D2018093D101089598
:10236000E091D101F091D201309721F00190F081FC
:10237000E02D099480E00895E091D101F091D2011F
:10238000309799F020911C01222359F02091D3021B
:1023900027FF07C0DC012C9111962C93119725E0A3
:1023A0002C930280F381E02D099408952091CF01B0
:1023B0003091D0018217930771F09093D0018093F0
:1023C000CF01E091D101F091D201309721F0068048
:1023D000F781E02D099408952091CD013091CE012F
:1023E0008217930771F09093CE018093CD01E09115
:1023F000D101F091D201309721F00084F185E02DD8
:102400000994089585B7806885BF85B7806885BFC2
:102410000895089508950C940A1208950C940D12CD
:102420000E9402120E9409120C940B1281E008957E
:102430000E94AE1E0E945C060E94371F0E94FA0D89
:102440000E94710C0C940E127F928F929F92AF9209
:10245000BF92CF92DF92EF92FF920F931F93CF9391
:10246000DF93CDB7DEB72A970FB6F894DEBF0FBE65
:10247000CDBF0E94A7060E941612811111C08FEFD6
:1024800089838A831B820E94B71E8160782F9D8377
:102490008C8349815A816B818D810E94D6124FC0F5
:1024A00034ED832E31E0932E00E010E0702E802F6B
:1024B0000E944E066C01F401A190B1904F01A82634
:1024C000B926A114B10431F40F5F1F4F0530110577
:1024D00069F7D5CF8091710281FD0E94570690E087
:1024E000EE24E394F12C97012A213B21232B09F1BF
:1024F0009E837F82CE20DF2091E0CD2809F490E0FA
:1025000098870E94B71E8160782F9A8789874E81AD
:102510005F8168858A850E94D612000F111FF8011D
:10252000EC52FE4F80819181E826F926F182E0820B
:1025300006C09F5FEE0CFF1C9E30A9F6C5CF0E941F
:10254000A40C0E94590F1091D3010E94B0111817CA
:10255000C9F00E94B0118093D3012A960FB6F89467
:10256000DEBF0FBECDBFDF91CF911F910F91FF90C6
:10257000EF90DF90CF90BF90AF909F908F907F9023
:102580000C94E8032A960FB6F894DEBF0FBECDBFB9
:10259000DF91CF911F910F91FF90EF90DF90CF903F
:1025A000BF90AF909F908F907F900895CF93DF93CF
:1025B000CDB7DEB72B970FB6F894DEBF0FBECDBFF9
:1025C0004F83588769877A878B87DE01119686E06B
:1025D000FD0111928A95E9F785E0FE013796019099
:1025E0000D928A95E1F749815A816B817C818D81B9
:1025F0009E810E9433192B960FB6F894DEBF0FBE52
:10260000CDBFDF91CF910895FC01808191810E941F
:10261000FF1B0895CF93DF931F92CDB7DEB78823BA
:1026200009F496C0682F8238C1F40E94B01181FD70
:102630008FC069E380911001909111010E94031EE7
:102640000E948A1C2FEF81EE94E021508040904040
:10265000E1F700C0000069E319C0833811F50E945A
:10266000B01180FD75C063E580911001909111015A
:102670000E94031E0E948A1C2FEF81EE94E02150DD
:1026800080409040E1F700C0000063E580911001B8
:10269000909111010E940E1E0F90DF91CF910C942A
:1026A0008A1C8438C1F40E94B01182FD51C067E4D5
:1026B00080911001909111010E94031E0E948A1CBA
:1026C0002FEF81EE94E0215080409040E1F700C070
:1026D000000067E4DBCF8CEF860F813A70F4862F21
:1026E00069830E94E01F6981811132C080911001CD
:1026F000909111010E94031ECFCF80E2860F883097
:1027000048F4677081E001C0880F6A95EAF70E947B
:10271000411CC2CFEBE5E60FE33050F4F0E0EC549F
:10272000FE4F808190E00F90DF91CF910C94D611F5
:10273000685A673168F4E62FF0E0EE0FFF1FEA57A2
:10274000FE4F808191810F90DF91CF910C94EC111D
:102750000F90DF91CF910895882309F45BC0682F13
:10276000823879F40E94B01181FF54C069E38091EE
:102770001001909111010E94031E0E948A1C69E3BE
:1027800010C08338B1F40E94B01180FF43C063E5EC
:1027900080911001909111010E94031E0E948A1CD9
:1027A00063E580911001909111010E940E1E0C941E
:1027B0008A1C843879F40E94B01182FF2BC067E430
:1027C00080911001909111010E94031E0E948A1CA9
:1027D00067E4E7CF8CEF860F813A18F380E2860F2B
:1027E000883048F4677081E001C0880F6A95EAF785
:1027F0000E94471CDCCF8BE5860F833020F480E0FD
:1028000090E00C94D611685A673120F480E090E093
:102810000C94EC110895CF93C82F0E940A13C9336A
:1028200049F42FEF87EE93E0215080409040E1F78C
:1028300000C000008C2FCF910C94AC13882321F0A2
:102840000E94411C0C948A1C0895882321F00E9448
:10285000471C0C948A1C0895BF92CF92DF92EF928E
:10286000FF920F931F93CF93DF937C01062FC72F07
:10287000FC01158112951F70D281D1110E945E1C3E
:102880000E94371C882379F0DD2369F080E2800FF5
:10289000883048F082E00E94D51C0E94371C91E0ED
:1028A000B82EB92601C0B12CCC2EC2948FE0C8221C
:1028B000D12CF601E659FF4F0C9457278C2F807FBF
:1028C000CF70882311F0C295C07FDD2399F0CC230F
:1028D00009F48CC180E2800F883010F0011104C02F
:1028E0008C2F0E94411C03C08C2F0E94511C0E94FF
:1028F0008A1C7CC1802F0E94AC13CC2309F49BC19D
:1029000080E2800F883010F0011104C08C2F0E94EB
:10291000471C03C08C2F0E94571C0E948A1C8BC12D
:102920008C2F807FCF70803211F0C295C07F002342
:1029300019F00130C9F022C0DD2371F0112341F0FC
:10294000113031F40E94711C8C2B0E94771C73C1D2
:102950000E94711C8C2B1DC0112319F0113009F439
:102960006AC10E94801C25C0DD2321F0163008F0CA
:1029700062C10EC0153008F05EC11BC0DD2361F0DE
:10298000112331F0F701858180FF30C18F7085837D
:102990008C2F0E941E144FC1112359F0093309F0E6
:1029A00036C1FFEF27EE83E0F15020408040E1F791
:1029B0002CC18C2F0E9425143EC18C2F86958695A4
:1029C000837090E0009719F0019761F034C1DD2326
:1029D00021F0802F9C2F937002C080E090E00E9435
:1029E000D61134C1DD2321F0802F9C2F937002C0BB
:1029F00080E090E00E94EC1129C18C2F837009F0D7
:102A000049C0D1111FC1402F429546954770440FD0
:102A1000440F602F6F70862F90E0A0E0B0E0042E8E
:102A200004C0880F991FAA1FBB1F0A94D2F704FF86
:102A300010C00FE010E020E030E004C0000F111FD4
:102A4000221F331F4A95D2F7009510952095309597
:102A500003C000E010E09801C695C695C370D0E0B1
:102A6000BC01CD01602B712B822B932BC230D10581
:102A700059F0C330D10559F0219719F00E94781A06
:102A8000E1C00E94661ADEC00E948A1ADBC00E9462
:102A9000641AD8C0DD2319F08C2F817001C086958F
:102AA000882309F4CFC0402F429546954770440FC4
:102AB000440F602F6F70862F90E0A0E0B0E0042EEE
:102AC00004C0880F991FAA1FBB1F0A94D2F704FFE6
:102AD00010C00FE010E020E030E004C0000F111F34
:102AE000221F331F4A95D2F70095109520953095F7
:102AF00003C000E010E09801C695C695C370D0E011
:102B0000BC01CD01602B712B822B932BC230D105E0
:102B100059F0C330D10559F0219719F00E943E1B9E
:102B200091C00E942C1B8EC00E94501B8BC00E9423
:102B30009F1A88C0CF70DD2339F08C2F0E94C51AF0
:102B4000802F0E941E147EC0802F0E9425148C2F7F
:102B50000E94E61A77C0023F01F128F4003F41F0DD
:102B6000013FA1F03FC0033FF9F0043F39F13AC003
:102B7000DD2341F0153008F05EC08C2F8F710E946C
:102B80000B1B59C0163008F056C0F7CFDD2339F0C3
:102B90008C2F8F710E94C51A4EC0DD23C9F38C2F74
:102BA0008F710E94E61A47C0DD2329F08C2F8F71A8
:102BB0000E94B01A40C00E94AB1A3DC0DD2349F00C
:102BC000CF718C2F0E94C51A63E08C2F0E94C01C0D
:102BD00032C081E00E94D51C123068F182E00E9470
:102BE000D51C29C0DD2331F0112391F2802F0E94E2
:102BF0000A1321C0112399F2093349F49FEFE7EE3C
:102C0000F3E09150E040F040E1F700C00000802F79
:102C10000E94AC1310C04C2F4F70602FC7010E9450
:102C200049040E94D71912C04C2F4F70602FC70162
:102C30000E944C040BC028E0C21AD10884E0C816D8
:102C4000D10420F40E94B0110E94E803BB20D1F00F
:102C50000E94331C80FD16C0F70112820E942D1CB9
:102C60000E94C51AC7010E944C160E942D1CDF91BC
:102C7000CF911F910F91FF90EF90DF90CF90BF9079
:102C80000C94E61ADF91CF911F910F91FF90EF9076
:102C9000DF90CF90BF9008950F931F93CF93DF9352
:102CA000EC01888199812B813C81232BB9F09F3FD6
:102CB00011F48F3F99F0CE010E940104882371F036
:102CC000688179818A810E940A1C8C010E94621BA2
:102CD0000E94631AB801CE010E942C14DF91CF919B
:102CE0001F910F9108950E945E1C0E946E1C0E940D
:102CF0008A1C80E090E00E94D61180E090E00C9465
:102D0000EC1180911001909111010E94191E0C94F8
:102D100073160E944E1C0C948116E92FE295EF70F9
:102D2000F0E03297EE30F105B0F4E658FF4F0C9426
:102D30005727803F91F018F4883E68F40EC0843F16
:102D400051F40BC0883E48F0813F29F406C093FB44
:102D5000882780F9089580E0089581E008950E9411
:102D6000FF1B0E948D160895CF93DF9300D000D0F3
:102D70001F92CDB7DEB70F900F900F900F900F906E
:102D8000DF91CF910895CF93DF9300D000D000D092
:102D9000CDB7DEB726960FB6F894DEBF0FBECDBF17
:102DA000DF91CF9108951F93CF93DF93C091DF01FF
:102DB00016E08091E001C81799F0D0E01C9FF00167
:102DC0001D9FF00D1124EF51FE4F40815181628112
:102DD0007381848195810E94C3162196C770E9CFC3
:102DE000DF91CF911F9108954091110250911202ED
:102DF0006091130270911402809115029091160255
:102E00000C94C3168091160282958F7009F054C0FD
:102E100080911302882309F44FC08091DF01A091B3
:102E2000E0016091110270911202409114025091E0
:102E30001502B6E08A1709F43FC090E0411551052C
:102E4000C1F17F3F11F46F3FA1F1B89FF001B99F2D
:102E5000F00D1124EF51FE4F218172132AC0208101
:102E6000621327C02281211124C0238134812417B9
:102E7000350710F421503109241B350B283C31054E
:102E8000C0F4209116022F7020612093160226E0D4
:102E9000289FF001299FF00D1124EA51FE4F8081F7
:102EA0008F708061808381E192E00E944C160C94C7
:102EB000D31601968770BECF0895CF92DF92EF921E
:102EC000FF920F931F93CF93DF93CDB7DEB7629737
:102ED0000FB6F894DEBF0FBECDBF8C0185E0F801C0
:102EE000DE011D9601900D928A95E1F7D8014C9173
:102EF00011965C91119712966C9112971396CD9042
:102F0000DC9014973091110270911202809114029A
:102F100090911502009709F46BC17F3F19F43F3F70
:102F200009F466C1E0901302EE2009F4C0C02091BC
:102F30001602C816D90628F0F601E81BF90BCF01D6
:102F400004C0809590958C0D9D1DFF24F394883CC2
:102F5000910578F0F12C207F09F0C6C07C2DD98A2C
:102F6000C88A89890E94B41681E192E00E944C16B9
:102F7000B1C0822F807F09F046C0751314C034138E
:102F800012C0611110C02F702061209316020E94A0
:102F9000F41681E192E00E944C1680911602D8014D
:102FA00015968C932EC0CD2819F15F3F11F44F3F39
:102FB000F9F0F62E61111CC08091DF012091E00133
:102FC00036E0821709F45AC090E0389FF001399F2B
:102FD000F00D1124EF51FE4F7181571306C070811F
:102FE000471303C07281711103C001968770E9CF46
:102FF000F62E662309F427C1809116028160809322
:103000001602F12C20C1751308C0341306C06111DB
:1030100004C080911602D801C3C04D875E878D859C
:103020009E856A8B0E94AF166A898823E1F1662328
:10303000D1F120911602822F82958F7090E0029735
:1030400074F0809111029091120298878F831986F3
:10305000DB86CA862C87CE0107960E944C1686E036
:10306000F801A1E1B2E001900D928A95E1F70E948A
:1030700002170E94F416FF24F394E5C04D875E8783
:103080008D859E850E94FF1B292F22952F7030E091
:10309000223031050CF0CBC09F7009F0C5C0805EB6
:1030A000883008F4D0C0C8010E944C16E4CFC8167E
:1030B000D90608F453C0F601E81BF90BCF01883C90
:1030C000910508F450C0F12C7C2DD98AC88A8989D1
:1030D0000E94B416E1E1F2E086E0DF011D928A95DC
:1030E000E9F70E94F416AFC0751314C0341312C070
:1030F000611110C080911602F8018583C8010E94F9
:103100004C1686E0E1E1F2E0DF011D928A95E9F7D5
:10311000FE2C99C04D875E878D859E856A8B0E94A7
:10312000AF166A89882309F4BECF662309F4BBCFA2
:1031300020911602822F82958F7090E002970CF4F6
:103140008ECF80911102909112029A8389831B8203
:10315000DD82CC822E83CE0101967FCF8095909523
:103160008C0D9D1DACCFF62E662309F49CCF7513F4
:103170002EC034132CC02091160220FD1FC0822FB8
:1031800082958F70D9F0D80115962C9315978F30B2
:1031900049F08F5F982F9295907F822F8F70892BA7
:1031A00015968C93C8010E944C1686E0F801A1E1A7
:1031B000B2E001900D928A95E1F793CF86E0F80195
:1031C000A1E1B2E001900D928A95E1F73CC04D87F4
:1031D0005E878D859E850E94AF16811140CF8091BC
:1031E0001602816080931602C8010E944C162BC003
:1031F000662309F458CF4D875E878D859E850E9492
:10320000AF16F82E882309F44ECF86E0F801A1E12D
:10321000B2E001900D928A95E1F781E192E00E947F
:1032200004130E9402175DCF811139CF0CC02430E6
:1032300031050CF038CF9F7009F431CFF80195813A
:10324000907F09F02CCF8F2D62960FB6F894DEBFD9
:103250000FBECDBFDF91CF911F910F91FF90EF90E7
:10326000DF90CF9008951F93CF93DF93CDB7DEB754
:103270002C970FB6F894DEBF0FBECDBF4F83588793
:1032800069877A878B879C87CE0107960E945D1796
:10329000882369F08F8198852A853B85232BF1F15E
:1032A0009F3F09F063C08F3F09F060C037C086E0E0
:1032B000FE013796DE01119601900D928A95E1F795
:1032C0006F817885EA85FB85309741F17F3F11F466
:1032D0006F3F21F12091E00130E0C9010196877034
:1032E00099274091DF0150E08417950709F447C002
:1032F00069837A83FD83EC8396E0929FD001939F4C
:10330000B00D1124AF51BE4FFE01319601900D92C8
:103310009A95E1F78093E0010E94D31616E0809120
:10332000DF019091E0018917C1F1189FC0011124BC
:103330008F519E4F0E945D17882379F1E091DF0144
:103340001E9FF0011124EF51FE4F40815181628197
:103350007381848195810E94C3168091DF0190E082
:103360000196877099278093DF01D9CF4F815885C7
:1033700069857A858B859C850E94C316CFCF0E9474
:1033800089161092E0011092DF01E1E1F2E086E09F
:10339000DF011D928A95E9F7C1CF2C960FB6F894FC
:1033A000DEBF0FBECDBFDF91CF911F910895EF9289
:1033B000FF920F931F93CF93DF938C01892B09F416
:1033C0006CC0F12CEE24E394E8012196F80184917D
:1033D000843740F4843008F051C0813081F082306D
:1033E00019F15BC0853709F444C0A8F19CE7980F38
:1033F000903708F052C08F770E94AC1341C00E5F27
:103400001F4FFE01C49180E28C0F883048F4C770D2
:103410008E2D01C0880FCA95EAF70E94611C14C066
:103420008C2F0E940A132DC00E5F1F4FFE01C49106
:1034300080E28C0F883058F4C7708E2D01C0880F41
:10344000CA95EAF70E94671C0E948A1C1AC08C2F3A
:103450000E94AC1316C00E5F1F4FFE01C491CC2317
:1034600081F08FE99FE00197F1F700C00000C150A3
:10347000F6CF0E5F1F4FFE01F49003C00E940A13A7
:103480008E018F2D882309F49FCFEFE9FFE031975C
:10349000F1F700C000008150F5CFDF91CF911F916F
:1034A0000F91FF90EF90089508950C94541A0E9484
:1034B000551A609348027093490280934A02909390
:1034C0004B020C94731608950C94571A0F931F9384
:1034D000009148021091490220914A0230914B021A
:1034E000602B712B822B932B1F910F910C94571AE9
:1034F0000F931F93009148021091490220914A02B4
:1035000030914B0260237123822393231F910F91EB
:103510000C94571A0F931F9300914802109149027F
:1035200020914A0230914B0260277127822793270E
:103530001F910F910C94571A08950C949C1A0E9495
:103540009D1A6093440270934502809346029093C3
:1035500047020C94731660E070E0CB010C949F1A44
:103560000F931F9341E050E060E070E08A019B01FF
:1035700004C0000F111F221F331F8A95D2F7C90103
:10358000B8011F910F910C949F1A0F931F9341E064
:1035900050E060E070E004C0440F551F661F771FC5
:1035A0008A95D2F78091440290914502A0914602FB
:1035B000B09147028A019B01082B192B2A2B3B2B28
:1035C000C901B8011F910F910C949F1A0F931F937B
:1035D00041E050E060E070E004C0440F551F661FFA
:1035E000771F8A95D2F74095509560957095809198
:1035F000440290914502A0914602B09147028A018F
:103600009B01082319232A233B23C901B8011F91D9
:103610000F910C949F1A0F931F9341E050E060E0CC
:1036200070E004C0440F551F661F771F8A95D2F7BC
:103630008091440290914502A0914602B0914702C8
:103640008A019B01082719272A273B27C901B801AE
:103650001F910F910C949F1A0F931F930091440296
:10366000109145022091460230914702602B712B48
:10367000822B932B1F910F910C949F1A0F931F93E2
:103680000091440210914502209146023091470278
:1036900060237123822393231F910F910C949F1A0F
:1036A0000F931F930091440210914502209146020E
:1036B0003091470260277127822793271F910F912E
:1036C0000C949F1A08952EE0929F800D1124A82F2C
:1036D000A695A695A695877051E001C0550F8A95CD
:1036E000EAF785E0A89FD001112420E030E070E0E7
:1036F000F901EA0FFB1FE95EFD4F4081CB01022E6D
:1037000002C0969587950A94E2F781709927819572
:1037100084278523842780832F5F3F4F2530310501
:1037200039F708952EE0929F800D1124682F669539
:1037300066956695982F977085E0689FB001112473
:1037400040E050E080E0FA01E60FF71FE95EFD4F30
:10375000208130E0092E02C0369527950A94E2F7C1
:1037600021703327042E01C0220F0A94EAF7822B1E
:103770004F5F5F4F4530510531F70895BF92CF92AB
:10378000DF92EF92FF920F931F93CF93DF938C0101
:10379000C0904802D0904902E0904A02F0904B025B
:1037A0008091440290914502A0914602B091470257
:1037B000C82AD92AEA2AFB2ACFE1D0E0D701C601DC
:1037C0000C2E04C0B695A795979587950A94D2F7C5
:1037D00080FF07C0BC2EB8018C2F0E9467040197A0
:1037E00019F4219758F7B12C8B2DDF91CF911F91B0
:1037F0000F91FF90EF90DF90CF90BF900895CF93FF
:10380000DF93EC010E94BE1BBE010E946704DF91A2
:10381000CF9108951F93CF93DF93EB019091DE0139
:10382000992321F0CB010E94FF1B13C0882349F08C
:10383000CB010E94BE1B182F682FCE010E94631B74
:1038400004C0CB010E94921B182FBE01812F0E9441
:103850006704DF91CF911F91089580914C02859567
:1038600085958595089580914C0287700895909173
:103870004C02977081E009F480E008958091700215
:10388000089590917002892B80937002089580951D
:1038900090917002892380937002089510927002B3
:1038A000089590916F02892B80936F0208958095FF
:1038B00090916F02892380936F02089510926F0296
:1038C000089590916E02892B80936E0208958095E1
:1038D00090916E02892380936E02089510926E0279
:1038E000089580914D02089508950C94741C909150
:1038F0004D02981721F080934D020C94751C089589
:1039000080914D02882329F010924D0280E00C94A2
:10391000751C0895E0911001F091110180917002E1
:103920008083E0911001F0911101908180916F02EC
:10393000892B8083E0911001F09111019081809199
:103940006E02892B808380914D02882381F0E09163
:103950001001F09111019081892B808380911001D9
:10396000909111010E949E1D81110E94801C8091E6
:103970001001909111010C94BC1108950C94BD1C80
:1039800098E0899F90011124262B20934C020E94DD
:10399000C51A80914C028595859585950C94BE1C21
:1039A00010924C0280E00C94BE1C20914C02809539
:1039B000822380934C02982F977079F430E0482F3F
:1039C000082E000C550B2417350739F08595859581
:1039D00085950E94E61A0C94D01C089580E090E032
:1039E0000E949E2721E08C3E9E4F09F020E0822F0E
:1039F000089582E090E00C94902783E090E00C948E
:103A00009027CF9384E090E00E949027C82F81E216
:103A100090E00E9490272C2F30E0A901582BCA017A
:103A2000CF910895CF93C92F682F84E090E00E9432
:103A3000A4276C2F81E290E0CF910C94A42786E01C
:103A400090E00C949027682F86E090E00C94A427D7
:103A5000AB01BC018FE090E00C94B627AB01BC0138
:103A600083E190E00C94B62760E070E0CB010C9409
:103A70002E1D60E070E0CB010E94281D0C94341DC7
:103A80006CEE7EEF80E090E00E94C22760E082E072
:103A900090E00E94A42760E083E090E00E94A427C9
:103AA000109248021092490210924A0210924B0260
:103AB00060E084E090E00E94A42760E081E290E072
:103AC0000E94A42760E085E090E00E94A42760E0C7
:103AD00086E090E00E94A4276FEF87E090E00E94CC
:103AE000A42740E050E0BA0188E090E00E94B627A9
:103AF00060E08DE090E00E94A42740E050E0BA0131
:103B000088E190E00E94B62760E087E190E00E94A3
:103B1000A42740E050E0BA018CE190E00E94B62773
:103B200060E080E290E00E94A4270C94391D0C9480
:103B3000401D682F8EE090E00C94A427FC01329683
:103B400080911C01882331F08091D30287FF02C04D
:103B50009EE101C096E080E0915028F0219122235F
:103B6000D9F38F5FF9CF08959C01FC0132969FEF46
:103B700080E04191461789F09F3F19F4411101C03F
:103B8000982F8F5F8630A9F79F3F39F0F901E90F31
:103B9000F11D97FDFA95628308950895FC01329610
:103BA00008962081261301C010823196E817F90784
:103BB000C1F70895262F2695269526952E3168F46F
:103BC000FC01E20FF11D677021E030E001C0220F1F
:103BD0006A95EAF78281282B22830895262F26955D
:103BE000269526952E3170F4FC01E20FF11D6770C9
:103BF00021E030E001C0220F6A95EAF7209582812A
:103C000028232283089520911C01222329F020914A
:103C1000D30227FD0C94DA1D0C94B41D20911C01D5
:103C2000222329F02091D30227FD0C94EE1D0C9441
:103C3000CE1D20911C01FC013296222331F080918F
:103C4000D30287FF02C08EE101C086E0DF011D9232
:103C50008A95E9F7089508950C942B1E0E942C1E56
:103C60008091D902843061F11092720220E488E1DF
:103C700090E00FB6F894A895809360000FBE209353
:103C8000600080E00E94F50E80E00E94E8030E9440
:103C90002C1E83B7817F846083BF83B7816083BF1D
:103CA0007894889583B78E7F83BF0FB6F894A895D4
:103CB00080916000886180936000109260000FBE68
:103CC000089508950895CF930E94611E0E94A7064B
:103CD0000E94621EC0E08C2F0E944E06892B29F4A0
:103CE000CF5FC530C1F780E001C081E0CF9108957A
:103CF00008950C94781E0E9489160E94FA0D0E9465
:103D0000B0110E94E8030C94791E1F920F920FB617
:103D10000F9211248F939F93AF93BF938091720260
:103D2000811113C08091CF029091D002A091D10255
:103D3000B091D2024196A11DB11D8093CF02909304
:103D4000D002A093D102B093D202BF91AF919F91C4
:103D50008F910F900FBE0F901F90189582E084BD39
:103D600093E095BD9AEF97BD80936E0008952FB7AD
:103D7000F8948091CF029091D002A091D102B0919D
:103D8000D2022FBF0895CF92DF92EF92FF920F934E
:103D90001F932FB7F8944091CF025091D0026091B9
:103DA000D1027091D2022FBF6A017B01EE24FF2461
:103DB0008C0120E030E0C016D106E206F30610F4D4
:103DC000415051099A01281B390BC9011F910F91CC
:103DD000FF90EF90DF90CF90089578941F920F920C
:103DE0000FB60F9211248F939F93AF93BF9380913F
:103DF000CF029091D002A091D102B091D20201964F
:103E0000A11DB11D8093CF029093D002A093D10247
:103E1000B093D202BF91AF919F918F910F900FBE3F
:103E20000F901F90189581E08093E00080E28093CE
:103E3000D8001092C9008FE19EE40197F1F700C00D
:103E4000000087E090EBDC018093E2029093E302B4
:103E5000A093E402B093E5029CE088E10FB6F894E9
:103E6000A895809360000FBE90936000FFCF0E94E2
:103E7000EE1C811102C00E94971D0E94F91C8093C4
:103E800071020E94011D9093D4028093D3020E947C
:103E9000FD1C682F70E080E090E00C94641A0F9392
:103EA0001F93482F50E0FA013597EF33F10508F0E2
:103EB0007FC0E857FF4F0C9457270E94971D71C091
:103EC00080917102817F8E7F8093710281E0809367
:103ED00073026FC00E9489160FEF13ED20E30150AB
:103EE00010402040E1F700C000000E94131F59C09D
:103EF00080917102982F9095917090FB80F980933A
:103F0000710291114EC0897F877F10C0809171022C
:103F100081FB222720F991E0922790FB81F9809381
:103F200071029923F1F18091710281608093710295
:103F300038C08091710282FB222720F991E09227FC
:103F400090FB82F9ECCF8091710283FB222720F94C
:103F500091E0922790FB83F9E2CF0E94891680912D
:103F6000D30287FB222720F991E0922790FB87F963
:103F70008093D30216C0895301C08D5141E050E0B7
:103F800060E070E08A019B0104C0000F111F221F36
:103F9000331F8A95D2F7C901B8010E94641A0E94A2
:103FA000891681E006C061E070E080E090E0F5CF26
:103FB00080E01F910F91089580E0089580E00895BA
:103FC000CF93C82F80917302882319F0813031F08C
:103FD0002BC00E943E1C823249F504C00E943E1C48
:103FE000823261F48C2F0E94DC1F811104C08C2F5F
:103FF0000E944F1F17C081E090E014C08C2F0E94D8
:10400000DE1F81110EC0C43149F018F4CB3049F0E5
:104010000FC0C93219F0C83321F00AC010927302E0
:1040200007C081E0817006C01092730280E002C078
:1040300080E0F8CFCF91089580919402089508957B
:10404000CF93DF9300D01F92CDB7DEB79091D90206
:10405000943019F589837B836A8382E08093E90039
:104060008FEF9091E800815095FD06C095ED9A95EF
:10407000F1F700008111F5CF8091E80085FF0DC0B8
:1040800040E050E063E070E0CE0101960E945322D0
:104090008091E8008E778093E8000F900F900F904A
:1040A000DF91CF910895CF93DF93EC010E943622E8
:1040B000823011F0843031F4BE0184E0DF91CF9181
:1040C0000C942020DF91CF910895BC0183E00C94E3
:1040D0002020CF93DF93EC010E943622823011F032
:1040E0008430D9F580911C01882339F08091D30266
:1040F00087FF03C060E282E002C068E081E0809355
:10410000E9008FEF9091E800815095FD06C095ED94
:104110009A95F1F700008111F5CF8091E80085FFB5
:104120001CC080911C01811105C040E050E068E096
:1041300070E003C070E040E050E0CE010E945322E6
:104140008091E8008E778093E80080E2FE01A4E78A
:10415000B2E001900D928A95E1F7DF91CF91089539
:104160008091D802811109C00E94E8230E94452451
:104170008091E20084608093E20008951092D8025A
:104180000895089508950C947B1E42E061EC81E04F
:104190000E94622342E261EC82E00C9462238091EF
:1041A000DB02833009F460C030F4813071F082307A
:1041B00009F499C008958A3009F485C08B3009F458
:1041C0006BC0893009F0A7C020C08091DA02813A23
:1041D00009F0A1C08091E800877F8093E80080917A
:1041E000DE029091DF02892B21F460E284E792E005
:1041F00003C060E080E090E070E00E949E22809129
:10420000E8008B778093E80008958091DA0281328C
:1042100009F081C08091DE029091DF02029708F0E0
:104220007AC08091E800877F8093E8008091E80061
:1042300082FD05C08091D9028111F8CF6CC0209118
:10424000F3008091F20090E0922B029729F4809184
:10425000F1008B7F813021F48091F10080939402F2
:104260008091E8008B7753C08091DA02813A09F09F
:1042700052C08091DE029091DF02892B09F04BC081
:104280008091E800877F8093E8008091E80080FFBC
:10429000FCCF80911C0136C08091DA028132D9F5C1
:1042A0008091DE029091DF02892BA9F58091E800D0
:1042B000877F8093E8000E9497238091DC0280939F
:1042C0001C010C9489168091DA02813221F58091CB
:1042D000E800877F8093E8000E9497238091DD02A9
:1042E0008093950208958091DA02813AA1F4809139
:1042F000E800877F8093E8008091E80080FFFCCF92
:10430000809195028093F1008091E8008E778093F0
:10431000E8000C949723089584B7877F84BF0FB675
:10432000F894A89580916000886180936000109255
:1043300060000FBE90E080E80FB6F89480936100B3
:10434000909361000FBE0E9410120E94E8230E9409
:1043500045248091E20084608093E20078940E947A
:10436000D4260E94181282E191E00E94AB11809144
:10437000D902853069F40E942E1E8091D7028823CD
:10438000B1F30E94631E882391F30E943D22EFCF78
:104390000E942412ECCF0C94CD21292F33272330F7
:1043A0003105C9F064F42130310581F02230310546
:1043B00009F04CC08BE390E029E935E04BC0213295
:1043C000310521F12232310589F140C082E190E0CE
:1043D00024ED35E03FC099278130910571F02CF430
:1043E000892BA1F5E5E9F5E00DC08230910541F09A
:1043F000039761F5EDE5F5E005C0E5E7F5E002C0FE
:10440000E3E6F5E0849190E09F0124C06115710519
:1044100041F061307105D1F489E090E024EC35E0A1
:1044200019C089E090E02BEA35E014C061157105F0
:1044300041F06130710551F48DE690E026EE35E0F3
:1044400009C080E490E023E536E004C080E090E01D
:1044500020E030E0FA013183208308958091D90271
:10446000843011F081E0089582E0089580919602F1
:10447000811102C00C942E22089580E189BD82E151
:1044800089BD09B400FEFDCF8091D8008F7D809357
:10449000D8008091E00082608093E0008091E0008D
:1044A00081FDFCCF0895CF92DF92EF92FF920F93A0
:1044B0001F93CF93DF93EC018B016A010E94B62317
:1044C000811133C0C114D10439F0F601808191818A
:1044D000081B190BC80FD91FE12CF12C0115110570
:1044E00019F18091E80085FD16C08091E8008E7773
:1044F0008093E800C114D10449F0F60180819181D4
:10450000E80EF91EF182E08285E00FC00E94B6231A
:10451000882321F30AC089918093F1000150110989
:10452000FFEFEF1AFF0ADACF80E0DF91CF911F9102
:104530000F91FF90EF90DF90CF9008952091E002CF
:104540003091E1022617370748F06115710539F4FB
:104550002091E8002E772093E80001C0B90140E0E7
:1045600061157105A9F12091D902222309F443C0F4
:10457000253009F442C02091E80023FD40C020917D
:10458000E80022FD32C02091E80020FFE9CF4091F1
:10459000F3002091F20030E0342BFC01CF016115D3
:1045A000710559F02830310540F481918093F10074
:1045B000615071092F5F3F4FF1CF41E02830310545
:1045C00009F040E02091E8002E772093E800C8CF62
:1045D0004111C9CF0AC08091D902882361F085308A
:1045E00061F08091E80083FD0AC08091E80082FFBD
:1045F000F2CF80E0089582E0089583E0089581E09D
:1046000008952091E0023091E1022617370748F023
:104610006115710539F42091E8002E772093E800A8
:1046200001C0B901FC0120E06115710591F1809193
:10463000D902882309F440C0853009F43FC0809135
:10464000E80083FD3DC08091E80082FD2FC080918D
:10465000E80080FFE9CF2091F3008091F20090E024
:10466000922B6115710559F08830910540F4249121
:104670002093F1003196615071090196F2CF21E04B
:10468000089709F020E08091E8008E778093E80099
:10469000CBCF2111CCCF0AC08091D902882361F001
:1046A000853061F08091E80083FD0AC08091E800C8
:1046B00082FFF2CF80E0089582E0089583E00895BC
:1046C00081E00895982F973058F59093E900981756
:1046D00039F07091EC002091ED005091F00003C092
:1046E000242F762F50E021FF19C03091EB003E7F40
:1046F0003093EB003091ED003D7F3093ED00309131
:10470000EB0031603093EB007093EC002093ED00F0
:104710005093F0002091EE0027FF07C09F5FD3CF9A
:104720008F708093E90081E0089580E00895809182
:10473000DA0287FF11C08091E80082FD05C08091F8
:10474000D9028111F8CF11C08091E8008B770BC09E
:104750008091D902882349F08091E80080FFF8CF4A
:104760008091E8008E778093E80008952091E4001E
:104770003091E50095E64091EC00842F817040FF78
:1047800022C08091E80080FD1CC08091D90288235E
:1047900091F0853091F08091EB0085FD10C0409143
:1047A000E4005091E5004217530729F39A01915014
:1047B00011F784E0089582E0089583E0089581E090
:1047C000089580E008954091E80042FFDECF08950B
:1047D0000E9456240E945E24E0EEF0E08081816019
:1047E0008083E8EDF0E080818F77808319BCA7EDAE
:1047F000B0E08C918E7F8C9380818F7E808310922D
:10480000D80208950F931F93CF93DF930E945624ED
:104810000E945E24C8EDD0E088818F7788838881EC
:104820008068888388818F7D888319BC1092D90223
:104830001092D5021092D7021092D60200EE10E02C
:10484000F80180818B7F808388818160888342E04A
:1048500060E080E00E946223E1EEF0E080818E7FE4
:104860008083E2EEF0E080818160808380818860D7
:104870008083F80180818E7F808388818061888336
:10488000DF91CF911F910F910895E8EDF0E08081C5
:104890008F7E8083E7EDF0E080818160808384E01B
:1048A00082BF81E08093D8020C940224E8EDF0E00E
:1048B00080818E7F80831092E20008951092DA004A
:1048C0001092E10008951F920F920FB60F921124DB
:1048D0002F933F934F935F936F937F938F939F9308
:1048E000AF93BF93EF93FF938091E10082FF0BC0E2
:1048F0008091E20082FF07C08091E1008B7F80936E
:10490000E1000E94D3268091DA0080FF1FC08091D1
:10491000D80080FF1BC08091DA008E7F8093DA0080
:104920008091D90080FF0DC080E189BD82E189BD01
:1049300009B400FEFDCF81E08093D9020E94B0202F
:1049400005C019BC1092D9020E94BE208091E100DE
:1049500080FF19C08091E20080FF15C08091E200C5
:104960008E7F8093E2008091E20080618093E2007C
:104970008091D80080628093D80019BC85E0809334
:10498000D9020E94C2208091E10084FF30C0809152
:10499000E20084FF2CC080E189BD82E189BD09B4B9
:1049A00000FEFDCF8091D8008F7D8093D80080914C
:1049B000E1008F7E8093E1008091E2008F7E809302
:1049C000E2008091E20081608093E2008091D50254
:1049D000882311F084E007C08091E30087FD02C0C6
:1049E00081E001C083E08093D9020E94C3208091BE
:1049F000E10083FF29C08091E20083FF25C0809100
:104A0000E100877F8093E10082E08093D9021092D9
:104A1000D5028091E1008E7F8093E1008091E200D9
:104A20008E7F8093E2008091E20080618093E200BB
:104A300042E060E080E00E9462238091F0008860A4
:104A40008093F0000E94C120FF91EF91BF91AF9140
:104A50009F918F917F916F915F914F913F912F9196
:104A60000F900FBE0F901F9018951F920F920FB6C8
:104A70000F9211242F933F934F935F936F937F93E4
:104A80008F939F93AF93BF93CF93DF93EF93FF9356
:104A9000C091E900CF708091EC00D82FD17080FDDB
:104AA000D0E81092E9008091F000877F8093F000B9
:104AB00078940E9479251092E9008091F000886036
:104AC0008093F000CD2BCF70C093E900FF91EF9160
:104AD000DF91CF91BF91AF919F918F917F916F9116
:104AE0005F914F913F912F910F900FBE0F901F90AC
:104AF00018951F93CF93DF93CDB7DEB7AA970FB664
:104B0000F894DEBF0FBECDBFEAEDF2E088E08E0F75
:104B10009091F10091938E13FBCF0E94CF20809152
:104B2000E80083FF28C18091DA029091DB02492FCF
:104B300050E04A30510508F01EC1FA01E953FF4F19
:104B40000C945727803821F0823809F014C108C02E
:104B50008091D6029091D702992389F082600FC08C
:104B60008091DE028F70873008F005C18093E900E4
:104B70008091EB0085FB882780F91092E9009091E5
:104B8000E800977F9093E8008093F1001092F10085
:104B9000D0C0282F2D7F09F0EEC0882319F0823075
:104BA00061F0E9C08091DC02813009F0E4C093300B
:104BB00009F080E08093D7022EC08091DC02811141
:104BC0002AC08091DE028F702FEF280F263008F068
:104BD000D2C08093E9002091EB0020FF1CC09330ED
:104BE00021F48091EB00806214C09091EB00906101
:104BF0009093EB0021E030E0A90102C0440F551F63
:104C00008A95E2F74093EA001092EA008091EB0067
:104C100088608093EB001092E9008091E800877F24
:104C20008093E8000E949723A6C08111A4C0109130
:104C3000DC021F778091E3008078812B8093E30072
:104C40008091E800877F8093E8000E9497238091FD
:104C5000E80080FFFCCF8091E30080688093E30050
:104C6000111102C082E001C083E08093D90283C0A9
:104C70008058823008F07FC08091DC029091DD0284
:104C80008C3D53E0950779F583E08A838AE2898336
:104C90004FB7F894DE01139620E03EE051E2E32F97
:104CA000F0E050935700E49120FF03C0E295EF70CD
:104CB0003F5FEF708E2F90E0EA3010F0C79601C092
:104CC000C0968D939D932F5F243149F74FBF8091FC
:104CD000E800877F8093E8006AE270E0CE010196E9
:104CE0000E949E2215C06091DE027091DF02AE012B
:104CF0004F5F5F4F0E94CB21BC01892BE1F1909166
:104D0000E800977F9093E80089819A810E940123AF
:104D10008091E8008B778093E8002DC0803859F5AA
:104D20008091E800877F8093E8008091D50280938E
:104D3000F1008091E8008E7773CF81111CC09091B3
:104D4000DC029230C0F48091E800877F8093E80015
:104D50009093D5020E9497238091D502811106C0BD
:104D60008091E30087FD02C081E001C084E0809370
:104D7000D9020E94C5208091E80083FF0AC080917B
:104D8000E800877F8093E8008091EB008062809349
:104D9000EB00AA960FB6F894DEBF0FBECDBFDF9131
:104DA000CF911F9108950895CF938091D9028823C0
:104DB000A1F0C091E900CF709091EC00892F817033
:104DC00090FD80E8C82B1092E9008091E80083FDF7
:104DD0000E947925CF70C093E900CF910895DB013F
:104DE0008F939F930E946C27BF91AF91A29F800DDC
:104DF000911DA39F900DB29F900D1124089587FBE4
:104E0000082E062687FD819567FD61950E9477270C
:104E10000EF4919507FC81950895AA1BBB1B51E1E7
:104E200007C0AA1FBB1FA617B70710F0A61BB70B1A
:104E3000881F991F5A95A9F780959095BC01CD01BF
:104E4000089597FB072E16F4009407D077FD09D03C
:104E50000E940D2707FC05D03EF4909581959F4F49
:104E60000895709561957F4F0895A1E21A2EAA1BAF
:104E7000BB1BFD010DC0AA1FBB1FEE1FFF1FA2170A
:104E8000B307E407F50720F0A21BB30BE40BF50B07
:104E9000661F771F881F991F1A9469F76095709590
:104EA000809590959B01AC01BD01CF010895EE0F57
:104EB000FF1F0590F491E02D0994A29FB001B39FCC
:104EC000C001A39F700D811D1124911DB29F700D13
:104ED000811D1124911D08950E945D27A59F900DAD
:104EE000B49F900DA49F800D911D11240895991BCE
:104EF00079E004C0991F961708F0961B881F7A95D1
:104F0000C9F780950895FC014150504030F0019060
:104F10000616D1F73197CF0108958827992708956C
:104F2000F999FECF92BD81BDF89A992780B5089571
:104F3000A6E1B0E044E050E00C94CA27A8E1B0E05C
:104F400042E050E00C94CA27262FF999FECF92BD7B
:104F500081BDF89A019700B4021639F01FBA20BD3E
:104F60000FB6F894FA9AF99A0FBE08950396272F70
:104F70000E94A5270E94A427252F0E94A527242F41
:104F80000C94A5270196272F0E94A5270C94A427EF
:104F9000DC01CB01FC01F999FECF06C0F2BDE1BDF9
:104FA000F89A319600B40D9241505040B8F70895E8
:044FB000F894FFCFA3
:104FB40001020A0A0A01191A1B1C1D1E1F202122A4
:104FC4004E021C2069201F206520532001E200E9C5
:104FD40000EA00B500B600B700CD008301CC008A1A
:104FE40001920194012102230224022502260227B0
:104FF400022A02B300B4006F007000818283F0F1D2
:10500400C6676636943132353497963390919293CD
:1050140095000102020202060606090909090909A6
:105024000F0F0F0F0F0F1515151819191919191935
:10503400191919192324E200E900EA00B500B600A1
:10504400B700CD008301CC008A01920194012102B2
:10505400230224022502260227022A02B300B400F6
:085064006F00700081828300DF
:00000001FF
