:100000000C944C030C9493030C9493030C9493035F
:100010000C9493030C9493030C9493030C94930308
:100020000C9493030C9493030C9468240C943A2539
:100030000C94881E0C9493030C9493030C949303D8
:100040000C9493030C9493030C9493030C949303D8
:100050000C9493030C94F01E0C9493030C94930350
:100060000C9493030C9493030C9493030C949303B8
:100070000C9493030C9493030C9493030C949303A8
:100080000C9493030C9493030C9493030C94930398
:100090000C9493030C9493030C9493030C94930388
:1000A0000C9493030C9493030C949303960D990D65
:1000B000A10DA60DAB0DB00DB50DBA0DBF0DC40D44
:1000C000C90DCE0DD00DD30DD60DD90DDC0DDF0D24
:1000D000E10DE60D3C143C146E146E14BB141E1698
:1000E0001E161E16DB14781589158915EA15F315E9
:1000F0001E1617169C169C16AE16AE16A516AE1634
:10010000AE16AE169C169C16AA16AE16AE16AA16FB
:100110006D1F631F7B1FD41FDB1FDB1FD41FDB1F63
:10012000DB1F9C1FDB1FA61FB01FDB1FDB1FDB1F9E
:10013000DB1FD41FDB1FDB1FD41FDB1F891FDB1F4F
:10014000DB1FC01FC01FC01FC01FC01FC01FC01F9C
:10015000C01FC01FD61FDB1F6D1F601FDB1FDB1FF3
:10016000DB1FDB1FDB1FDB1FDB1FDB1FDB1FDB1FBF
:10017000D61FDB1FDB1FD41FDB1FBE1FBE1FBE1F12
:10018000BE1FBE1FBE1FBE1FBE1FBE1FD61FA72580
:10019000CE25C026CE25C0261A263D26C02693266B
:1001A000A226165C1E001F00200021002200230052
:1001B00024002500260027002D002E0031002B00F2
:1001C00014001A000800150017001C0018000C008D
:1001D000120013002F0030004C00E0000400160055
:1001E000070009000A000B000D000E000F0033008D
:1001F000340000002A00E10000001D001B00060082
:100200001900050011001000360037003800E50025
:1002100028000000E300E200000000002C000000C5
:100220000000000000000000E00002510151350014
:100230003A003B003C003D003E003F0040004100D2
:10024000420043004400450001000100010001009C
:100250000100010001000100010001000100010096
:100260005200010001000100AA00A800A90001003D
:100270000100010001004A004B0050004F00000047
:10028000010001000000AC00AE00AB000100010065
:10029000010001004D004E0051000100010000006E
:1002A00001000100000000002C0000000000000020
:1002B000000000000100010001000000000000003B
:1002C000000000000000000000000000000000002E
:1002D0000000000000000000C45CC25CC35C0000C1
:1002E000000000000000000000000000000000000E
:1002F00000000000000000000000000000000000FE
:10030000005C000000000000000000000000000091
:1003100000000000000000000000000000000000DD
:1003200000000000000000000000000000000000CD
:1003300000000000000000000000000000000000BD
:1003400000000100010000047F3F1F64321464328A
:1003500014783C1E1E140A052223252628292A2C3F
:100360002D2F3032333536383A3B3D3E40424345FF
:1003700047494A4C4E5051535557595A5C5E60623A
:10038000646668696B6D6F71737577797B7D7F814A
:10039000838587898A8C8E90929496989A9C9E9F4A
:1003A000A1A3A5A7A8AAACAEAFB1B3B4B6B8B9BB68
:1003B000BCBEBFC1C2C3C5C6C7C9CACBCCCDCED0D7
:1003C000D1D2D2D3D4D5D6D7D7D8D9D9DADADBDBC4
:1003D000DBDCDCDCDCDCDDDDDDDDDCDCDCDCDCDB5B
:1003E000DBDBDADAD9D9D8D7D7D6D5D4D3D2D2D1A4
:1003F000D0CECDCCCBCAC9C7C6C5C3C2C1BFBEBC97
:10040000BBB9B8B6B4B3B1AFAEACAAA8A7A5A3A107
:100410009F9E9C9A98969492908E8C8A89878583C9
:10042000817F7D7B79777573716F6D6B69686664A9
:1004300062605E5C5A5957555351504E4C4A494779
:10044000454342403E3D3B3A3836353332302F2D1E
:100450002C2A292826252322FFAA7F5540000101A6
:100460000101010101010102020202020202020273
:100470000303030303030303040404040404040543
:100480000505050506060606060707070707080807
:100490000808090909090A0A0A0B0B0B0C0C0C0DB8
:1004A0000D0D0E0E0E0F0F0F101011111112121351
:1004B000131414151516161717181819191A1A1BCC
:1004C0001B1C1D1D1E1E1F2020212222232424252B
:1004D0002626272829292A2B2C2D2D2E2F30313264
:1004E00032333435363738393A3B3C3D3E3F404174
:1004F00042434445464748494A4C4D4E4F5051535C
:1005000054555658595A5B5D5E5F61626465666812
:10051000696B6C6D6F7072737577787A7B7D7E8096
:1005200082838587888A8C8E8F91939596989A9CE2
:100530009EA0A2A3A5A7A9ABADAFB1B3B5B7BABCF6
:10054000BEC0C2C4C6C9CBCDCFD1D4D6D8DBDDDFC7
:10055000E2E4E7E9EBEEF0F3F5F8FAFDFF0403302F
:10056000000000100374006F006B0079006F00360C
:1005700000300000001E0354006F006B0079006F14
:100580000020004B006500790062006F006100727E
:1005900000640000000403090409023B000201009A
:1005A000A03209040000010301010009211101002A
:1005B000012240000705810308000A090401000127
:1005C00003000000092111010001227100070582CA
:1005D0000320000A1201100100000008EDFE606017
:1005E00001000102030105010980A10185031A81AF
:1005F000002A830016010026030095017510810072
:10060000C0050C0901A10185041A01002A9C0216EB
:100610000100269C02950175108100C005010906A4
:10062000A1018505050719E029E7150025019508B1
:10063000750181020507190029EF1500250195F0C4
:1006400075018102050819012905950575019102B9
:10065000950175039101C005010906A1010507195E
:10066000E029E715002501950875018102950175BE
:100670000881010507190029FF150026FF009506CE
:100680007508810005081901290595057501910274
:10069000950175039101C00011241FBECFEFDAE070
:1006A000DEBFCDBF04B603FE27C08091E202909169
:1006B000E302A091E402B091E5028730904BA7409D
:1006C000B04BD1F41092E2021092E3021092E402D5
:1006D0001092E50214BE84B7877F84BF0FB6F894EA
:1006E000A8958091600088618093600010926000FE
:1006F0000FBEE0E0F8E3099511E0A0E0B1E0EEEB19
:10070000FFE402C005900D92A83BB107D9F722E0A3
:10071000A8EBB1E001C01D92A23EB207E1F70E9432
:1007200091210C94DD270C9400000C9479060C9414
:100730007A0681E0089581E008950C949B031F934D
:10074000CF93DF9300D000D01F92CDB7DEB749839F
:100750005A832091DE0189819A81211112C066237A
:1007600049F00E94C11B182F682F89819A810E942D
:10077000661B03C00E94951B182F69817A81812F07
:1007800004C00E94C11B69817A810F900F900F9065
:100790000F900F90DF91CF911F910C944904FC01B1
:1007A000408151816281738184810C949F030E94F6
:1007B000F11C811102C00E949A1D0E94380F0C94F6
:1007C00095030C94970308950C94E30381E0089536
:1007D0000C94E603CF93C82F0E94E4038C2F0E9451
:1007E000E803CF91089508950E948C160E94F303A8
:1007F0002FEF84E39CE0215080409040E1F700C05F
:1008000000000C94161F0F931F93CF93DF93EC01FE
:100810000E94CF038C01BE010E949D03882379F1C1
:10082000BE01C8010E94EC0F882349F1BE01C80136
:100830000E942D10882319F1BE01C8010E94581191
:100840008823E9F0BE01C8010E947F0D8823B9F01A
:100850008A81882369F001158CE5180731F00E3D77
:100860001C4531F40E949A1D0AC00E94F40307C07F
:10087000CE01DF91CF911F910F910C94990380E0ED
:10088000DF91CF911F910F91089580E090E008953E
:1008900008959EE0799FF001112496E4899FE00D70
:1008A000F11D1124E60FF11DEE0FFF1FEE55FE4F57
:1008B000859194910895880F991FFC01EA5BFC4F84
:1008C000859194910895CF93DF930E9449040E94EB
:1008D000A205EC01811522E5920708F046C08115BA
:1008E00031E5930708F0FBC0883E910500F5803E96
:1008F000910508F023C1883A910570F4853A910575
:1009000008F0B1C08130910509F418C108F414C190
:10091000049708F013C110C18F3B910508F4ABC0D8
:10092000803C910508F408C1805C9109AFC0811535
:1009300040E4940790F4C11580E3D80708F0AAC0FA
:10094000C11521E0D20708F4F7C0C11530E2D30782
:1009500008F4F4C0CE019F7099C0811540E594075A
:1009600008F0A2C0DF70D06AE9C0C11589E5D807D8
:10097000B8F5C11528E5D20708F0CAC0C11534E59D
:10098000D307D0F42C2F26952695CE018370992776
:10099000C115D34508F0A8C040E2249F900111245E
:1009A000C1E0D0E002C0CC0FDD1F8A95E2F72C2B0E
:1009B0003D2BE901DC68C2C0C11585E5D80708F404
:1009C000A2C0C11526E5D20708F0B6C08C2F0E9440
:1009D00036068F71C82FD0E0DC2FCC27D062AEC096
:1009E000CD3B3CE5D30709F49EC0E0F4CB3B8CE55E
:1009F000D80709F492C008F093C0C1153AE5D307AF
:100A000008F09AC08C2F8F700E94360694E0D6951D
:100A1000C7959A95E1F7CF70D0E0DC2FCC27D0694D
:100A2000C82B8CC0C03C4CE5D40709F482C060F4EC
:100A3000CE3B2CE5D20709F479C0CF3BDC4509F069
:100A40007BC0C0E0D2ED7AC0CE01905681159042B5
:100A500008F072C08D2F8F710E943606DD27D0629C
:100A60008F71D82B6BC0C55AD0E0C55BDE4FC881F3
:100A7000D0E0D06463C0C85AD0E0CC0FDD1FC35EA5
:100A8000DE4F0990D881C02DD46458C00E945B0409
:100A9000EC0154C0CE019927D3FF03C0EC01D86C00
:100AA0004DC0EC01D06C4AC0837021E030E002C040
:100AB000220F331F8A95E2F73C68CE0174E09695C9
:100AC00087957A95E1F78370382BCF70C695C695D8
:100AD00080E2C89FE0011124C22BD32B2FC0D82F56
:100AE000CC27C16FD06A2AC040E2249F9001112414
:100AF000C1E0D0E002C0CC0FDD1F8A95E2F7C22B27
:100B0000D32BDA681BC0DC2FCC27C46FD06A16C089
:100B1000DC2FCC27C06FD06A11C0C0E0D4ED0EC06E
:100B2000C0E0D5ED0BC0C0E0D1ED08C0C0E0D0ED15
:100B300005C0C0E0D3ED02C0C0E0D0E0CE01DF913F
:100B4000CF9108958238910569F1B0F48133910510
:100B500009F46DC048F48932910509F463C08A3202
:100B6000910509F469C008958533910509F455C0CC
:100B700089339105B9F00895833E910569F138F400
:100B8000803E9105B1F0823E910509F10895863EBF
:100B90009105A9F1873E9105B9F1843E910509F0CF
:100BA00064C023C02091D30220FD4FC021FD4DC061
:100BB00008958091D30280FD44C08091D40280FFCB
:100BC00044C08091D30284FD42C083EE4DC0809129
:100BD000D30282FF38C0F5CF8091D30282FD33C0AB
:100BE0008091D40280FD31C0ECCF8091D40281FF8E
:100BF00032C08091D30284FD2AC087EE35C0809137
:100C0000D30283FF26C0F5CF8091D30283FD21C09C
:100C10008091D40281FD1FC0ECCF8091D30285FD6D
:100C20001CC01DC08091D30285FD19C016C08091E3
:100C3000D30286FD16C017C08091D30286FD13C073
:100C400010C089E311C082EE0FC080EE0DC080E0BD
:100C50000BC086EE09C084EE07C089E205C085E3BB
:100C600003C08AE201C081E390E008959091D3022D
:100C700092FF0DC0282F2871283019F4877F8460D7
:100C800006C0282F2471243011F48B7F886093FFD5
:100C90000DC0282F2871283119F4877E846106C081
:100CA000282F2471243111F48B7E88612091D40285
:100CB00020FF0DC0382F3871383019F4877F8160DC
:100CC00006C0382F3171313011F48E7F886021FFDA
:100CD0000DC0282F2871283119F4877E816106C044
:100CE000282F2171213111F48E7E886194FD877E39
:100CF000089508950895E82FF0E0EE0FFF1FEF55D7
:100D0000FD4F8081918108950895AEE4B1E041E006
:100D100050E02EE02A0F8D91E82FE295EF70F0E081
:100D200031A18F70BA0102C0660F771F8A95E2F772
:100D3000CB01962F9095932391A392A1892B82A307
:100D40002A13E9CFACE5B1E041E050E025E02A0FFD
:100D50008D91E82FE295EF70F0E031A18F70BA012C
:100D600002C0660F771F8A95E2F7CB01962F909508
:100D7000932391A392A1892B82A32A13E9CFE7E9B8
:100D8000F2E0A1EAB2E0119211921D921D9272E07E
:100D9000E13AF707C1F785E00E946C070C94D7038E
:100DA0002F923F924F925F926F927F928F929F927B
:100DB000AF92BF92CF92DF92EF92FF920F931F9369
:100DC000CF93DF936EE471E080E090E0312C01E09E
:100DD00010E0EB012991BE01E22FE295EF70F0E007
:100DE00031A12F70580101C0AA0C2A95EAF7232FD0
:100DF0002A2921A322A12A2C2094222122A3D0EA4D
:100E0000DA95F1F77801082E02C0EE0CFF1C0A9467
:100E1000E2F73701609470942CE5C22E21E0D22EC7
:100E2000A7E9B2E0512C4D012D913C911197E601BB
:100E300049906E01442D42954F7050E0EA0148A15F
:100E400050E0D42DDF7002C055954795DA95E2F752
:100E500040FD04C0A9014E295F2903C0A901462114
:100E6000572111965C934E931296E4014881598163
:100E70002417350711F055245394D2E0A13ABD0749
:100E800091F621A1D22DD223D1A322A1A22AA2A2DE
:100E9000352801968E30910509F09BCF232D45E032
:100EA00061EA72E087E992E00E946D070E94E10327
:100EB000832DDF91CF911F910F91FF90EF90DF90E5
:100EC000CF90BF90AF909F908F907F906F905F90EA
:100ED0004F903F902F9008950895FF920F931F9386
:100EE000CF93DF93F82E092F162FD72FC42F22234D
:100EF00049F081E08093BA010E94BA1E9093B90133
:100F00008093B8018091BA018823D9F08091B8010B
:100F10009091B9010E94C61E069798F0EF2DF02F10
:100F2000A12FBD2F80E090E04C2F50E08417950753
:100F300034F4219131912D933D930196F7CF109286
:100F4000BA01DF91CF911F910F91FF900895AF9259
:100F5000BF92CF92DF92FF920F931F93CF93DF93B5
:100F6000D62E372FE82FF0E0711106C0E35AFB4F61
:100F70006491762F862F75C0C72FD0E0E35AFB4FC0
:100F80002491F22E022F10E046E0649FC00111244C
:100F9000EFEFF0E0BF010E941227AB016BEA6403A0
:100FA000C001659F900D11248D0D911D8D0D911D1A
:100FB000982F990F890FDF01AC1BBD0B0A9FB00161
:100FC0000B9F700D1A9F700D1124972F839FD001D6
:100FD0001124AB2FBB276F01CA1ADB0A0C9DD0016D
:100FE0000D9DB00D1C9DB00D11245F01A81AB10814
:100FF000AC9E6001AD9ED00CBC9ED00C1124CD2DBA
:10100000DD27EC1BFD0B0E9FE0010F9FD00D1E9FF7
:10101000D00D1124ED2F4230510591F04CF44115C3
:101020005105E1F041305105B9F4E22F2B2F16C0E4
:101030004430510569F044F04630510579F00CC058
:10104000E22F272F9D2F0AC0272F9F2DEB2F06C0A1
:10105000E72F922F2D2F02C0E72F9B2F6E2F722F7D
:10106000892FDF91CF911F910F91FF90DF90CF904B
:10107000BF90AF9008950895CF93DF93762FE90145
:10108000682F842F0E94A707798368838A83DF9162
:10109000CF9108958091AB02282F269530E021153D
:1010A000310519F48170826005C02532310524F0C4
:1010B000817088648093AB02089588E090E00C947E
:1010C0009D27CF93DF9300D000D0CDB7DEB7AB0123
:1010D000BC0149835A836B837C830E944A084981FF
:1010E0005A816B817C8188E090E00F900F900F9087
:1010F0000F90DF91CF910C94BB27EBEAF2E083E0F5
:10110000808311828FEF8283838314826081718157
:10111000828193810C9461088091AB0280FF02C0B0
:101120008695089580E008958091AF02833018F489
:101130008F5F8093AF026091AB027091AC0280919F
:10114000AD029091AE020C9461088091AF028823A9
:1011500019F081508093AF026091AB027091AC02A4
:101160008091AD029091AE020C94610860910401EF
:1011700070E08091AB0280FF0AC08091BF0123E044
:10118000829FC001112480559D4F0C947C0F80914B
:10119000BE0190910301891780F7E82FF0E09F01CD
:1011A000220F331FE20FF31FE055FD4F1182108213
:1011B00012828F5FF0CF9091AB0290FF16C090919A
:1011C000BE0120910301921770F4E92FF0E0DF01D6
:1011D000AA0FBB1FEA0FFB1FE055FD4F8183608301
:1011E00042839F5FF0CF0C94B6080895CF93DF93AE
:1011F00000D01F92CDB7DEB79091AB0290FF0AC02E
:101200009E012F5F3F4F0E943C084B8169818A817C
:101210000E94DB080F900F900F90DF91CF910895FF
:10122000CF93DF93EC01EC81F0E0E85AFC4F44915E
:10123000EBEAF2E0628181810E94F6088C818F5F87
:101240008C83DF91CF910895CF93DF93EC01EBEA8C
:10125000F2E0438162818C810E94F6088C818F5F6D
:101260008C83DF91CF9108950F931F93CF93DF93DA
:1012700000D01F92CDB7DEB78C018091BB018111E8
:101280000AC09E012F5F3F4F4FEF6FEF0E943C0857
:101290008A818093BB01F8018481813051F028F06C
:1012A000823061F44091BB010AC08091BB0140E0F3
:1012B00007C06091BB0140E080E003C040E080E0F7
:1012C00060E00E94DB08F801248130E0C90101964A
:1012D00063E070E00E94262784830F900F900F90A8
:1012E000DF91CF911F910F910895AF92BF92CF924E
:1012F000DF92EF92FF920F931F93CF93DF9300D073
:101300001F92CDB7DEB7182FF62E042FE22E909144
:10131000AB0290FF6EC0E92FE695AE2FB0E0AF595B
:10132000BE4F8C918093C7019E7F923061F49E01E5
:101330002F5F3F4F812F0E943C084B8169818A813A
:101340000E94DB0844C0823019F40091AE023FC015
:10135000863019F41091AC023AC08930D9F3893142
:10136000B1F5E9518E2F8170D82EE695F0E0E85A5C
:10137000FB4FA590B490C12CBB2460910201C6160E
:1013800020F5EC2DF0E0EA9DC001EB9D900DFA9D5B
:10139000900D112470E00E941227812FD11002C0FD
:1013A000860F01C0861B9091BE01E90FF11D9F01C0
:1013B000220F331FE20FF31F9F0120553D4F402F97
:1013C0006F2D0E943C08C394D8CF0E94B60810939A
:1013D000AC02F092AD020093AE02EE2051F06091AB
:1013E000AB027091AC028091AD029091AE020E946E
:1013F00061080F900F900F90DF91CF911F910F9187
:10140000FF90EF90DF90CF90BF90AF900895EBEA00
:10141000F2E09181282F438162818CE0890F0C9446
:10142000750981E00C94070AEBEAF2E09181282F1C
:101430004381628184EF890F0C94750981E00C94DB
:10144000140AEBEAF2E062812CE0620F08F46FEF1D
:10145000282F438181810C94750981E00C94210A25
:10146000EBEAF2E062812CE0621B08F460E0282FD6
:10147000438181810C94750981E00C94300AEBEA78
:10148000F2E043812CE0420F08F44FEF282F6281F5
:1014900081810C94750981E00C943F0AEBEAF2E03B
:1014A00043812CE0421B08F440E0282F62818181B7
:1014B0000C94750981E00C944E0A20E00C94750997
:1014C000FF920F931F93CF93DF93EC01F12C0FEF5B
:1014D00010E060910201F616E8F42091BE0130E0C0
:1014E0002F0D311DC901880F991F280F391F205555
:1014F0003D4F70E0C8010E942627962F8C814091B5
:10150000AE026091AD02F99E800D11240E943C084C
:10151000F394DFCF0E94B6089A818C8190FF02C0BD
:101520008F5F01C081508C83DF91CF911F910F910C
:10153000FF900895AF92BF92CF92DF92EF92FF9209
:101540000F931F93CF93DF93FC01828180FF02C032
:101550000FEF01C001E010E04AE0A42E80910201EB
:10156000181708F043C0C12ED12C8091BE01E601AE
:10157000C80FD11DCE01880F991FC80FD91FC055A4
:10158000DD4F198218821A8234E0E32EF12CB12C3F
:101590008091BD018B0D8B302CF06A2D0E940427A9
:1015A000892F05C087FF03C090910201890F082E83
:1015B000000C990BC816D90691F48091AE028E9D4D
:1015C000A0018F9D500D1124559547955595479530
:1015D0009E016091AD028091AC020E943C08B00E69
:1015E000F1E0EF1AF108A1F61F5FB8CF0E94B6082C
:1015F0008091BD01013031F4811102C0809102015E
:10160000815007C090E001966091020170E00E9455
:1016100026278093BD01DF91CF911F910F91FF90FD
:10162000EF90DF90CF90BF90AF900895CF938091CF
:10163000BE0190910301891770F4E82FF0E09F013B
:10164000220F331FE20FF31FE055FD4F118210826E
:1016500012828F5FF0CFC0E060910201C617B8F52B
:10166000EC2FF0E070E0CF010E9426274091BE01F0
:10167000480F8091BC01082E000C990B50E0E81730
:10168000F907C4F020910101022E000C330B2E1734
:101690003F0784F09A01220F331F240F351F205576
:1016A0003D4F4091AE026091AD028091AC020E942C
:1016B0003C080BC0FA01EE0FFF1F4E0F5F1FFA012F
:1016C000E055FD4F118210821282CF5FC5CF0E947C
:1016D000B608209100018091BC01820F8093BC016B
:1016E00090910101920F9093010119165CF4082E5C
:1016F000000C990B4091020150E0415051098417B0
:1017000095071CF0219520930001CF9108950F9328
:101710001F93CF93DF938C01FC0184819581019607
:101720008170992795838483C0E0D5E5809102017B
:10173000C817F8F42091BE0130E02C0F311DC9010B
:10174000880F991F280F391F20553D4F4C2F469564
:10175000F80184819581840F911D81704091AE02C2
:101760006091AD028D9F802D11240E943C08CF5FB7
:10177000DDCFDF91CF911F910F910C94B6080F939D
:101780001F93CF93DF93EC0100E010E08091020102
:10179000282F30E00217130724F59091BE0198011D
:1017A000290F311DA901440F551F240F351F205546
:1017B0003D4F869590E04C81081719071CF444238F
:1017C00031F002C0411103C04091AE0201C040E0BF
:1017D0006091AD028091AC020E943C080F5F1F4FE8
:1017E000D5CF0E94B6082C8130E02F5F3F4F21708B
:1017F00033272C83DF91CF911F910F910895EBEA4E
:10180000F2E080818E7F808360817181828193810B
:101810000E9461081092C8012FEF80E792E02150EA
:1018200080409040E1F700C000000C94B608609141
:10183000AB02669570E04BE050E085E091E00E94DD
:101840008827892B19F481E08093C8010E94BA1E71
:101850009093C1018093C00108959091AB0290FFD5
:1018600035C09170811102C0926006C0853210F0BF
:10187000986402C0880F982B9093AB02662351F0B6
:101880006091AB027091AC028091AD029091AE027A
:101890000E9461086091AB02669570E04BE050E0F9
:1018A00085E091E00E948827892B19F01092C801E9
:1018B00002C00E94170C81E08093C3014091AE02E8
:1018C0006091AD028091AC020C945D0A0895682F7E
:1018D0009091AB02969581E0890F853208F081E006
:1018E0000C942D0C81E00C94670C682F9091AB0246
:1018F00096958FEF890F09F484E20C942D0C81E00A
:101900000C94750C61E00C942D0CEBEAF2E08081F4
:101910008160808386950C94820C8091AB0280FD5F
:101920000C94FF0B0C94850C60E00C942D0C8091B2
:10193000C60181112EC00E94F11C811104C00E94B9
:101940009A1D0E947D080E945D086093AB0270930F
:10195000AC028093AD029093AE026E7F61F40E9460
:101960007D080E945D086093AB027093AC02809387
:10197000AD029093AE020E944A081092C801809175
:10198000AB0280FF03C086950E94940C81E0809397
:10199000C60108950F931F93CF93DF938091C801E1
:1019A000882309F48CC08091C701E091AB02E695D1
:1019B000E81BE093C201823049F4F0E0EC5AFC4F9E
:1019C000E491CE2FD0E000E119E049C0863049F41F
:1019D000F0E0EF5AFC4FE491CE2FD0E004E219E0A2
:1019E0003EC0893051F4E695F0E0E25BFC4FE491B3
:1019F000CE2FD0E000E61AE032C08F3051F4E695E9
:101A0000F0E0E55BFC4FE491CE2FD0E00AE91AE06C
:101A100026C0853149F4F0E0E85BFC4FE491CE2F1D
:101A2000D0E006E11BE01BC0883181F0833239F43D
:101A3000E6E4F3E0C591D49104E319E010C08432E8
:101A400051F4C4EFD1E00FEB1BE009C0C8EED3E0C6
:101A500007E81BE004C0C0EDD7E00BE318E080917D
:101A6000C301882389F01092C3010E94BA1E9E010F
:101A700020953095820F931F9093C1018093C001F0
:101A80001092C5011092C4018091C0019091C101D2
:101A90000E94C61E8C179D0790F0E091C001F09146
:101AA000C101CE0FDF1FD093C101C093C00180ECF4
:101AB00091E0F801DF91CF911F910F910994DF918F
:101AC000CF911F910F910895882311F0FA0101C061
:101AD000FB010994CF93DF93C82FD62F0E948C0867
:101AE0008C1740F00E948C088D1720F4DF91CF9165
:101AF0000C94720C8C2FDF91CF910C94820C0F936D
:101B00001F93CF93FB01C281CC2309F463C08C01E6
:101B10000E94411C8272F801E25CFC45E431F1054F
:101B200008F059C0EA5AFF4F0C945C270E948D0CB4
:101B300006C04FE75CE062E77CE00E94640DC0E015
:101B40004AC042E75CE06FE77CE0F7CF4EE15AE045
:101B500061E17AE0F2CF41E15AE06EE17AE0EDCF67
:101B60004CE35AE06DE27AE0E8CF4DE25AE06CE3F4
:101B70007AE0E3CF4AE55AE06BE47AE0DECF4BE46B
:101B80005AE06AE57AE0D9CF45EA58E064E978E0BE
:101B9000D4CF44E958E065EA78E0CFCF81E017C0C0
:101BA00065E082E010C068E086E00DC06EE089E08C
:101BB0000AC064E18FE007C067E185E104C088E105
:101BC00006C062E289E10E946A0DB9CF83E20E94F9
:101BD000820CB5CFC1E08C2FCF911F910F9108954A
:101BE0000E94F11C811102C00E949A1D0E94221DB8
:101BF0008093CE02282F26952695269530E0273013
:101C0000310524F0877080638093CE028091CE02EC
:101C100080FF04C086958695869501C080E00C946F
:101C2000DB0E2091CE02822F869586958695482FD1
:101C300050E04630510554F48F5F982F990F990F5B
:101C4000990F822F8770892B8093CE028091CE02CC
:101C500081608093CE020E94261D8091CE028695DF
:101C6000869586950C94DB0E8091CE02982F9695E2
:101C700096959695A1F0915E990F990F990F87709F
:101C8000892B8093CE02887F91E009F490E08091C7
:101C9000CE0290FB80F98093CE020E94261D809197
:101CA000CE028695869586950C94DB0E8091CE02A9
:101CB00080FD13C081608093CE02813019F489E0E9
:101CC0008093CE028091CE020E94261D8091CE028A
:101CD0008695869586950C94DB0E08958091CE02AC
:101CE00080FF08C08E7F8093CE020E94261D80E078
:101CF0000C94DB0E08958091CE0280FD0C946E0E44
:101D00000C94560E9091CE02892F869586958695D5
:101D10008F5F8F719770873038F4880F880F880F26
:101D2000892B8093CE0202C09093CE028091CE0286
:101D3000887F91E009F490E08091CE0290FB80F9D9
:101D40008093CE020E94261D8091CE0286958695B4
:101D500086950C94DB0E873008F086E09091CE02D9
:101D60009770282F220F220F220F922B9093CE02D2
:101D7000987F21E009F420E09091CE0220FB90F9B9
:101D80009093CE020C94DB0E0E94AB0E8091CE029B
:101D90000C94261DE82FE295EF70F0E032A1282F79
:101DA0002F7081E090E001C0880F2A95EAF78095B6
:101DB000832382A30895CF92DF92EF92FF92873020
:101DC00030F4811105C090918000977F04C086E0B7
:101DD00090918000986090938000282F30E0AFEFC2
:101DE000BFEF0E94622726E030E040E050E00E9412
:101DF0003A272C3784E138074105510530F4C901F1
:101E000069E070E00E94122729C0DA01C9018A50F6
:101E1000974DAF4FBF4F6627782F892F9A2F25EF09
:101E200038E241E050E00E943A2769017A01CA0194
:101E3000B9010E94F4269B01AC01C701B6010E94C2
:101E4000F426BB27A92F982F872F009721E0A20700
:101E5000B10511F0BC0102C06FEF7FEF70938D00F0
:101E600060938C00FF90EF90DF90CF9008950895DD
:101E7000279A87E30E94CA0E8AE08093800089E156
:101E8000809381008FEF9FEF90938700809386006F
:101E90000C94F00D21B3342F3095232331B3432B11
:101EA0003FB7F894FC01680F791FE617F70789F030
:101EB000819198E041BB000000C087FF21BB880FE3
:101EC000000000C000C000C021BB00C09A9591F77F
:101ED000ECCF3FBF089520B3242B20BB9B01220FE2
:101EE000331F620F731F0E944A0F87EC90E0019727
:101EF000F1F700C00000089540E80C946B0F0F93B9
:101F00001F93CF93DF93C62FD42F022FFC01828122
:101F10008823C9F06093CB010E94BA1E9093CA0136
:101F20008093C90180E28C0F883008F050C0C770E0
:101F300081E001C0880FCA95EAF7DF91CF911F9128
:101F40000F910C94FC131091CB01161330C08091AB
:101F5000C9019091CA010E94C61E883C910538F5BE
:101F6000C0E2CD0F1D17B9F080E2810F883040F438
:101F7000177081E001C0880F1A95EAF70E940314D8
:101F8000C83048F481E09D2F977001C0880F9A9562
:101F9000EAF70E94FC13802F0E94E913C830B8F4BE
:101FA000D77081E001C0880FDA95EAF70AC080E2B5
:101FB0008C0F883060F4C77081E001C0880FCA952B
:101FC000EAF7DF91CF911F910F910C940314DF91E9
:101FD000CF911F910F9108959C01CB01233F4CE5B8
:101FE0003407F9F078F4283DFCE53F07B9F0293DC6
:101FF0004CE5340711F1273D3C4531F526E241EE31
:1020000061EE1EC0253FFCE53F0799F070F0263FCA
:102010003C45D1F427E245EE66EE12C027E245EEDC
:102020000EC026E241EE60EE0BC027E245EE64EE04
:1020300007C026E241EE62EE03C028E241E065EE11
:102040000E947F0F80E00895FC018281882319F0AF
:102050001092CB01089581E00895CF93DF93EC01B6
:10206000FB018281882309F41FC1C230FCE5DF0730
:1020700008F41BC1C6319CE5D90738F09E012A5FE0
:102080003C452930310508F010C10E94041D909391
:10209000D4028093D302C031ECE5DE0709F4C3C05B
:1020A00008F041C0C8308CE5D80709F49AC0F0F4B4
:1020B000C430ECE5DE0709F487C068F4C2308CE573
:1020C000D80709F477C0C330DC4509F0E3C080913C
:1020D000D302826076C0C630ECE5DE0709F46EC03C
:1020E00008F07BC08091D30288606BC0CC308CE557
:1020F000D80709F485C068F4CA30ECE5DE0709F4B6
:1021000074C008F079C00E948C168091D302806858
:1021100058C0CE308CE5D80709F476C008F07FC0EF
:102120008091D3028BC0CB3FECE5DE0709F44FC0B2
:1021300018F5C3318CE5D80709F47DC078F4C131B6
:10214000ECE5DE0709F473C0C231DC4509F0A2C03A
:102150000E948C168091D3028F7733C0C5318CE5F5
:10216000D80709F472C008F486C0CA3FDC4509F0FC
:1021700091C08091D4023EC0CF3FFCE5DF0709F457
:102180005FC058F4CD3F9CE5D90709F444C008F47A
:102190003FC08091D40282602DC0C130FDE5DF07D1
:1021A00009F475C008F45DC0C230DD4509F072C0A5
:1021B00080E06EC08091D302816003C08091D30221
:1021C00080618093D30266C08091D30211C0809158
:1021D000D40282608093D4025DC08091D302806279
:1021E000F0CF8091D3028064ECCF8091D3028860DD
:1021F0008460E7CF8160EECF8091D3028E7FE1CF04
:102200008091D3028D7FDDCF8091D302877FD9CF9C
:102210008091D40218C08091D4028D7FDBCF809151
:10222000D3028F7ECECF8091D3028F7DCACF809193
:10223000D3028F7BC6CF8091D302877F8B7FC1CFA4
:102240008091D4028D7F8E7FC5CF8091D30282FB97
:10225000222720F991E0922790FB82F990FB83F9E5
:10226000B0CF8091D402982F909591708E7F892B5A
:1022700090FB81F9AFCF0E948C168091D30287FB2F
:10228000222720F991E0922790FB87F99ACF81E0ED
:102290000E949C1D8091D3029091D4020E94151D32
:1022A0000E948C1680E001C081E0DF91CF910895FB
:1022B000CF93DF9386319C4541F5EB010E94411C91
:1022C000282F8A814091100150911101882379F0C3
:1022D0002A7A91E009F490E09093CC01911102C028
:1022E00069E201C065E3CA010E94061E0AC080912E
:1022F000CC01811102C069E201C065E3CA010E94FC
:10230000111E0E948D1C80E001C081E0DF91CF9101
:1023100008959093D2018093D1010895E091D10165
:10232000F091D201309721F00190F081E02D0994D5
:1023300080E00895E091D101F091D201309799F0B9
:1023400020911C01222359F02091D30227FF07C0BE
:10235000DC012C9111962C93119725E02C9302808F
:10236000F381E02D099408952091CF013091D0019F
:102370008217930771F09093D0018093CF01E09181
:10238000D101F091D201309721F00680F781E02D44
:10239000099408952091CD013091CE0182179307C1
:1023A00071F09093CE018093CD01E091D101F09135
:1023B000D201309721F00084F185E02D0994089531
:1023C00085B7806885BF85B7806885BF0895089503
:1023D00008950C94E81108950C94EB110E94E011FB
:1023E0000E94E7110C94E91181E008950E94B11E4A
:1023F0000E9485060E943A1F0E94F00D0E94970CD1
:102400000C94EC117F928F929F92AF92BF92CF92D9
:10241000DF92EF92FF920F931F93CF93DF93CDB78D
:10242000DEB72A970FB6F894DEBF0FBECDBF0E946D
:10243000D0060E94F411811111C08FEF89838A8325
:102440001B820E94BA1E8160782F9D838C834981F4
:102450005A816B818D810E94B4124FC034ED832E5E
:1024600031E0932E00E010E0702E802F0E947B065A
:102470006C01F401A190B1904F01A826B926A114D6
:10248000B10431F40F5F1F4F0530110569F7D5CF47
:102490008091710281FD0E94840690E0EE24E39415
:1024A000F12C97012A213B21232B09F19E837F8266
:1024B000CE20DF2091E0CD2809F490E098870E949B
:1024C000BA1E8160782F9A8789874E815F816885DF
:1024D0008A850E94B412000F111FF801EC52FE4FC2
:1024E00080819181E826F926F182E08206C09F5F13
:1024F000EE0CFF1C9E30A9F6C5CF0E94CA0C0E94AC
:10250000370F1091D3010E948E111817C9F00E9445
:102510008E118093D3012A960FB6F894DEBF0FBEBA
:10252000CDBFDF91CF911F910F91FF90EF90DF9082
:10253000CF90BF90AF909F908F907F900C94EA03C4
:102540002A960FB6F894DEBF0FBECDBFDF91CF91B4
:102550001F910F91FF90EF90DF90CF90BF90AF90C1
:102560009F908F907F900895CF93DF93CDB7DEB784
:102570002B970FB6F894DEBF0FBECDBF4F835887A1
:1025800069877A878B87DE01119686E0FD011192BB
:102590008A95E9F785E0FE01379601900D928A95BC
:1025A000E1F749815A816B817C818D819E810E94F6
:1025B00036192B960FB6F894DEBF0FBECDBFDF9154
:1025C000CF910895FC01808191810E94021C0895A1
:1025D000CF93DF931F92CDB7DEB7882309F496C05F
:1025E000682F8238C1F40E948E1181FD8FC069E38B
:1025F00080911001909111010E94061E0E948D1C75
:102600002FEF81EE94E0215080409040E1F700C030
:10261000000069E319C0833811F50E948E1180FD16
:1026200075C063E580911001909111010E94061E12
:102630000E948D1C2FEF81EE94E02150804090404D
:10264000E1F700C0000063E5809110019091110155
:102650000E94111E0F90DF91CF910C948D1C843835
:10266000C1F40E948E1182FD51C067E48091100177
:10267000909111010E94061E0E948D1C2FEF81EE89
:1026800094E0215080409040E1F700C0000067E4F2
:10269000DBCF8CEF860F813A70F4862F69830E941E
:1026A000E31F6981811132C0809110019091110165
:1026B0000E94061ECFCF80E2860F883048F46770F4
:1026C00081E001C0880F6A95EAF70E94441CC2CFDE
:1026D000EBE5E60FE33050F4F0E0EC54FE4F808180
:1026E00090E00F90DF91CF910C94B411685A67314C
:1026F00068F4E62FF0E0EE0FFF1FEA57FE4F8081EF
:1027000091810F90DF91CF910C94CA110F90DF91BE
:10271000CF910895882309F45BC0682F823879F43B
:102720000E948E1181FF54C069E380911001909145
:1027300011010E94061E0E948D1C69E310C083389F
:10274000B1F40E948E1180FF43C063E580911001B7
:10275000909111010E94061E0E948D1C63E58091DC
:102760001001909111010E94111E0C948D1C84384F
:1027700079F40E948E1182FF2BC067E480911001D2
:10278000909111010E94061E0E948D1C67E4E7CF04
:102790008CEF860F813A18F380E2860F883048F478
:1027A000677081E001C0880F6A95EAF70E944A1CB1
:1027B000DCCF8BE5860F833020F480E090E00C9432
:1027C000B411685A673120F480E090E00C94CA118B
:1027D0000895CF93C82F0E94E812C93349F42FEF10
:1027E00087EE93E0215080409040E1F700C0000068
:1027F0008C2FCF910C948A13882321F00E94441CC3
:102800000C948D1C0895882321F00E944A1C0C947E
:102810008D1C0895BF92CF92DF92EF92FF920F939B
:102820001F93CF93DF937C01062FC72FFC011581E7
:1028300012951F70D281D1110E94611C0E943A1C16
:10284000882379F0DD2369F080E2800F883048F03A
:1028500082E00E94D81C0E943A1C91E0B82EB92652
:1028600001C0B12CCC2EC2948FE0C822D12CF6012D
:10287000E659FF4F0C945C278C2F807FCF70882304
:1028800011F0C295C07FDD2399F0CC2309F48DC1EE
:1028900080E2800F883010F0011104C08C2F0E945C
:1028A000441C03C08C2F0E94541C0E948D1C7DC1AF
:1028B000802F0E948A13CC2309F4C0C180E2800FCC
:1028C000883010F0011104C08C2F0E944A1C03C0F4
:1028D0008C2F0E945A1C0E948D1CB0C18C2F807FAF
:1028E000CF70803211F0C295C07F002319F0013003
:1028F000C9F022C0DD2371F0112341F0113031F411
:102900000E94741C8C2B0E947A1C98C10E94741C1B
:102910008C2B1DC0112319F0113009F48FC10E94B6
:10292000831C25C0DD2321F0163008F087C10EC0BE
:10293000153008F083C11BC0DD2361F0112331F095
:10294000F701858180FF31C18F7085838C2F0E94B4
:10295000FC1374C1112359F0093309F037C1FFEF9B
:1029600027EE83E0F15020408040E1F72DC18C2F0D
:102970000E94031463C18C2F86958695837090E026
:10298000009719F0019761F059C1DD2321F0802FE4
:102990009C2F937002C080E090E00E94B41159C156
:1029A000DD2321F0802F9C2F937002C080E090E007
:1029B0000E94CA114EC18C2F837009F049C0D111F9
:1029C00044C1402F429546954770440F440F602FF5
:1029D0006F70862F90E0A0E0B0E0042E04C0880F56
:1029E000991FAA1FBB1F0A94D2F704FF10C00FE063
:1029F00010E020E030E004C0000F111F221F331F41
:102A00004A95D2F7009510952095309503C000E0C7
:102A100010E09801C695C695C370D0E0BC01CD0109
:102A2000602B712B822B932BC230D10559F0C33010
:102A3000D10559F0219719F00E947B1A06C10E9416
:102A4000691A03C10E948D1A00C10E94671AFDC055
:102A5000DD2319F08C2F817001C08695882309F43D
:102A6000F4C0402F429546954770440F440F602FA5
:102A70006F70862F90E0A0E0B0E0042E04C0880FB5
:102A8000991FAA1FBB1F0A94D2F704FF10C00FE0C2
:102A900010E020E030E004C0000F111F221F331FA0
:102AA0004A95D2F7009510952095309503C000E027
:102AB00010E09801C695C695C370D0E0BC01CD0169
:102AC000602B712B822B932BC230D10559F0C33070
:102AD000D10559F0219719F00E94411BB6C00E9400
:102AE0002F1BB3C00E94531BB0C00E94A21AADC0DE
:102AF000CF70DD2339F08C2F0E94C81A802F0E94DE
:102B0000FC13A3C0802F0E9403148C2F0E94E91A8B
:102B10009CC0023F01F128F4003F41F0013FA1F0C9
:102B200040C0033FF9F0043F39F13BC0DD2341F0E1
:102B3000153008F083C08C2F8F710E940E1B7EC051
:102B4000163008F07BC0F7CFDD2339F08C2F8F7162
:102B50000E94C81A73C0DD23C9F38C2F8F710E94A5
:102B6000E91A6CC0DD2329F08C2F8F710E94B31AF3
:102B700065C00E94AE1A62C0DD2349F0CF718C2F70
:102B80000E94C81A63E08C2F0E94C31C57C081E0CA
:102B90000E94D81C123008F451C082E00E94D81C58
:102BA0004DC0DD2331F0112389F2802F0E94E812FD
:102BB00045C0112391F2093349F49FEFE7EEF3E0AA
:102BC0009150E040F040E1F700C00000802F0E94EB
:102BD0008A1334C04C2F4F70602FC7010E944504E8
:102BE0000E94DA1936C0D11134C0CF70D0E0C230A3
:102BF000D10599F03CF4209769F02197F9F40E94EF
:102C0000340E27C0C430D10571F054F02597B1F4CB
:102C100080E00AC00E94110E1CC00E947B0E19C0E9
:102C20000E94820E16C086E00E94C40E12C04C2F75
:102C30004F70602FC7010E9448040BC028E0C21AE1
:102C4000D10884E0C816D10420F40E948E110E949D
:102C5000EA03BB20D1F00E94361C80FD16C0F701AC
:102C600012820E94301C0E94C81AC7010E944F168F
:102C70000E94301CDF91CF911F910F91FF90EF9038
:102C8000DF90CF90BF900C94E91ADF91CF911F9104
:102C90000F91FF90EF90DF90CF90BF9008950F932A
:102CA0001F93CF93DF93EC01888199812B813C8125
:102CB000232BB9F09F3F11F48F3F99F0CE010E9472
:102CC0000304882371F0688179818A810E940D1C38
:102CD0008C010E94651B0E94661AB801CE010E94F9
:102CE0000A14DF91CF911F910F9108950E94611CEA
:102CF0000E94711C0E948D1C80E090E00E94B41123
:102D000080E090E00C94CA11809110019091110123
:102D10000E941C1E0C9476160E94511C0C94841662
:102D2000E92FE295EF70F0E03297EE30F105B0F464
:102D3000E658FF4F0C945C27803F91F018F4883ED2
:102D400068F40EC0843F51F40BC0883E48F0813FC8
:102D500029F406C093FB882780F9089580E0089540
:102D600081E008950E94021C0E9490160895CF935E
:102D7000DF9300D000D01F92CDB7DEB70F900F9039
:102D80000F900F900F90DF91CF910895CF93DF9325
:102D900000D000D000D0CDB7DEB726960FB6F8949D
:102DA000DEBF0FBECDBFDF91CF9108951F93CF93AC
:102DB000DF93C091DF0116E08091E001C81799F020
:102DC000D0E01C9FF0011D9FF00D1124EF51FE4F2C
:102DD0004081518162817381848195810E94C616F0
:102DE0002196C770E9CFDF91CF911F91089540914F
:102DF000110250911202609113027091140280919D
:102E00001502909116020C94C616809116028295B6
:102E10008F7009F054C080911302882309F44FC0C9
:102E20008091DF01A091E001609111027091120286
:102E30004091140250911502B6E08A1709F43FC080
:102E400090E041155105C1F17F3F11F46F3FA1F1B1
:102E5000B89FF001B99FF00D1124EF51FE4F218171
:102E600072132AC02081621327C02281211124C03D
:102E7000238134812417350710F421503109241B94
:102E8000350B283C3105C0F4209116022F702061CB
:102E90002093160226E0289FF001299FF00D1124AF
:102EA000EA51FE4F80818F708061808381E192E0E2
:102EB0000E944F160C94D61601968770BECF0895C7
:102EC000CF92DF92EF92FF920F931F93CF93DF93F6
:102ED000CDB7DEB762970FB6F894DEBF0FBECDBF99
:102EE0008C0185E0F801DE011D9601900D928A9516
:102EF000E1F7D8014C9111965C91119712966C9163
:102F000012971396CD90DC90149730911102709126
:102F100012028091140290911502009709F46BC17E
:102F20007F3F19F43F3F09F466C1E0901302EE20A1
:102F300009F4C0C020911602C816D90628F0F6017F
:102F4000E81BF90BCF0104C0809590958C0D9D1D59
:102F5000FF24F394883C910578F0F12C207F09F050
:102F6000C6C07C2DD98AC88A89890E94B71681E19A
:102F700092E00E944F16B1C0822F807F09F046C0B8
:102F8000751314C0341312C0611110C02F7020616A
:102F9000209316020E94F71681E192E00E944F16DC
:102FA00080911602D80115968C932EC0CD2819F168
:102FB0005F3F11F44F3FF9F0F62E61111CC0809174
:102FC000DF012091E00136E0821709F45AC090E059
:102FD000389FF001399FF00D1124EF51FE4F7181A0
:102FE000571306C07081471303C07281711103C06B
:102FF00001968770E9CFF62E662309F427C18091E8
:103000001602816080931602F12C20C1751308C04E
:10301000341306C0611104C080911602D801C3C0E8
:103020004D875E878D859E856A8B0E94B2166A8960
:103030008823E1F16623D1F120911602822F829537
:103040008F7090E0029774F08091110290911202BB
:1030500098878F831986DB86CA862C87CE010796D0
:103060000E944F1686E0F801A1E1B2E001900D92B6
:103070008A95E1F70E9405170E94F716FF24F39442
:10308000E5C04D875E878D859E850E94021C292F95
:1030900022952F7030E0223031050CF0CBC09F70AC
:1030A00009F0C5C0805E883008F4D0C0C8010E9415
:1030B0004F16E4CFC816D90608F453C0F601E81B32
:1030C000F90BCF01883C910508F450C0F12C7C2D00
:1030D000D98AC88A89890E94B716E1E1F2E086E0C0
:1030E000DF011D928A95E9F70E94F716AFC07513AC
:1030F00014C0341312C0611110C080911602F8017F
:103100008583C8010E944F1686E0E1E1F2E0DF010D
:103110001D928A95E9F7FE2C99C04D875E878D85B3
:103120009E856A8B0E94B2166A89882309F4BECFF5
:10313000662309F4BBCF20911602822F82958F70EF
:1031400090E002970CF48ECF8091110290911202C0
:103150009A8389831B82DD82CC822E83CE010196E5
:103160007FCF809590958C0D9D1DACCFF62E66235C
:1031700009F49CCF75132EC034132CC02091160275
:1031800020FD1FC0822F82958F70D9F0D80115962F
:103190002C9315978F3049F08F5F982F9295907FE1
:1031A000822F8F70892B15968C93C8010E944F1621
:1031B00086E0F801A1E1B2E001900D928A95E1F775
:1031C00093CF86E0F801A1E1B2E001900D928A95DB
:1031D000E1F73CC04D875E878D859E850E94B216C3
:1031E000811140CF80911602816080931602C80140
:1031F0000E944F162BC0662309F458CF4D875E8777
:103200008D859E850E94B216F82E882309F44ECF34
:1032100086E0F801A1E1B2E001900D928A95E1F714
:1032200081E192E00E94E2120E9405175DCF8111B8
:1032300039CF0CC0243031050CF038CF9F7009F421
:1032400031CFF8019581907F09F02CCF8F2D6296B8
:103250000FB6F894DEBF0FBECDBFDF91CF911F91A7
:103260000F91FF90EF90DF90CF9008951F93CF9331
:10327000DF93CDB7DEB72C970FB6F894DEBF0FBE45
:10328000CDBF4F83588769877A878B879C87CE010C
:1032900007960E946017882369F08F8198852A8598
:1032A0003B85232BF1F19F3F09F063C08F3F09F06D
:1032B00060C037C086E0FE013796DE0111960190AE
:1032C0000D928A95E1F76F817885EA85FB853097C5
:1032D00041F17F3F11F46F3F21F12091E00130E097
:1032E000C9010196877099274091DF0150E084174A
:1032F000950709F447C069837A83FD83EC8396E0E0
:10330000929FD001939FB00D1124AF51BE4FFE018B
:10331000319601900D929A95E1F78093E0010E9419
:10332000D61616E08091DF019091E0018917C1F176
:10333000189FC00111248F519E4F0E94601788234F
:1033400079F1E091DF011E9FF0011124EF51FE4F52
:103350004081518162817381848195810E94C6166A
:103360008091DF0190E00196877099278093DF01BB
:10337000D9CF4F81588569857A858B859C850E9438
:10338000C616CFCF0E948C161092E0011092DF017A
:10339000E1E1F2E086E0DF011D928A95E9F7C1CF15
:1033A0002C960FB6F894DEBF0FBECDBFDF91CF9144
:1033B0001F910895EF92FF920F931F93CF93DF9386
:1033C0008C01892B09F46CC0F12CEE24E394E80104
:1033D0002196F8018491843740F4843008F051C07C
:1033E000813081F0823019F15BC0853709F444C027
:1033F000A8F19CE7980F903708F052C08F770E9491
:103400008A1341C00E5F1F4FFE01C49180E28C0FF2
:10341000883048F4C7708E2D01C0880FCA95EAF72E
:103420000E94641C14C08C2F0E94E8122DC00E5FF5
:103430001F4FFE01C49180E28C0F883058F4C77092
:103440008E2D01C0880FCA95EAF70E946A1C0E945F
:103450008D1C1AC08C2F0E948A1316C00E5F1F4F3E
:10346000FE01C491CC2381F08FE99FE00197F1F731
:1034700000C00000C150F6CF0E5F1F4FFE01F49058
:1034800003C00E94E8128E018F2D882309F49FCF7C
:10349000EFE9FFE03197F1F700C000008150F5CF70
:1034A000DF91CF911F910F91FF90EF9008950895B4
:1034B0000C94571A0E94581A60934802709349025C
:1034C00080934A0290934B020C94761608950C94C4
:1034D0005A1A0F931F9300914802109149022091AC
:1034E0004A0230914B02602B712B822B932B1F9140
:1034F0000F910C945A1A0F931F9300914802109148
:10350000490220914A0230914B02602371238223A9
:1035100093231F910F910C945A1A0F931F930091AC
:1035200048021091490220914A0230914B026027D3
:103530007127822793271F910F910C945A1A08958F
:103540000C949F1A0E94A01A609344027093450243
:1035500080934602909347020C94761660E070E0E8
:10356000CB010C94A21A0F931F9341E050E060E04E
:1035700070E08A019B0104C0000F111F221F331F3E
:103580008A95D2F7C901B8011F910F910C94A21A24
:103590000F931F9341E050E060E070E004C0440FDF
:1035A000551F661F771F8A95D2F78091440290912C
:1035B0004502A0914602B09147028A019B01082B67
:1035C000192B2A2B3B2BC901B8011F910F910C9489
:1035D000A21A0F931F9341E050E060E070E004C036
:1035E000440F551F661F771F8A95D2F74095509557
:1035F000609570958091440290914502A091460299
:10360000B09147028A019B01082319232A233B23F7
:10361000C901B8011F910F910C94A21A0F931F9327
:1036200041E050E060E070E004C0440F551F661FA9
:10363000771F8A95D2F78091440290914502A0911C
:103640004602B09147028A019B01082719272A27C1
:103650003B27C901B8011F910F910C94A21A0F9337
:103660001F9300914402109145022091460230912F
:103670004702602B712B822B932B1F910F910C947F
:10368000A21A0F931F9300914402109145022091BA
:1036900046023091470260237123822393231F91B6
:1036A0000F910C94A21A0F931F9300914402109152
:1036B00045022091460230914702602771278227F8
:1036C00093271F910F910C94A21A08952EE0929FB8
:1036D000800D1124A82FA695A695A695877051E078
:1036E00001C0550F8A95EAF785E0A89FD001112403
:1036F00020E030E070E0F901EA0FFB1FE95EFD4FCA
:103700004081CB01022E02C0969587950A94E2F77C
:1037100081709927819584278523842780832F5F53
:103720003F4F2530310539F708952EE0929F800DE7
:103730001124682F669566956695982F977085E099
:10374000689FB001112440E050E080E0FA01E60FEC
:10375000F71FE95EFD4F208130E0092E02C036954B
:1037600027950A94E2F721703327042E01C0220F17
:103770000A94EAF7822B4F5F5F4F4530510531F7CE
:103780000895BF92CF92DF92EF92FF920F931F9313
:10379000CF93DF938C01C0904802D0904902E09013
:1037A0004A02F0904B028091440290914502A09110
:1037B0004602B0914702C82AD92AEA2AFB2ACFE159
:1037C000D0E0D701C6010C2E04C0B695A7959795F9
:1037D00087950A94D2F780FF07C0BC2EB8018C2FC2
:1037E0000E946304019719F4219758F7B12C8B2D8F
:1037F000DF91CF911F910F91FF90EF90DF90CF90CD
:10380000BF900895CF93DF93EC010E94C11BBE01CE
:103810000E946304DF91CF9108951F93CF93DF93AC
:10382000EB019091DE01992321F0CB010E94021C53
:1038300013C0882349F0CB010E94C11B182F682FA9
:10384000CE010E94661B04C0CB010E94951B182F5D
:10385000BE01812F0E946304DF91CF911F910895D3
:1038600080914C02859585958595089580914C02AF
:103870008770089590914C02977081E009F480E080
:10388000089580917002089590917002892B809321
:103890007002089580959091700289238093700240
:1038A000089510927002089590916F02892B809371
:1038B0006F020895809590916F02892380936F0223
:1038C000089510926F02089590916E02892B809353
:1038D0006E020895809590916E02892380936E0206
:1038E000089510926E02089580914D0208950895F2
:1038F0000C94771C90914D02981721F080934D0203
:103900000C94781C089580914D02882329F0109220
:103910004D0280E00C94781C0895E0911001F09124
:103920001101809170028083E0911001F0911101EA
:10393000908180916F02892B8083E0911001F0913A
:103940001101908180916E02892B808380914D02BC
:10395000882381F0E0911001F09111019081892B71
:10396000808380911001909111010E94A11D81110D
:103970000E94831C80911001909111010C949A1166
:1039800008950C94C01C98E0899F90011124262B67
:1039900020934C020E94C81A80914C02859585950F
:1039A00085950C94C11C10924C0280E00C94C11CB3
:1039B00020914C028095822380934C02982F97701F
:1039C00079F430E0482F082E000C550B24173507EA
:1039D00039F08595859585950E94E91A0C94D31C3C
:1039E000089580E090E00E94A32721E08C3E9E4F46
:1039F00009F020E0822F089582E090E00C94952752
:103A000083E090E00C949527CF9384E090E00E94AF
:103A10009527C82F81E290E00E9495272C2F30E057
:103A2000A901582BCA01CF910895CF93C92F682FB0
:103A300084E090E00E94A9276C2F81E290E0CF9172
:103A40000C94A92786E090E00C949527682F86E0D7
:103A500090E00C94A927AB01BC018FE090E00C949E
:103A6000BB27AB01BC0183E190E00C94BB2760E075
:103A700070E0CB010C94311D60E070E0CB010E943E
:103A80002B1D0C94371D6CEE7EEF80E090E00E94C1
:103A9000C72760E082E090E00E94A92760E083E011
:103AA00090E00E94A92710924802109249021092B9
:103AB0004A0210924B0260E084E090E00E94A92745
:103AC00060E081E290E00E94A92760E085E090E05C
:103AD0000E94A92760E086E090E00E94A9276FEF8E
:103AE00087E090E00E94A92740E050E0BA0188E01A
:103AF00090E00E94BB2760E08DE090E00E94A92743
:103B000040E050E0BA0188E190E00E94BB2760E00D
:103B100087E190E00E94A92740E050E0BA018CE1E3
:103B200090E00E94BB2760E080E290E00E94A9271D
:103B30000C943C1D0C94431D682F8EE090E00C9477
:103B4000A927FC01329680911C01882331F08091D5
:103B5000D30287FF02C09EE101C096E080E0915051
:103B600028F021912223D9F38F5FF9CF08959C018A
:103B7000FC0132969FEF80E04191461789F09F3F0C
:103B800019F4411101C0982F8F5F8630A9F79F3F2C
:103B900039F0F901E90FF11D97FDFA956283089557
:103BA0000895FC01329608962081261301C01082E8
:103BB0003196E817F907C1F70895262F269526951F
:103BC00026952E3168F4FC01E20FF11D677021E0AB
:103BD00030E001C0220F6A95EAF78281282B228308
:103BE0000895262F2695269526952E3170F4FC01F2
:103BF000E20FF11D677021E030E001C0220F6A95ED
:103C0000EAF72095828128232283089520911C01C0
:103C1000222329F02091D30227FD0C94DD1D0C9462
:103C2000B71D20911C01222329F02091D30227FDEA
:103C30000C94F11D0C94D11D20911C01FC013296B5
:103C4000222331F08091D30287FF02C08EE101C0B0
:103C500086E0DF011D928A95E9F7089508950C9496
:103C60002E1E0E942F1E8091D902843061F1109285
:103C7000720220E488E190E00FB6F894A895809352
:103C800060000FBE2093600080E00E94DB0E80E0A9
:103C90000E94EA030E942F1E83B7817F846083BF46
:103CA00083B7816083BF7894889583B78E7F83BF05
:103CB0000FB6F894A89580916000886180936000A9
:103CC000109260000FBE089508950895CF930E944A
:103CD000641E0E94D0060E94651EC0E08C2F0E94C8
:103CE0007B06892B29F4CF5FC530C1F780E001C086
:103CF00081E0CF91089508950C947B1E0E948C164C
:103D00000E94F00D0E948E110E94EA030C947C1E0A
:103D10001F920F920FB60F9211248F939F93AF9320
:103D2000BF9380917202811113C08091CF02909154
:103D3000D002A091D102B091D2024196A11DB11D35
:103D40008093CF029093D002A093D102B093D2027D
:103D5000BF91AF919F918F910F900FBE0F901F90C9
:103D6000189582E084BD93E095BD9AEF97BD80934E
:103D70006E0008952FB7F8948091CF029091D002F1
:103D8000A091D102B091D2022FBF0895CF92DF92BD
:103D9000EF92FF920F931F932FB7F8944091CF02A9
:103DA0005091D0026091D1027091D2022FBF6A016E
:103DB0007B01EE24FF248C0120E030E0C016D10608
:103DC000E206F30610F4415051099A01281B390B01
:103DD000C9011F910F91FF90EF90DF90CF90089550
:103DE00078941F920F920FB60F9211248F939F9386
:103DF000AF93BF938091CF029091D002A091D10256
:103E0000B091D2020196A11DB11D8093CF02909373
:103E1000D002A093D102B093D202BF91AF919F91F3
:103E20008F910F900FBE0F901F90189581E0809397
:103E3000E00080E28093D8001092C9008FE19EE4F8
:103E40000197F1F700C0000087E090EBDC01809360
:103E5000E2029093E302A093E402B093E5029CE0B7
:103E600088E10FB6F894A895809360000FBE9093F8
:103E70006000FFCF0E94F11C811102C00E949A1DB8
:103E80000E94FC1C809371020E94041D9093D40236
:103E90008093D3020E94001D682F70E080E090E0C4
:103EA0000C94671A0F931F93482F50E0FA0135972F
:103EB000EF33F10508F07FC0E857FF4F0C945C2703
:103EC0000E949A1D71C080917102817F8E7F8093C4
:103ED000710281E0809373026FC00E948C160FEF15
:103EE00013ED20E3015010402040E1F700C0000036
:103EF0000E94161F59C080917102982F9095917061
:103F000090FB80F98093710291114EC0897F877F69
:103F100010C08091710281FB222720F991E0922745
:103F200090FB81F9809371029923F1F180917102E4
:103F300081608093710238C08091710282FB2227D8
:103F400020F991E0922790FB82F9ECCF80917102E9
:103F500083FB222720F991E0922790FB83F9E2CF9F
:103F60000E948C168091D30287FB222720F991E0D2
:103F7000922790FB87F98093D30216C0895301C022
:103F80008D5141E050E060E070E08A019B0104C087
:103F9000000F111F221F331F8A95D2F7C901B801E4
:103FA0000E94671A0E948C1681E006C061E070E0F2
:103FB00080E090E0F5CF80E01F910F91089580E0C0
:103FC000089580E00895CF93C82F809173028823CD
:103FD00019F0813031F02BC00E94411C823249F52A
:103FE00004C00E94411C823261F48C2F0E94DF1FAA
:103FF000811104C08C2F0E94521F17C081E090E0F5
:1040000014C08C2F0E94E11F81110EC0C43149F0F1
:1040100018F4CB3049F00FC0C93219F0C83321F081
:104020000AC01092730207C081E0817006C010922E
:10403000730280E002C080E0F8CFCF9108958091B4
:10404000940208950895CF93DF9300D01F92CDB7C7
:10405000DEB79091D902943019F589837B836A8306
:1040600082E08093E9008FEF9091E800815095FD08
:1040700006C095ED9A95F1F700008111F5CF80917A
:10408000E80085FF0DC040E050E063E070E0CE0145
:1040900001960E9458228091E8008E778093E80074
:1040A0000F900F900F90DF91CF910895CF93DF93F2
:1040B000EC010E943B22823011F0843031F4BE01C9
:1040C00084E0DF91CF910C942320DF91CF9108956C
:1040D000BC016058710983E00C942320CF93DF93D7
:1040E000EC010E943B22823011F08430D9F580919E
:1040F0001C01882339F08091D30287FF03C060E25E
:1041000082E002C068E081E08093E9008FEF909147
:10411000E800815095FD06C095ED9A95F1F70000F5
:104120008111F5CF8091E80085FF1CC080911C01B2
:10413000811105C040E050E068E070E003C070E02D
:1041400040E050E0CE010E9458228091E8008E7736
:104150008093E80080E2FE01A4E7B2E001900D92B6
:104160008A95E1F7DF91CF9108958091D80281116E
:1041700009C00E94ED230E944A248091E2008460DD
:104180008093E20008951092D8020895089508954A
:104190000C947E1E42E061EC81E00E94672342E2C3
:1041A00061EC82E00C9467238091DB02833009F498
:1041B00060C030F4813071F0823009F499C0089504
:1041C0008A3009F485C08B3009F46BC0893009F05E
:1041D000A7C020C08091DA02813A09F0A1C0809185
:1041E000E800877F8093E8008091DE029091DF02F3
:1041F000892B21F460E284E792E003C060E080E074
:1042000090E070E00E94A3228091E8008B77809379
:10421000E80008958091DA02813209F081C080912E
:10422000DE029091DF02029708F07AC08091E800E8
:10423000877F8093E8008091E80082FD05C080912F
:10424000D9028111F8CF6CC02091F3008091F20067
:1042500090E0922B029729F48091F1008B7F8130BE
:1042600021F48091F100809394028091E8008B7793
:1042700053C08091DA02813A09F052C08091DE0287
:104280009091DF02892B09F04BC08091E800877F75
:104290008093E8008091E80080FFFCCF80911C01B2
:1042A00036C08091DA028132D9F58091DE02909198
:1042B000DF02892BA9F58091E800877F8093E800D1
:1042C0000E949C238091DC0280931C010C948C162C
:1042D0008091DA02813221F58091E800877F809316
:1042E000E8000E949C238091DD028093950208954E
:1042F0008091DA02813AA1F48091E800877F80936F
:10430000E8008091E80080FFFCCF809195028093C7
:10431000F1008091E8008E778093E8000C949C2354
:10432000089584B7877F84BF0FB6F894A8958091CD
:104330006000886180936000109260000FBE90E082
:1043400080E80FB6F89480936100909361000FBEEF
:104350000E94EE110E94ED230E944A248091E20007
:1043600084608093E20078940E94D9260E94F6111E
:1043700082E191E00E9489118091D902853069F42F
:104380000E94311E8091D7028823B1F30E94661EDD
:10439000882391F30E944222EFCF0E940212ECCFB9
:1043A0000C94D221292F332723303105C9F064F42E
:1043B0002130310581F02230310509F04CC08BE30A
:1043C00090E029E935E04BC02132310521F122325C
:1043D000310589F140C082E190E024ED35E03FC035
:1043E00099278130910571F02CF4892BA1F5E5E92D
:1043F000F5E00DC08230910541F0039761F5EDE5E0
:10440000F5E005C0E5E7F5E002C0E3E6F5E08491FC
:1044100090E09F0124C06115710541F06130710584
:10442000D1F489E090E024EC35E019C089E090E017
:104430002BEA35E014C06115710541F0613071055A
:1044400051F481E790E026EE35E009C080E490E089
:1044500027E536E004C080E090E020E030E0FA019B
:104460003183208308958091D902843011F081E056
:10447000089582E0089580919602811102C00C9403
:104480003322089580E189BD82E189BD09B400FE2F
:10449000FDCF8091D8008F7D8093D8008091E0007F
:1044A00082608093E0008091E00081FDFCCF089560
:1044B000CF92DF92EF92FF920F931F93CF93DF93F0
:1044C000EC018B016A010E94BB23811133C0C1142E
:1044D000D10439F0F60180819181081B190BC80FB6
:1044E000D91FE12CF12C0115110519F18091E8007B
:1044F00085FD16C08091E8008E778093E800C11496
:10450000D10449F0F60180819181E80EF91EF18213
:10451000E08285E00FC00E94BB23882321F30AC0FC
:1045200089918093F10001501109FFEFEF1AFF0A02
:10453000DACF80E0DF91CF911F910F91FF90EF9044
:10454000DF90CF9008952091E0023091E10226178C
:10455000370748F06115710539F42091E8002E778E
:104560002093E80001C0B90140E061157105A9F18F
:104570002091D902222309F443C0253009F442C016
:104580002091E80023FD40C02091E80022FD32C0C8
:104590002091E80020FFE9CF4091F3002091F20044
:1045A00030E0342BFC01CF016115710559F0283042
:1045B000310540F481918093F100615071092F5FC2
:1045C0003F4FF1CF41E02830310509F040E0209124
:1045D000E8002E772093E800C8CF4111C9CF0AC068
:1045E0008091D902882361F0853061F08091E800E4
:1045F00083FD0AC08091E80082FFF2CF80E0089539
:1046000082E0089583E0089581E008952091E0021A
:104610003091E1022617370748F06115710539F42A
:104620002091E8002E772093E80001C0B901FC0139
:1046300020E06115710591F18091D902882309F478
:1046400040C0853009F43FC08091E80083FD3DC043
:104650008091E80082FD2FC08091E80080FFE9CFC3
:104660002091F3008091F20090E0922B611571058A
:1046700059F08830910540F424912093F10031964F
:10468000615071090196F2CF21E0089709F020E00E
:104690008091E8008E778093E800CBCF2111CCCFBA
:1046A0000AC08091D902882361F0853061F0809141
:1046B000E80083FD0AC08091E80082FFF2CF80E02D
:1046C000089582E0089583E0089581E00895982F89
:1046D000973058F59093E900981739F07091EC00F5
:1046E0002091ED005091F00003C0242F762F50E070
:1046F00021FF19C03091EB003E7F3093EB003091E9
:10470000ED003D7F3093ED003091EB003160309350
:10471000EB007093EC002093ED005093F00020919B
:10472000EE0027FF07C09F5FD3CF8F708093E90013
:1047300081E0089580E008958091DA0287FF11C03A
:104740008091E80082FD05C08091D9028111F8CFE7
:1047500011C08091E8008B770BC08091D90288232B
:1047600049F08091E80080FFF8CF8091E8008E77D3
:104770008093E80008952091E4003091E50095E6EB
:104780004091EC00842F817040FF22C08091E800AE
:1047900080FD1CC08091D902882391F0853091F072
:1047A0008091EB0085FD10C04091E4005091E50040
:1047B0004217530729F39A01915011F784E00895A5
:1047C00082E0089583E0089581E0089580E00895EF
:1047D0004091E80042FFDECF08950E945B240E94D2
:1047E0006324E0EEF0E0808181608083E8EDF0E01A
:1047F00080818F77808319BCA7EDB0E08C918E7F8C
:104800008C9380818F7E80831092D80208950F93BD
:104810001F93CF93DF930E945B240E946324C8ED13
:10482000D0E088818F7788838881806888838881B9
:104830008F7D888319BC1092D9021092D5021092F4
:10484000D7021092D60200EE10E0F80180818B7F33
:10485000808388818160888342E060E080E00E94FC
:104860006723E1EEF0E080818E7F8083E2EEF0E06E
:10487000808181608083808188608083F80180816D
:104880008E7F8083888180618883DF91CF911F91A3
:104890000F910895E8EDF0E080818F7E8083E7ED51
:1048A000F0E080818160808384E082BF81E080933A
:1048B000D8020C940724E8EDF0E080818E7F80839D
:1048C0001092E20008951092DA001092E10008952B
:1048D0001F920F920FB60F9211242F933F934F9375
:1048E0005F936F937F938F939F93AF93BF93EF9358
:1048F000FF938091E10082FF0BC08091E20082FF74
:1049000007C08091E1008B7F8093E1000E94D82650
:104910008091DA0080FF1FC08091D80080FF1BC00B
:104920008091DA008E7F8093DA008091D90080FF39
:104930000DC080E189BD82E189BD09B400FEFDCFD3
:1049400081E08093D9020E94B52005C019BC109265
:10495000D9020E94C3208091E10080FF19C080919C
:10496000E20080FF15C08091E2008E7F8093E2001C
:104970008091E20080618093E2008091D8008062A3
:104980008093D80019BC85E08093D9020E94C7208B
:104990008091E10084FF30C08091E20084FF2CC050
:1049A00080E189BD82E189BD09B400FEFDCF80911F
:1049B000D8008F7D8093D8008091E1008F7E809316
:1049C000E1008091E2008F7E8093E2008091E2001E
:1049D00081608093E2008091D502882311F084E009
:1049E00007C08091E30087FD02C081E001C083E041
:1049F0008093D9020E94C8208091E10083FF29C0E2
:104A00008091E20083FF25C08091E100877F809341
:104A1000E10082E08093D9021092D5028091E100FA
:104A20008E7F8093E1008091E2008E7F8093E20090
:104A30008091E20080618093E20042E060E080E0EB
:104A40000E9467238091F00088608093F0000E94AC
:104A5000C620FF91EF91BF91AF919F918F917F9170
:104A60006F915F914F913F912F910F900FBE0F90DB
:104A70001F9018951F920F920FB60F9211242F932B
:104A80003F934F935F936F937F938F939F93AF93D6
:104A9000BF93CF93DF93EF93FF93C091E900CF7063
:104AA0008091EC00D82FD17080FDD0E81092E90001
:104AB0008091F000877F8093F00078940E947E259B
:104AC0001092E9008091F00088608093F000CD2B77
:104AD000CF70C093E900FF91EF91DF91CF91BF912B
:104AE000AF919F918F917F916F915F914F913F9186
:104AF0002F910F900FBE0F901F9018951F93CF937B
:104B0000DF93CDB7DEB7AA970FB6F894DEBF0FBE1E
:104B1000CDBFEAEDF2E088E08E0F9091F100919325
:104B20008E13FBCF0E94D4208091E80083FF28C120
:104B30008091DA029091DB02492F50E04A30510512
:104B400008F01EC1FA01E953FF4F0C945C2780382E
:104B500021F0823809F014C108C08091D6029091EA
:104B6000D702992389F082600FC08091DE028F7096
:104B7000873008F005C18093E9008091EB0085FB48
:104B8000882780F91092E9009091E800977F909330
:104B9000E8008093F1001092F100D0C0282F2D7F03
:104BA00009F0EEC0882319F0823061F0E9C08091ED
:104BB000DC02813009F0E4C0933009F080E080939A
:104BC000D7022EC08091DC0281112AC08091DE02C2
:104BD0008F702FEF280F263008F0D2C08093E900A5
:104BE0002091EB0020FF1CC0933021F48091EB005A
:104BF000806214C09091EB0090619093EB0021E0F3
:104C000030E0A90102C0440F551F8A95E2F7409396
:104C1000EA001092EA008091EB0088608093EB003C
:104C20001092E9008091E800877F8093E8000E945D
:104C30009C23A6C08111A4C01091DC021F77809133
:104C4000E3008078812B8093E3008091E800877FE8
:104C50008093E8000E949C238091E80080FFFCCFB5
:104C60008091E30080688093E300111102C082E02C
:104C700001C083E08093D90283C08058823008F05D
:104C80007FC08091DC029091DD028C3D53E095075E
:104C900079F583E08A838AE289834FB7F894DE014D
:104CA000139620E03EE051E2E32FF0E050935700EE
:104CB000E49120FF03C0E295EF703F5FEF708E2F0D
:104CC00090E0EA3010F0C79601C0C0968D939D9396
:104CD0002F5F243149F74FBF8091E800877F809391
:104CE000E8006AE270E0CE0101960E94A32215C09E
:104CF0006091DE027091DF02AE014F5F5F4F0E9454
:104D0000D021BC01892BE1F19091E800977F90932D
:104D1000E80089819A810E9406238091E8008B77C0
:104D20008093E8002DC0803859F58091E800877F96
:104D30008093E8008091D5028093F1008091E80093
:104D40008E7773CF81111CC09091DC029230C0F439
:104D50008091E800877F8093E8009093D5020E94BD
:104D60009C238091D502811106C08091E30087FDCC
:104D700002C081E001C084E08093D9020E94CA2071
:104D80008091E80083FF0AC08091E800877F8093CC
:104D9000E8008091EB0080628093EB00AA960FB64A
:104DA000F894DEBF0FBECDBFDF91CF911F91089564
:104DB0000895CF938091D9028823A1F0C091E90092
:104DC000CF709091EC00892F817090FD80E8C82B06
:104DD0001092E9008091E80083FD0E947E25CF704B
:104DE000C093E900CF910895DB018F939F930E94B8
:104DF0007127BF91AF91A29F800D911DA39F900D30
:104E0000B29F900D1124089587FB082E062687FD7A
:104E1000819567FD61950E947C270EF4919507FCB2
:104E200081950895AA1BBB1B51E107C0AA1FBB1F98
:104E3000A617B70710F0A61BB70B881F991F5A9526
:104E4000A9F780959095BC01CD01089597FB072E99
:104E500016F4009407D077FD09D00E94122707FCB2
:104E600005D03EF4909581959F4F0895709561957A
:104E70007F4F0895A1E21A2EAA1BBB1BFD010DC096
:104E8000AA1FBB1FEE1FFF1FA217B307E407F507FA
:104E900020F0A21BB30BE40BF50B661F771F881FD6
:104EA000991F1A9469F760957095809590959B016C
:104EB000AC01BD01CF010895EE0FFF1F0590F491E5
:104EC000E02D0994A29FB001B39FC001A39F700D74
:104ED000811D1124911DB29F700D811D1124911D02
:104EE00008950E946227A59F900DB49F900DA49FE6
:104EF000800D911D11240895991B79E004C0991F1C
:104F0000961708F0961B881F7A95C9F78095089523
:104F1000FC014150504030F001900616D1F7319716
:104F2000CF010895882799270895F999FECF92BD5A
:104F300081BDF89A992780B50895A6E1B0E044E0D4
:104F400050E00C94CF27A8E1B0E042E050E00C9490
:104F5000CF27262FF999FECF92BD81BDF89A0197F0
:104F600000B4021639F01FBA20BD0FB6F894FA9AB1
:104F7000F99A0FBE08950396272F0E94AA270E9430
:104F8000A927252F0E94AA27242F0C94AA2701962F
:104F9000272F0E94AA270C94A927DC01CB01FC0132
:104FA000F999FECF06C0F2BDE1BDF89A319600B482
:0E4FB0000D9241505040B8F70895F894FFCF8D
:104FBE0001020A0A0A01191A1B1C1D1E1F2021229A
:104FCE004E021F206E2022206820562001E200E9AA
:104FDE0000EA00B500B600B700CD008301CC008A10
:104FEE0001920194012102230224022502260227A6
:104FFE00022A02B300B4006F007000818283F0F1C8
:10500E00C6676636943132353497963390919293C3
:10501E00950001020202020606060909090909099C
:10502E000F0F0F0F0F0F151515181919191919192B
:10503E00191919192324E200E900EA00B500B60097
:10504E00B700CD008301CC008A01920194012102A8
:10505E00230224022502260227022A02B300B400EC
:08506E006F00700081828300D5
:00000001FF
