:100000000C944C030C9493030C9493030C9493035F
:100010000C9493030C9493030C9493030C94930308
:100020000C9493030C9493030C946F240C9441252B
:100030000C948F1E0C9493030C9493030C949303D1
:100040000C9493030C9493030C9493030C949303D8
:100050000C9493030C94F71E0C9493030C94930349
:100060000C9493030C9493030C9493030C949303B8
:100070000C9493030C9493030C9493030C949303A8
:100080000C9493030C9493030C9493030C94930398
:100090000C9493030C9493030C9493030C94930388
:1000A0000C9493030C9493030C9493039D0DA00D57
:1000B000A80DAD0DB20DB70DBC0DC10DC60DCB0D0C
:1000C000D00DD50DD70DDA0DDD0DE00DE30DE60DEC
:1000D000E80DED0D4314431475147514C214251660
:1000E00025162516E2147F1590159015F115FA15B1
:1000F00025161E16A316A316B516B516AC16B516FC
:10010000B516B516A316A316B116B516B516B116C3
:10011000741F6A1F821FDB1FE21FE21FDB1FE21F2B
:10012000E21FA31FE21FAD1FB71FE21FE21FE21F66
:10013000E21FDB1FE21FE21FDB1FE21F901FE21F17
:10014000E21FC71FC71FC71FC71FC71FC71FC71F64
:10015000C71FC71FDD1FE21F741F671FE21FE21FBB
:10016000E21FE21FE21FE21FE21FE21FE21FE21F87
:10017000DD1FE21FE21FDB1FE21FC51FC51FC51FDA
:10018000C51FC51FC51FC51FC51FC51FDD1FAE2548
:10019000D525C726D525C72621264426C7269A2633
:1001A000A926165C1E001F0020002100220023004B
:1001B00024002500260027002D002E0031002B00F2
:1001C00014001A000800150017001C0018000C008D
:1001D000120013002F0030004C00E0000400160055
:1001E000070009000A000B000D000E000F0033008D
:1001F000340000002A00E10000001D001B00060082
:100200001900050011001000360037003800E50025
:1002100028000000E300E200000000002C000000C5
:100220000000000000000000E00002510151350014
:100230003A003B003C003D003E003F0040004100D2
:100240004200430044004500010001002A00520022
:100250004C0001000100010001000100010001004B
:100260005200010001000100500051004F00010048
:1002700001004A0401004A004B0050004F000000FA
:100280000100010000000100010001000100010067
:10029000010001004D004E0051000100010000006E
:1002A00001000100000000002C0000000000000020
:1002B000000000000100010001000000000000003B
:1002C000000000000000000000000000000000002E
:1002D0000000000000000000C45CC25CC35C0000C1
:1002E000000000000000000000000000000000000E
:1002F00000000000000000000000000000000000FE
:10030000005C000000000000000000000000000091
:1003100000000000000000000000000000000000DD
:1003200000000000000000000000000000000000CD
:1003300000000000000000000000000000000000BD
:1003400000000100010000047F3F1F64321464328A
:1003500014783C1E1E140A052223252628292A2C3F
:100360002D2F3032333536383A3B3D3E40424345FF
:1003700047494A4C4E5051535557595A5C5E60623A
:10038000646668696B6D6F71737577797B7D7F814A
:10039000838587898A8C8E90929496989A9C9E9F4A
:1003A000A1A3A5A7A8AAACAEAFB1B3B4B6B8B9BB68
:1003B000BCBEBFC1C2C3C5C6C7C9CACBCCCDCED0D7
:1003C000D1D2D2D3D4D5D6D7D7D8D9D9DADADBDBC4
:1003D000DBDCDCDCDCDCDDDDDDDDDCDCDCDCDCDB5B
:1003E000DBDBDADAD9D9D8D7D7D6D5D4D3D2D2D1A4
:1003F000D0CECDCCCBCAC9C7C6C5C3C2C1BFBEBC97
:10040000BBB9B8B6B4B3B1AFAEACAAA8A7A5A3A107
:100410009F9E9C9A98969492908E8C8A89878583C9
:10042000817F7D7B79777573716F6D6B69686664A9
:1004300062605E5C5A5957555351504E4C4A494779
:10044000454342403E3D3B3A3836353332302F2D1E
:100450002C2A292826252322FFAA7F5540000101A6
:100460000101010101010102020202020202020273
:100470000303030303030303040404040404040543
:100480000505050506060606060707070707080807
:100490000808090909090A0A0A0B0B0B0C0C0C0DB8
:1004A0000D0D0E0E0E0F0F0F101011111112121351
:1004B000131414151516161717181819191A1A1BCC
:1004C0001B1C1D1D1E1E1F2020212222232424252B
:1004D0002626272829292A2B2C2D2D2E2F30313264
:1004E00032333435363738393A3B3C3D3E3F404174
:1004F00042434445464748494A4C4D4E4F5051535C
:1005000054555658595A5B5D5E5F61626465666812
:10051000696B6C6D6F7072737577787A7B7D7E8096
:1005200082838587888A8C8E8F91939596989A9CE2
:100530009EA0A2A3A5A7A9ABADAFB1B3B5B7BABCF6
:10054000BEC0C2C4C6C9CBCDCFD1D4D6D8DBDDDFC7
:10055000E2E4E7E9EBEEF0F3F5F8FAFDFF0403302F
:10056000000000100374006F006B0079006F00360C
:1005700000300000001E0354006F006B0079006F14
:100580000020004B006500790062006F006100727E
:1005900000640000000403090409023B000201009A
:1005A000A03209040000010301010009211101002A
:1005B000012240000705810308000A090401000127
:1005C00003000000092111010001227100070582CA
:1005D0000320000A1201100100000008EDFE606017
:1005E00001000102030105010980A10185031A81AF
:1005F000002A830016010026030095017510810072
:10060000C0050C0901A10185041A01002A9C0216EB
:100610000100269C02950175108100C005010906A4
:10062000A1018505050719E029E7150025019508B1
:10063000750181020507190029EF1500250195F0C4
:1006400075018102050819012905950575019102B9
:10065000950175039101C005010906A1010507195E
:10066000E029E715002501950875018102950175BE
:100670000881010507190029FF150026FF009506CE
:100680007508810005081901290595057501910274
:10069000950175039101C00011241FBECFEFDAE070
:1006A000DEBFCDBF04B603FE27C08091E202909169
:1006B000E302A091E402B091E5028730904BA7409D
:1006C000B04BD1F41092E2021092E3021092E402D5
:1006D0001092E50214BE84B7877F84BF0FB6F894EA
:1006E000A8958091600088618093600010926000FE
:1006F0000FBEE0E0F8E3099511E0A0E0B1E0ECEC1A
:10070000FFE402C005900D92A83BB107D9F722E0A3
:10071000A8EBB1E001C01D92A23EB207E1F70E9432
:1007200098210C94E4270C9400000C9479060C9406
:100730007A0681E0089581E008950C949B031F934D
:10074000CF93DF9300D000D01F92CDB7DEB749839F
:100750005A832091DE0189819A81211112C066237A
:1007600049F00E94C81B182F682F89819A810E9426
:100770006D1B03C00E949C1B182F69817A81812FF9
:1007800004C00E94C81B69817A810F900F900F905E
:100790000F900F90DF91CF911F910C944904FC01B1
:1007A000408151816281738184810C949F030E94F6
:1007B000F81C811102C00E94A11D0E943F0F0C94E1
:1007C00095030C94970308950C94E30381E0089536
:1007D0000C94E603CF93C82F0E94E4038C2F0E9451
:1007E000E803CF91089508950E9493160E94F303A1
:1007F0002FEF84E39CE0215080409040E1F700C05F
:1008000000000C941D1F0F931F93CF93DF93EC01F7
:100810000E94CF038C01BE010E949D03882379F1C1
:10082000BE01C8010E94F30F882349F1BE01C8012F
:100830000E943410882319F1BE01C8010E945F1183
:100840008823E9F0BE01C8010E94860D8823B9F013
:100850008A81882369F001158CE5180731F00E3D77
:100860001C4531F40E94A11D0AC00E94F40307C078
:10087000CE01DF91CF911F910F910C94990380E0ED
:10088000DF91CF911F910F91089580E090E008953E
:1008900008959EE0799FF001112496E4899FE00D70
:1008A000F11D1124E60FF11DEE0FFF1FEE55FE4F57
:1008B000859194910895880F991FFC01EA5BFC4F84
:1008C000859194910895CF93DF930E9449040E94EB
:1008D000A205EC01811522E5920708F046C08115BA
:1008E00031E5930708F0FBC0883E910500F5803E96
:1008F000910508F023C1883A910570F4853A910575
:1009000008F0B1C08130910509F418C108F414C190
:10091000049708F013C110C18F3B910508F4ABC0D8
:10092000803C910508F408C1805C9109AFC0811535
:1009300040E4940790F4C11580E3D80708F0AAC0FA
:10094000C11521E0D20708F4F7C0C11530E2D30782
:1009500008F4F4C0CE019F7099C0811540E594075A
:1009600008F0A2C0DF70D06AE9C0C11589E5D807D8
:10097000B8F5C11528E5D20708F0CAC0C11534E59D
:10098000D307D0F42C2F26952695CE018370992776
:10099000C115D34508F0A8C040E2249F900111245E
:1009A000C1E0D0E002C0CC0FDD1F8A95E2F72C2B0E
:1009B0003D2BE901DC68C2C0C11585E5D80708F404
:1009C000A2C0C11526E5D20708F0B6C08C2F0E9440
:1009D00036068F71C82FD0E0DC2FCC27D062AEC096
:1009E000CD3B3CE5D30709F49EC0E0F4CB3B8CE55E
:1009F000D80709F492C008F093C0C1153AE5D307AF
:100A000008F09AC08C2F8F700E94360694E0D6951D
:100A1000C7959A95E1F7CF70D0E0DC2FCC27D0694D
:100A2000C82B8CC0C03C4CE5D40709F482C060F4EC
:100A3000CE3B2CE5D20709F479C0CF3BDC4509F069
:100A40007BC0C0E0D2ED7AC0CE01905681159042B5
:100A500008F072C08D2F8F710E943606DD27D0629C
:100A60008F71D82B6BC0C55AD0E0C55BDE4FC881F3
:100A7000D0E0D06463C0C85AD0E0CC0FDD1FC35EA5
:100A8000DE4F0990D881C02DD46458C00E945B0409
:100A9000EC0154C0CE019927D3FF03C0EC01D86C00
:100AA0004DC0EC01D06C4AC0837021E030E002C040
:100AB000220F331F8A95E2F73C68CE0174E09695C9
:100AC00087957A95E1F78370382BCF70C695C695D8
:100AD00080E2C89FE0011124C22BD32B2FC0D82F56
:100AE000CC27C16FD06A2AC040E2249F9001112414
:100AF000C1E0D0E002C0CC0FDD1F8A95E2F7C22B27
:100B0000D32BDA681BC0DC2FCC27C46FD06A16C089
:100B1000DC2FCC27C06FD06A11C0C0E0D4ED0EC06E
:100B2000C0E0D5ED0BC0C0E0D1ED08C0C0E0D0ED15
:100B300005C0C0E0D3ED02C0C0E0D0E0CE01DF913F
:100B4000CF9108958238910569F1B0F48133910510
:100B500009F46DC048F48932910509F463C08A3202
:100B6000910509F469C008958533910509F455C0CC
:100B700089339105B9F00895833E910569F138F400
:100B8000803E9105B1F0823E910509F10895863EBF
:100B90009105A9F1873E9105B9F1843E910509F0CF
:100BA00064C023C02091D30220FD4FC021FD4DC061
:100BB00008958091D30280FD44C08091D40280FFCB
:100BC00044C08091D30284FD42C083EE4DC0809129
:100BD000D30282FF38C0F5CF8091D30282FD33C0AB
:100BE0008091D40280FD31C0ECCF8091D40281FF8E
:100BF00032C08091D30284FD2AC087EE35C0809137
:100C0000D30283FF26C0F5CF8091D30283FD21C09C
:100C10008091D40281FD1FC0ECCF8091D30285FD6D
:100C20001CC01DC08091D30285FD19C016C08091E3
:100C3000D30286FD16C017C08091D30286FD13C073
:100C400010C089E311C082EE0FC080EE0DC080E0BD
:100C50000BC086EE09C084EE07C089E205C085E3BB
:100C600003C08AE201C081E390E008959091D3022D
:100C700092FF0DC0282F2871283019F4877F8460D7
:100C800006C0282F2471243011F48B7F886093FFD5
:100C90000DC0282F2871283119F4877E846106C081
:100CA000282F2471243111F48B7E88612091D40285
:100CB00020FF0DC0382F3871383019F4877F8160DC
:100CC00006C0382F3171313011F48E7F886021FFDA
:100CD0000DC0282F2871283119F4877E816106C044
:100CE000282F2171213111F48E7E886194FD877E39
:100CF000089508950895E82FF0E0EE0FFF1FEF55D7
:100D0000FD4F808191810895089580EA8A95F1F7D9
:100D10000895AEE4B1E041E050E02EE02A0F8D915D
:100D2000E82FE295EF70F0E031A18F70BA0102C0B8
:100D3000660F771F8A95E2F7CB01962F9095932344
:100D400091A392A1892B82A32A13E9CFACE5B1E04C
:100D500041E050E025E02A0F8D91E82FE295EF70F9
:100D6000F0E031A18F70BA0102C0660F771F8A953B
:100D7000E2F7CB01962F9095932391A392A1892B13
:100D800082A32A13E9CFE7E9F2E0A1EAB2E01192E7
:100D900011921D921D9272E0E13AF707C1F785E0CA
:100DA0000E9473070C94D7032F923F924F925F9249
:100DB0006F927F928F929F92AF92BF92CF92DF926B
:100DC000EF92FF920F931F93CF93DF939EE4C92E70
:100DD00091E0D92EE12CF12C10E0AA24A394B12C9F
:100DE000D6018D916D01C82FC295CF70D0E099A129
:100DF0008F70450101C0880C8A95EAF7892F8829F0
:100E000089A38AA1082D009580238AA30E948506C4
:100E1000A5010E2C02C0440F551F0A94E2F73A01B7
:100E2000609470948CE5282E81E0382EE7E9F2E09A
:100E3000512CBF0180819181D1014D901D01242D44
:100E400022952F7030E0D90190962C9130E0B42D8E
:100E5000BF7002C035952795BA95E2F720FD04C012
:100E60009C01242B352B03C09C0126213721318383
:100E700020833296DB012D913C918217930711F06C
:100E800055245394B2E0E13AFB0799F689A108236F
:100E900009A38AA1882A8AA21529EFEFEE1AFE0A71
:100EA000FEE0EF16F10409F09BCF212F45E061EA47
:100EB00072E087E992E00E9474070E94E103812FAB
:100EC000DF91CF911F910F91FF90EF90DF90CF9026
:100ED000BF90AF909F908F907F906F905F904F905A
:100EE0003F902F9008950895FF920F931F93CF93F3
:100EF000DF93F82E092F162FD72FC42F222349F066
:100F000081E08093BA010E94C11E9093B901809341
:100F1000B8018091BA018823D9F08091B8019091ED
:100F2000B9010E94CD1E069798F0EF2DF02FA12F4A
:100F3000BD2F80E090E04C2F50E08417950734F4EB
:100F4000219131912D933D930196F7CF1092BA01E3
:100F5000DF91CF911F910F91FF900895AF92BF92B3
:100F6000CF92DF92FF920F931F93CF93DF93D62EF2
:100F7000372FE82FF0E0711106C0E35AFB4F649160
:100F8000762F862F75C0C72FD0E0E35AFB4F2491F0
:100F9000F22E022F10E046E0649FC0011124EFEF13
:100FA000F0E0BF010E941927AB016BEA6403C001A6
:100FB000659F900D11248D0D911D8D0D911D982F04
:100FC000990F890FDF01AC1BBD0B0A9FB0010B9F6E
:100FD000700D1A9F700D1124972F839FD00111243B
:100FE000AB2FBB276F01CA1ADB0A0C9DD0010D9DE8
:100FF000B00D1C9DB00D11245F01A81AB108AC9E64
:101000006001AD9ED00CBC9ED00C1124CD2DDD27EF
:10101000EC1BFD0B0E9FE0010F9FD00D1E9FD00D0E
:101020001124ED2F4230510591F04CF4411551053A
:10103000E1F041305105B9F4E22F2B2F16C04430B6
:10104000510569F044F04630510579F00CC0E22FAB
:10105000272F9D2F0AC0272F9F2DEB2F06C0E72F8C
:10106000922F2D2F02C0E72F9B2F6E2F722F892FCB
:10107000DF91CF911F910F91FF90DF90CF90BF90A4
:10108000AF9008950895CF93DF93762FE901682FED
:10109000842F0E94AE07798368838A83DF91CF9182
:1010A00008958091AB02282F269530E02115310557
:1010B00019F48170826005C02532310524F08170F9
:1010C00088648093AB02089588E090E00C94A42794
:1010D000CF93DF9300D000D0CDB7DEB7AB01BC011A
:1010E00049835A836B837C830E94510849815A81CA
:1010F0006B817C8188E090E00F900F900F900F90B3
:10110000DF91CF910C94C227EBEAF2E083E0808379
:1011100011828FEF82838383148260817181828147
:1011200093810C9468088091AB0280FF02C0869581
:10113000089580E008958091AF02833018F48F5FA6
:101140008093AF026091AB027091AC028091AD02CE
:101150009091AE020C9468088091AF02882319F038
:1011600081508093AF026091AB027091AC0280918C
:10117000AD029091AE020C9468086091040170E099
:101180008091AB0280FF0AC08091BF0123E0829F63
:10119000C001112480559D4F0C94830F8091BE0196
:1011A00090910301891780F7E82FF0E09F01220F4B
:1011B000331FE20FF31FE055FD4F118210821282A0
:1011C0008F5FF0CF9091AB0290FF16C09091BE015F
:1011D00020910301921770F4E92FF0E0DF01AA0FCC
:1011E000BB1FEA0FFB1FE055FD4F818360834283E5
:1011F0009F5FF0CF0C94BD080895CF93DF9300D08C
:101200001F92CDB7DEB79091AB0290FF0AC09E014E
:101210002F5F3F4F0E9443084B8169818A810E9462
:10122000E2080F900F900F90DF91CF910895CF9328
:10123000DF93EC01EC81F0E0E85AFC4F4491EBEADB
:10124000F2E0628181810E94FD088C818F5F8C8336
:10125000DF91CF910895CF93DF93EC01EBEAF2E0B9
:10126000438162818C810E94FD088C818F5F8C8319
:10127000DF91CF9108950F931F93CF93DF9300D009
:101280001F92CDB7DEB78C018091BB0181110AC0DE
:101290009E012F5F3F4F4FEF6FEF0E9443088A81FF
:1012A0008093BB01F8018481813051F028F08230B5
:1012B00061F44091BB010AC08091BB0140E007C0CE
:1012C0006091BB0140E080E003C040E080E060E06E
:1012D0000E94E208F801248130E0C901019663E030
:1012E00070E00E942D2784830F900F900F90DF9164
:1012F000CF911F910F910895AF92BF92CF92DF923D
:10130000EF92FF920F931F93CF93DF9300D01F9222
:10131000CDB7DEB7182FF62E042FE22E9091AB0238
:1013200090FF6EC0E92FE695AE2FB0E0AF59BE4FEB
:101330008C918093C7019E7F923061F49E012F5F54
:101340003F4F812F0E9443084B8169818A810E940F
:10135000E20844C0823019F40091AE023FC08630EA
:1013600019F41091AC023AC08930D9F38931B1F542
:10137000E9518E2F8170D82EE695F0E0E85AFB4FA8
:10138000A590B490C12CBB2460910201C61620F533
:10139000EC2DF0E0EA9DC001EB9D900DFA9D900DC3
:1013A000112470E00E941927812FD11002C0860FEE
:1013B00001C0861B9091BE01E90FF11D9F01220F14
:1013C000331FE20FF31F9F0120553D4F402F6F2D1C
:1013D0000E944308C394D8CF0E94BD081093AC026A
:1013E000F092AD020093AE02EE2051F06091AB029C
:1013F0007091AC028091AD029091AE020E9468089B
:101400000F900F900F90DF91CF911F910F91FF9050
:10141000EF90DF90CF90BF90AF900895EBEAF2E0AD
:101420009181282F438162818CE0890F0C947C0983
:1014300081E00C940E0AEBEAF2E09181282F4381BF
:10144000628184EF890F0C947C0981E00C941B0A63
:10145000EBEAF2E062812CE0620F08F46FEF282FD4
:10146000438181810C947C0981E00C94280AEBEA89
:10147000F2E062812CE0621B08F460E0282F4381D7
:1014800081810C947C0981E00C94370AEBEAF2E04C
:1014900043812CE0420F08F44FEF282F62818181B5
:1014A0000C947C0981E00C94460AEBEAF2E043815B
:1014B0002CE0421B08F440E0282F628181810C94CB
:1014C0007C0981E00C94550A20E00C947C09FF9281
:1014D0000F931F93CF93DF93EC01F12C0FEF10E0EC
:1014E00060910201F616E8F42091BE0130E02F0D64
:1014F000311DC901880F991F280F391F20553D4FF5
:1015000070E0C8010E942D27962F8C814091AE0279
:101510006091AD02F99E800D11240E944308F3945E
:10152000DFCF0E94BD089A818C8190FF02C08F5F3F
:1015300001C081508C83DF91CF911F910F91FF905B
:101540000895AF92BF92CF92DF92EF92FF920F93E6
:101550001F93CF93DF93FC01828180FF02C00FEFC6
:1015600001C001E010E04AE0A42E809102011817AA
:1015700008F043C0C12ED12C8091BE01E601C80FF6
:10158000D11DCE01880F991FC80FD91FC055DD4F3F
:10159000198218821A8234E0E32EF12CB12C80914A
:1015A000BD018B0D8B302CF06A2D0E940B27892FEB
:1015B00005C087FF03C090910201890F082E000C1F
:1015C000990BC816D90691F48091AE028E9DA001A8
:1015D0008F9D500D112455954795559547959E0122
:1015E0006091AD028091AC020E944308B00EF1E020
:1015F000EF1AF108A1F61F5FB8CF0E94BD088091D5
:10160000BD01013031F4811102C08091020181508D
:1016100007C090E001966091020170E00E942D27C2
:101620008093BD01DF91CF911F910F91FF90EF90BB
:10163000DF90CF90BF90AF900895CF938091BE017F
:1016400090910301891770F4E82FF0E09F01220FB9
:10165000331FE20FF31FE055FD4F118210821282FB
:101660008F5FF0CFC0E060910201C617B8F5EC2F94
:10167000F0E070E0CF010E942D274091BE01480F9D
:101680008091BC01082E000C990B50E0E817F90777
:10169000C4F020910101022E000C330B2E173F07DE
:1016A00084F09A01220F331F240F351F20553D4F20
:1016B0004091AE026091AD028091AC020E9443085D
:1016C0000BC0FA01EE0FFF1F4E0F5F1FFA01E0552E
:1016D000FD4F118210821282CF5FC5CF0E94BD08DC
:1016E000209100018091BC01820F8093BC019091F8
:1016F0000101920F9093010119165CF4082E000C61
:10170000990B4091020150E041505109841795070F
:101710001CF0219520930001CF9108950F931F9302
:10172000CF93DF938C01FC018481958101968170B8
:10173000992795838483C0E0D5E580910201C8177D
:10174000F8F42091BE0130E02C0F311DC901880F43
:10175000991F280F391F20553D4F4C2F4695F801F2
:1017600084819581840F911D81704091AE026091BA
:10177000AD028D9F802D11240E944308CF5FDDCFE5
:10178000DF91CF911F910F910C94BD080F931F9380
:10179000CF93DF93EC0100E010E080910201282F4D
:1017A00030E00217130724F59091BE019801290F2C
:1017B000311DA901440F551F240F351F20553D4FE2
:1017C000869590E04C81081719071CF4442331F0EA
:1017D00002C0411103C04091AE0201C040E06091DF
:1017E000AD028091AC020E9443080F5F1F4FD5CF1E
:1017F0000E94BD082C8130E02F5F3F4F21703327BE
:101800002C83DF91CF911F910F910895EBEAF2E0C5
:1018100080818E7F808360817181828193810E942B
:1018200068081092C8012FEF80E792E021508040B5
:101830009040E1F700C000000C94BD086091AB023D
:10184000669570E04BE050E085E091E00E948F27C4
:10185000892B19F481E08093C8010E94C11E9093E6
:10186000C1018093C00108959091AB0290FF35C0F3
:101870009170811102C0926006C0853210F09864A8
:1018800002C0880F982B9093AB02662351F06091B1
:10189000AB027091AC028091AD029091AE020E94B9
:1018A00068086091AB02669570E04BE050E085E01F
:1018B00091E00E948F27892B19F01092C80102C075
:1018C0000E941E0C81E08093C3014091AE026091A2
:1018D000AD028091AC020C94640A0895682F909137
:1018E000AB02969581E0890F853208F081E00C9477
:1018F000340C81E00C946E0C682F9091AB0296959D
:101900008FEF890F09F484E20C94340C81E00C947D
:101910007C0C61E00C94340CEBEAF2E08081816095
:10192000808386950C94890C8091AB0280FD0C9489
:10193000060C0C948C0C60E00C94340C8091C60165
:1019400081112EC00E94F81C811104C00E94A11DAB
:101950000E9484080E9464086093AB027093AC02FA
:101960008093AD029093AE026E7F61F40E94840872
:101970000E9464086093AB027093AC028093AD0246
:101980009093AE020E9451081092C8018091AB0260
:1019900080FF03C086950E949B0C81E08093C60166
:1019A00008950F931F93CF93DF938091C8018823ED
:1019B00009F48CC08091C701E091AB02E695E81B69
:1019C000E093C201823049F4F0E0EC5AFC4FE4911C
:1019D000CE2FD0E007E119E049C0863049F4F0E0AD
:1019E000EF5AFC4FE491CE2FD0E00BE219E03EC05D
:1019F000893051F4E695F0E0E25BFC4FE491CE2FA4
:101A0000D0E007E61AE032C08F3051F4E695F0E0FE
:101A1000E55BFC4FE491CE2FD0E001EA1AE026C04E
:101A2000853149F4F0E0E85BFC4FE491CE2FD0E043
:101A30000DE11BE01BC0883181F0833239F4E6E40C
:101A4000F3E0C591D4910BE319E010C0843251F456
:101A5000C4EFD1E006EC1BE009C0C8EED3E00EE80D
:101A60001BE004C0C0EDD7E002E418E08091C301A0
:101A7000882389F01092C3010E94C11E9E01209507
:101A80003095820F931F9093C1018093C0011092F3
:101A9000C5011092C4018091C0019091C1010E94C2
:101AA000CD1E8C179D0790F0E091C001F091C1010F
:101AB000CE0FDF1FD093C101C093C00180EC91E035
:101AC000F801DF91CF911F910F910994DF91CF9190
:101AD0001F910F910895882311F0FA0101C0FB01B5
:101AE0000994CF93DF93C82FD62F0E9493088C17A9
:101AF00040F00E9493088D1720F4DF91CF910C9451
:101B0000790C8C2FDF91CF910C94890C0F931F933C
:101B1000CF93FB01C281CC2309F463C08C010E94E6
:101B2000481C8272F801E25CFC45E431F10508F0E2
:101B300059C0EA5AFF4F0C9463270E94940C06C0C8
:101B400046E85CE069E77CE00E946B0DC0E04AC0BB
:101B500049E75CE066E87CE0F7CF45E25AE068E1FF
:101B60007AE0F2CF48E15AE065E27AE0EDCF43E473
:101B70005AE064E37AE0E8CF44E35AE063E47AE0D1
:101B8000E3CF41E65AE062E57AE0DECF42E55AE093
:101B900061E67AE0D9CF4CEA58E06BE978E0D4CF3F
:101BA0004BE958E06CEA78E0CFCF81E017C065E000
:101BB00082E010C068E086E00DC06EE089E00AC0F7
:101BC00064E18FE007C067E185E104C088E106C0F9
:101BD00062E289E10E94710DB9CF83E20E94890C13
:101BE000B5CFC1E08C2FCF911F910F9108950E9426
:101BF000F81C811102C00E94A11D0E94291D809322
:101C0000CE02282F26952695269530E027303105DF
:101C100024F0877080638093CE028091CE0280FF93
:101C200004C086958695869501C080E00C94E20EEE
:101C30002091CE02822F869586958695482F50E07A
:101C40004630510554F48F5F982F990F990F990FD3
:101C5000822F8770892B8093CE028091CE02816083
:101C60008093CE020E942D1D8091CE02869586958E
:101C700086950C94E20E8091CE02982F96959695BB
:101C80009695A1F0915E990F990F990F8770892B06
:101C90008093CE02887F91E009F490E08091CE029B
:101CA00090FB80F98093CE020E942D1D8091CE0280
:101CB0008695869586950C94E20E8091CE0280FDE5
:101CC00013C081608093CE02813019F489E0809343
:101CD000CE028091CE020E942D1D8091CE0286956B
:101CE000869586950C94E20E08958091CE0280FF31
:101CF00008C08E7F8093CE020E942D1D80E00C9440
:101D0000E20E08958091CE0280FD0C94750E0C9425
:101D10005D0E9091CE02892F8695869586958F5F70
:101D20008F719770873038F4880F880F880F892B50
:101D30008093CE0202C09093CE028091CE02887F23
:101D400091E009F490E08091CE0290FB80F98093BD
:101D5000CE020E942D1D8091CE0286958695869595
:101D60000C94E20E873008F086E09091CE029770D6
:101D7000282F220F220F220F922B9093CE02987FB2
:101D800021E009F420E09091CE0220FB90F990939D
:101D9000CE020C94E20E0E94B20E8091CE020C9400
:101DA0002D1DE82FE295EF70F0E032A1282F2F7063
:101DB00081E090E001C0880F2A95EAF7809583239F
:101DC00082A30895CF92DF92EF92FF92873030F492
:101DD000811105C090918000977F04C086E09091AA
:101DE0008000986090938000282F30E0AFEFBFEF25
:101DF0000E94692726E030E040E050E00E94412741
:101E00002C3784E138074105510530F4C90169E0F8
:101E100070E00E94192729C0DA01C9018A50974D44
:101E2000AF4FBF4F6627782F892F9A2F25EF38E2C3
:101E300041E050E00E94412769017A01CA01B901DD
:101E40000E94FB269B01AC01C701B6010E94FB2644
:101E5000BB27A92F982F872F009721E0A207B10554
:101E600011F0BC0102C06FEF7FEF70938D006093A3
:101E70008C00FF90EF90DF90CF9008950895279AFF
:101E800087E30E94D10E8AE08093800089E18093ED
:101E900081008FEF9FEF90938700809386000C94D2
:101EA000F70D21B3342F3095232331B3432B3FB7A4
:101EB000F894FC01680F791FE617F70789F0819104
:101EC00098E041BB000000C087FF21BB880F0000E5
:101ED00000C000C000C021BB00C09A9591F7ECCFB4
:101EE0003FBF089520B3242B20BB9B01220F331F3B
:101EF000620F731F0E94510F87EC90E00197F1F77A
:101F000000C00000089540E80C94720F0F931F93D7
:101F1000CF93DF93C62FD42F022FFC018281882319
:101F2000C9F06093CB010E94C11E9093CA018093B7
:101F3000C90180E28C0F883008F050C0C77081E082
:101F400001C0880FCA95EAF7DF91CF911F910F91D9
:101F50000C9403141091CB01161330C08091C90169
:101F60009091CA010E94CD1E883C910538F5C0E2CF
:101F7000CD0F1D17B9F080E2810F883040F4177043
:101F800081E001C0880F1A95EAF70E940A14C83050
:101F900048F481E09D2F977001C0880F9A95EAF769
:101FA0000E940314802F0E94F013C830B8F4D77039
:101FB00081E001C0880FDA95EAF70AC080E28C0F51
:101FC000883060F4C77081E001C0880FCA95EAF7D5
:101FD000DF91CF911F910F910C940A14DF91CF9153
:101FE0001F910F9108959C01CB01233F4CE53407CD
:101FF000F9F078F4283DFCE53F07B9F0293D4CE5C0
:10200000340711F1273D3C4531F526E241EE61EE02
:102010001EC0253FFCE53F0799F070F0263F3C4588
:10202000D1F427E245EE66EE12C027E245EE0EC07F
:1020300026E241EE60EE0BC027E245EE64EE07C0FB
:1020400026E241EE62EE03C028E241E065EE0E9426
:10205000860F80E00895FC018281882319F0109298
:10206000CB01089581E00895CF93DF93EC01FB014C
:102070008281882309F41FC1C230FCE5DF0708F420
:102080001BC1C6319CE5D90738F09E012A5F3C454B
:102090002930310508F010C10E940B1D9093D40225
:1020A0008093D302C031ECE5DE0709F4C3C008F029
:1020B00041C0C8308CE5D80709F49AC0F0F4C430A8
:1020C000ECE5DE0709F487C068F4C2308CE5D80778
:1020D00009F477C0C330DC4509F0E3C08091D30236
:1020E000826076C0C630ECE5DE0709F46EC008F009
:1020F0007BC08091D30288606BC0CC308CE5D80760
:1021000009F485C068F4CA30ECE5DE0709F474C050
:1021100008F079C00E9493168091D302806858C05D
:10212000CE308CE5D80709F476C008F07FC08091E6
:10213000D3028BC0CB3FECE5DE0709F44FC018F5A6
:10214000C3318CE5D80709F47DC078F4C131ECE5E2
:10215000DE0709F473C0C231DC4509F0A2C00E9459
:1021600093168091D3028F7733C0C5318CE5D807A1
:1021700009F472C008F486C0CA3FDC4509F091C07A
:102180008091D4023EC0CF3FFCE5DF0709F45FC079
:1021900058F4CD3F9CE5D90709F444C008F43FC08A
:1021A0008091D40282602DC0C130FDE5DF0709F4C3
:1021B00075C008F45DC0C230DD4509F072C080E032
:1021C0006EC08091D302816003C08091D302806190
:1021D0008093D30266C08091D30211C08091D40253
:1021E00082608093D4025DC08091D3028062F0CF80
:1021F0008091D3028064ECCF8091D30288608460A8
:10220000E7CF8160EECF8091D3028E7FE1CF8091C6
:10221000D3028D7FDDCF8091D302877FD9CF80918C
:10222000D40218C08091D4028D7FDBCF8091D3027D
:102230008F7ECECF8091D3028F7DCACF8091D30283
:102240008F7BC6CF8091D302877F8B7FC1CF809158
:10225000D4028D7F8E7FC5CF8091D30282FB22274F
:1022600020F991E0922790FB82F990FB83F9B0CF9F
:102270008091D402982F909591708E7F892B90FB3E
:1022800081F9AFCF0E9493168091D30287FB22275A
:1022900020F991E0922790FB87F99ACF81E00E9484
:1022A000A31D8091D3029091D4020E941C1D0E9414
:1022B000931680E001C081E0DF91CF910895CF9324
:1022C000DF9386319C4541F5EB010E94481C282F85
:1022D0008A814091100150911101882379F02A7A66
:1022E00091E009F490E09093CC01911102C069E271
:1022F00001C065E3CA010E940D1E0AC08091CC0195
:10230000811102C069E201C065E3CA010E94181E82
:102310000E94941C80E001C081E0DF91CF9108957C
:102320009093D2018093D1010895E091D101F09171
:10233000D201309721F00190F081E02D099480E0E6
:102340000895E091D101F091D201309799F0209158
:102350001C01222359F02091D30227FF07C0DC0182
:102360002C9111962C93119725E02C930280F381E8
:10237000E02D099408952091CF013091D00182176A
:10238000930771F09093D0018093CF01E091D10138
:10239000F091D201309721F00680F781E02D099469
:1023A00008952091CD013091CE018217930771F0ED
:1023B0009093CE018093CD01E091D101F091D201B3
:1023C000309721F00084F185E02D0994089585B7B8
:1023D000806885BF85B7806885BF08950895089592
:1023E0000C94EF1108950C94F2110E94E7110E94D1
:1023F000EE110C94F01181E008950E94B81E0E9425
:1024000089060E94411F0E94F70D0E949E0C0C94A9
:10241000F3117F928F929F92AF92BF92CF92DF92F1
:10242000EF92FF920F931F93CF93DF93CDB7DEB759
:102430002A970FB6F894DEBF0FBECDBF0E94D40618
:102440000E94FB11811111C08FEF89838A831B8247
:102450000E94C11E8160782F9D838C8349815A819F
:102460006B818D810E94BB124FC034ED832E31E011
:10247000932E00E010E0702E802F0E947B066C01EE
:10248000F401A190B1904F01A826B926A114B1047E
:1024900031F40F5F1F4F0530110569F7D5CF8091DB
:1024A000710281FD0E94840690E0EE24E394F12CF9
:1024B00097012A213B21232B09F19E837F82CE2085
:1024C000DF2091E0CD2809F490E098870E94C11E9A
:1024D0008160782F9A8789874E815F8168858A8598
:1024E0000E94BB12000F111FF801EC52FE4F8081B9
:1024F0009181E826F926F182E08206C09F5FEE0C0A
:10250000FF1C9E30A9F6C5CF0E94D10C0E943E0F41
:102510001091D3010E9495111817C9F00E949511CE
:102520008093D3012A960FB6F894DEBF0FBECDBFBD
:10253000DF91CF911F910F91FF90EF90DF90CF909F
:10254000BF90AF909F908F907F900C94EA032A9653
:102550000FB6F894DEBF0FBECDBFDF91CF911F91B4
:102560000F91FF90EF90DF90CF90BF90AF909F9032
:102570008F907F900895CF93DF93CDB7DEB72B97E1
:102580000FB6F894DEBF0FBECDBF4F835887698763
:102590007A878B87DE01119686E0FD0111928A957C
:1025A000E9F785E0FE01379601900D928A95E1F7F3
:1025B00049815A816B817C818D819E810E943D1968
:1025C0002B960FB6F894DEBF0FBECDBFDF91CF9133
:1025D0000895FC01808191810E94091C0895CF9388
:1025E000DF931F92CDB7DEB7882309F496C0682F1A
:1025F0008238C1F40E94951181FD8FC069E38091FA
:102600001001909111010E940D1E0E94941C2FEF49
:1026100081EE94E0215080409040E1F700C000003E
:1026200069E319C0833811F50E94951180FD75C0CA
:1026300063E580911001909111010E940D1E0E948E
:10264000941C2FEF81EE94E0215080409040E1F700
:1026500000C0000063E580911001909111010E947B
:10266000181E0F90DF91CF910C94941C8438C1F404
:102670000E94951182FD51C067E4809110019091F4
:1026800011010E940D1E0E94941C2FEF81EE94E018
:10269000215080409040E1F700C0000067E4DBCFAC
:1026A0008CEF860F813A70F4862F69830E94EA1FAF
:1026B0006981811132C080911001909111010E94B5
:1026C0000D1ECFCF80E2860F883048F4677081E01E
:1026D00001C0880F6A95EAF70E944B1CC2CFEBE558
:1026E000E60FE33050F4F0E0EC54FE4F808190E0D0
:1026F0000F90DF91CF910C94BB11685A673168F449
:10270000E62FF0E0EE0FFF1FEA57FE4F8081918128
:102710000F90DF91CF910C94D1110F90DF91CF9159
:102720000895882309F45BC0682F823879F40E94E9
:10273000951181FF54C069E38091100190911101BE
:102740000E940D1E0E94941C69E310C08338B1F4EE
:102750000E94951180FF43C063E580911001909124
:1027600011010E940D1E0E94941C63E580911001CE
:10277000909111010E94181E0C94941C843879F4D5
:102780000E94951182FF2BC067E480911001909107
:1027900011010E940D1E0E94941C67E4E7CF8CEF8C
:1027A000860F813A18F380E2860F883048F467700C
:1027B00081E001C0880F6A95EAF70E94511CDCCFC6
:1027C0008BE5860F833020F480E090E00C94BB1101
:1027D000685A673120F480E090E00C94D11108959C
:1027E000CF93C82F0E94EF12C93349F42FEF87EE21
:1027F00093E0215080409040E1F700C000008C2F12
:10280000CF910C949113882321F00E944B1C0C94BF
:10281000941C0895882321F00E94511C0C94941C50
:102820000895BF92CF92DF92EF92FF920F931F9382
:10283000CF93DF937C01062FC72FFC0115811295E2
:102840001F70D281D1110E94681C0E94411C8823F4
:1028500079F0DD2369F080E2800F883048F082E073
:102860000E94DF1C0E94411C91E0B82EB92601C0D5
:10287000B12CCC2EC2948FE0C822D12CF601E6599F
:10288000FF4F0C9463278C2F807FCF70882311F02B
:10289000C295C07FDD2399F0CC2309F48DC180E27D
:1028A000800F883010F0011104C08C2F0E944B1C47
:1028B00003C08C2F0E945B1C0E94941C7DC1802F42
:1028C0000E949113CC2309F4C0C180E2800F8830AC
:1028D00010F0011104C08C2F0E94511C03C08C2FDA
:1028E0000E94611C0E94941CB0C18C2F807FCF700D
:1028F000803211F0C295C07F002319F00130C9F079
:1029000022C0DD2371F0112341F0113031F40E9417
:102910007B1C8C2B0E94811C98C10E947B1C8C2BE1
:102920001DC0112319F0113009F48FC10E948A1CB7
:1029300025C0DD2321F0163008F087C10EC0153008
:1029400008F083C11BC0DD2361F0112331F0F701D2
:10295000858180FF31C18F7085838C2F0E94031485
:1029600074C1112359F0093309F037C1FFEF27EE85
:1029700083E0F15020408040E1F72DC18C2F0E9470
:102980000A1463C18C2F86958695837090E000971A
:1029900019F0019761F059C1DD2321F0802F9C2FA0
:1029A000937002C080E090E00E94BB1159C1DD230A
:1029B00021F0802F9C2F937002C080E090E00E9455
:1029C000D1114EC18C2F837009F049C0D11144C17F
:1029D000402F429546954770440F440F602F6F700B
:1029E000862F90E0A0E0B0E0042E04C0880F991F6D
:1029F000AA1FBB1F0A94D2F704FF10C00FE010E01B
:102A000020E030E004C0000F111F221F331F4A9541
:102A1000D2F7009510952095309503C000E010E0A6
:102A20009801C695C695C370D0E0BC01CD01602B5E
:102A3000712B822B932BC230D10559F0C330D105B5
:102A400059F0219719F00E94821A06C10E94701A4B
:102A500003C10E94941A00C10E946E1AFDC0DD23BA
:102A600019F08C2F817001C08695882309F4F4C079
:102A7000402F429546954770440F440F602F6F706A
:102A8000862F90E0A0E0B0E0042E04C0880F991FCC
:102A9000AA1FBB1F0A94D2F704FF10C00FE010E07A
:102AA00020E030E004C0000F111F221F331F4A95A1
:102AB000D2F7009510952095309503C000E010E006
:102AC0009801C695C695C370D0E0BC01CD01602BBE
:102AD000712B822B932BC230D10559F0C330D10515
:102AE00059F0219719F00E94481BB6C00E94361B6E
:102AF000B3C00E945A1BB0C00E94A91AADC0CF70CB
:102B0000DD2339F08C2F0E94CF1A802F0E940314EE
:102B1000A3C0802F0E940A148C2F0E94F01A9CC020
:102B2000023F01F128F4003F41F0013FA1F040C015
:102B3000033FF9F0043F39F13BC0DD2341F015308C
:102B400008F083C08C2F8F710E94151B7EC0163039
:102B500008F07BC0F7CFDD2339F08C2F8F710E94F6
:102B6000CF1A73C0DD23C9F38C2F8F710E94F01A26
:102B70006CC0DD2329F08C2F8F710E94BA1A65C0BA
:102B80000E94B51A62C0DD2349F0CF718C2F0E94DC
:102B9000CF1A63E08C2F0E94CA1C57C081E00E94AC
:102BA000DF1C123008F451C082E00E94DF1C4DC0CF
:102BB000DD2331F0112389F2802F0E94EF1245C0EE
:102BC000112391F2093349F49FEFE7EEF3E09150BE
:102BD000E040F040E1F700C00000802F0E94911318
:102BE00034C04C2F4F70602FC7010E9445040E94D3
:102BF000E11936C0D11134C0CF70D0E0C230D10558
:102C000099F03CF4209769F02197F9F40E943B0E6B
:102C100027C0C430D10571F054F02597B1F480E09D
:102C20000AC00E94180E1CC00E94820E19C00E9489
:102C3000890E16C086E00E94CB0E12C04C2F4F703A
:102C4000602FC7010E9448040BC028E0C21AD108B7
:102C500084E0C816D10420F40E9495110E94EA0372
:102C6000BB20D1F00E943D1C80FD16C0F7011282EE
:102C70000E94371C0E94CF1AC7010E9456160E945C
:102C8000371CDF91CF911F910F91FF90EF90DF9054
:102C9000CF90BF900C94F01ADF91CF911F910F91BC
:102CA000FF90EF90DF90CF90BF9008950F931F9308
:102CB000CF93DF93EC01888199812B813C81232B79
:102CC000B9F09F3F11F48F3F99F0CE010E940304A9
:102CD000882371F0688179818A810E94141C8C019B
:102CE0000E946C1B0E946D1AB801CE010E94111443
:102CF000DF91CF911F910F9108950E94681C0E944F
:102D0000781C0E94941C80E090E00E94BB1180E03F
:102D100090E00C94D11180911001909111010E94CA
:102D2000231E0C947D160E94581C0C948B16E92FC0
:102D3000E295EF70F0E03297EE30F105B0F4E6582E
:102D4000FF4F0C946327803F91F018F4883E68F49D
:102D50000EC0843F51F40BC0883E48F0813F29F4F7
:102D600006C093FB882780F9089580E0089581E0EC
:102D700008950E94091C0E9497160895CF93DF932F
:102D800000D000D01F92CDB7DEB70F900F900F90FC
:102D90000F900F90DF91CF910895CF93DF9300D0E4
:102DA00000D000D0CDB7DEB726960FB6F894DEBFC0
:102DB0000FBECDBFDF91CF9108951F93CF93DF93C7
:102DC000C091DF0116E08091E001C81799F0D0E0D2
:102DD0001C9FF0011D9FF00D1124EF51FE4F40810B
:102DE000518162817381848195810E94CD162196E3
:102DF000C770E9CFDF91CF911F91089540911102E3
:102E00005091120260911302709114028091150288
:102E1000909116020C94CD168091160282958F70B7
:102E200009F054C080911302882309F44FC08091A7
:102E3000DF01A091E00160911102709112024091B6
:102E4000140250911502B6E08A1709F43FC090E0D1
:102E500041155105C1F17F3F11F46F3FA1F1B89FBA
:102E6000F001B99FF00D1124EF51FE4F2181721333
:102E70002AC02081621327C02281211124C023810E
:102E800034812417350710F421503109241B350BE8
:102E9000283C3105C0F4209116022F702061209348
:102EA000160226E0289FF001299FF00D1124EA5117
:102EB000FE4F80818F708061808381E192E00E946B
:102EC00056160C94DD1601968770BECF0895CF92EA
:102ED000DF92EF92FF920F931F93CF93DF93CDB7C3
:102EE000DEB762970FB6F894DEBF0FBECDBF8C0180
:102EF00085E0F801DE011D9601900D928A95E1F7BB
:102F0000D8014C9111965C91119712966C91129781
:102F10001396CD90DC9014973091110270911202AB
:102F20008091140290911502009709F46BC17F3FC4
:102F300019F43F3F09F466C1E0901302EE2009F452
:102F4000C0C020911602C816D90628F0F601E81B69
:102F5000F90BCF0104C0809590958C0D9D1DFF2429
:102F6000F394883C910578F0F12C207F09F0C6C0DD
:102F70007C2DD98AC88A89890E94BE1681E192E097
:102F80000E945616B1C0822F807F09F046C075138B
:102F900014C0341312C0611110C02F70206120932F
:102FA00016020E94FE1681E192E00E945616809160
:102FB0001602D80115968C932EC0CD2819F15F3FCB
:102FC00011F44F3FF9F0F62E61111CC08091DF0122
:102FD0002091E00136E0821709F45AC090E0389F52
:102FE000F001399FF00D1124EF51FE4F71815713FD
:102FF00006C07081471303C07281711103C001962E
:103000008770E9CFF62E662309F427C18091160256
:10301000816080931602F12C20C1751308C034130F
:1030200006C0611104C080911602D801C3C04D874B
:103030005E878D859E856A8B0E94B9166A89882372
:10304000E1F16623D1F120911602822F82958F70D3
:1030500090E0029774F0809111029091120298878B
:103060008F831986DB86CA862C87CE0107960E943D
:10307000561686E0F801A1E1B2E001900D928A9522
:10308000E1F70E940C170E94FE16FF24F394E5C09E
:103090004D875E878D859E850E94091C292F22956C
:1030A0002F7030E0223031050CF0CBC09F7009F05A
:1030B000C5C0805E883008F4D0C0C8010E94561692
:1030C000E4CFC816D90608F453C0F601E81BF90B83
:1030D000CF01883C910508F450C0F12C7C2DD98A91
:1030E000C88A89890E94BE16E1E1F2E086E0DF012C
:1030F0001D928A95E9F70E94FE16AFC0751314C0A1
:10310000341312C0611110C080911602F80185833A
:10311000C8010E94561686E0E1E1F2E0DF011D924F
:103120008A95E9F7FE2C99C04D875E878D859E852F
:103130006A8B0E94B9166A89882309F4BECF662378
:1031400009F4BBCF20911602822F82958F7090E0F8
:1031500002970CF48ECF80911102909112029A8303
:1031600089831B82DD82CC822E83CE0101967FCFA4
:10317000809590958C0D9D1DACCFF62E662309F49D
:103180009CCF75132EC034132CC02091160220FD45
:103190001FC0822F82958F70D9F0D80115962C937D
:1031A00015978F3049F08F5F982F9295907F822FDF
:1031B0008F70892B15968C93C8010E94561686E055
:1031C000F801A1E1B2E001900D928A95E1F793CF69
:1031D00086E0F801A1E1B2E001900D928A95E1F755
:1031E0003CC04D875E878D859E850E94B9168111F2
:1031F00040CF80911602816080931602C8010E9420
:1032000056162BC0662309F458CF4D875E878D85EF
:103210009E850E94B916F82E882309F44ECF86E0C9
:10322000F801A1E1B2E001900D928A95E1F781E108
:1032300092E00E94E9120E940C175DCF811139CFF4
:103240000CC0243031050CF038CF9F7009F431CF19
:10325000F8019581907F09F02CCF8F2D62960FB6E3
:10326000F894DEBF0FBECDBFDF91CF911F910F91BC
:10327000FF90EF90DF90CF9008951F93CF93DF934F
:10328000CDB7DEB72C970FB6F894DEBF0FBECDBF1B
:103290004F83588769877A878B879C87CE010796EB
:1032A0000E946717882369F08F8198852A853B855E
:1032B000232BF1F19F3F09F063C08F3F09F060C0FD
:1032C00037C086E0FE013796DE01119601900D921F
:1032D0008A95E1F76F817885EA85FB85309741F122
:1032E0007F3F11F46F3F21F12091E00130E0C901EF
:1032F0000196877099274091DF0150E08417950768
:1033000009F447C069837A83FD83EC8396E0929F3A
:10331000D001939FB00D1124AF51BE4FFE013196E5
:1033200001900D929A95E1F78093E0010E94DD16DD
:1033300016E08091DF019091E0018917C1F1189F9B
:10334000C00111248F519E4F0E946717882379F185
:10335000E091DF011E9FF0011124EF51FE4F4081EB
:10336000518162817381848195810E94CD16809103
:10337000DF0190E00196877099278093DF01D9CF14
:103380004F81588569857A858B859C850E94CD16ED
:10339000CFCF0E9493161092E0011092DF01E1E17D
:1033A000F2E086E0DF011D928A95E9F7C1CF2C9605
:1033B0000FB6F894DEBF0FBECDBFDF91CF911F9146
:1033C0000895EF92FF920F931F93CF93DF938C0199
:1033D000892B09F46CC0F12CEE24E394E8012196CA
:1033E000F8018491843740F4843008F051C0813072
:1033F00081F0823019F15BC0853709F444C0A8F12F
:103400009CE7980F903708F052C08F770E94911375
:1034100041C00E5F1F4FFE01C49180E28C0F8830C7
:1034200048F4C7708E2D01C0880FCA95EAF70E9434
:103430006B1C14C08C2F0E94EF122DC00E5F1F4F0B
:10344000FE01C49180E28C0F883058F4C7708E2D35
:1034500001C0880FCA95EAF70E94711C0E94941C53
:103460001AC08C2F0E94911316C00E5F1F4FFE01D1
:10347000C491CC2381F08FE99FE00197F1F700C060
:103480000000C150F6CF0E5F1F4FFE01F49003C045
:103490000E94EF128E018F2D882309F49FCFEFE950
:1034A000FFE03197F1F700C000008150F5CFDF91C8
:1034B000CF911F910F91FF90EF90089508950C9474
:1034C0005E1A0E945F1A60934802709349028093CB
:1034D0004A0290934B020C947D1608950C94611A45
:1034E0000F931F93009148021091490220914A02C4
:1034F00030914B02602B712B822B932B1F910F91DC
:103500000C94611A0F931F93009148021091490285
:1035100020914A0230914B0260237123822393232E
:103520001F910F910C94611A0F931F930091480201
:103530001091490220914A0230914B026027712775
:10354000822793271F910F910C94611A08950C9470
:10355000A61A0E94A71A60934402709345028093B2
:103560004602909347020C947D1660E070E0CB0118
:103570000C94A91A0F931F9341E050E060E070E0B3
:103580008A019B0104C0000F111F221F331F8A955F
:10359000D2F7C901B8011F910F910C94A91A0F938A
:1035A0001F9341E050E060E070E004C0440F551FFD
:1035B000661F771F8A95D2F7809144029091450249
:1035C000A0914602B09147028A019B01082B192B5A
:1035D0002A2B3B2BC901B8011F910F910C94A91AFA
:1035E0000F931F9341E050E060E070E004C0440F8F
:1035F000551F661F771F8A95D2F7409550956095A5
:1036000070958091440290914502A0914602B0913C
:1036100047028A019B01082319232A233B23C9015E
:10362000B8011F910F910C94A91A0F931F9341E0B9
:1036300050E060E070E004C0440F551F661F771F24
:103640008A95D2F78091440290914502A09146025A
:10365000B09147028A019B01082719272A273B2797
:10366000C901B8011F910F910C94A91A0F931F93D0
:103670000091440210914502209146023091470288
:10368000602B712B822B932B1F910F910C94A91AF5
:103690000F931F930091440210914502209146021E
:1036A0003091470260237123822393231F910F914E
:1036B0000C94A91A0F931F93009144021091450294
:1036C0002091460230914702602771278227932775
:1036D0001F910F910C94A91A08952EE0929F800DCE
:1036E0001124A82FA695A695A695877051E001C034
:1036F000550F8A95EAF785E0A89FD001112420E0B4
:1037000030E070E0F901EA0FFB1FE95EFD4F4081F8
:10371000CB01022E02C0969587950A94E2F781703C
:103720009927819584278523842780832F5F3F4FA6
:103730002530310539F708952EE0929F800D112430
:10374000682F669566956695982F977085E0689FB7
:10375000B001112440E050E080E0FA01E60FF71FCD
:10376000E95EFD4F208130E0092E02C03695279595
:103770000A94E2F721703327042E01C0220F0A9425
:10378000EAF7822B4F5F5F4F4530510531F70895BF
:10379000BF92CF92DF92EF92FF920F931F93CF933E
:1037A000DF938C01C0904802D0904902E0904A0219
:1037B000F0904B028091440290914502A091460204
:1037C000B0914702C82AD92AEA2AFB2ACFE1D0E0E1
:1037D000D701C6010C2E04C0B695A795979587957D
:1037E0000A94D2F780FF07C0BC2EB8018C2F0E942C
:1037F0006304019719F4219758F7B12C8B2DDF91B1
:10380000CF911F910F91FF90EF90DF90CF90BF90DD
:103810000895CF93DF93EC010E94C81BBE010E9464
:103820006304DF91CF9108951F93CF93DF93EB0152
:103830009091DE01992321F0CB010E94091C13C055
:10384000882349F0CB010E94C81B182F682FCE0196
:103850000E946D1B04C0CB010E949C1B182FBE014F
:10386000812F0E946304DF91CF911F910895809171
:103870004C02859585958595089580914C028770B9
:10388000089590914C02977081E009F480E00895CA
:1038900080917002089590917002892B809370023C
:1038A0000895809590917002892380937002089505
:1038B00010927002089590916F02892B80936F028D
:1038C0000895809590916F02892380936F020895E7
:1038D00010926F02089590916E02892B80936E0270
:1038E0000895809590916E02892380936E020895C9
:1038F00010926E02089580914D02089508950C94DF
:103900007E1C90914D02981721F080934D020C94EB
:103910007F1C089580914D02882329F010924D025A
:1039200080E00C947F1C0895E0911001F09111014A
:10393000809170028083E0911001F09111019081DB
:1039400080916F02892B8083E0911001F091110129
:10395000908180916E02892B808380914D02882313
:1039600081F0E0911001F09111019081892B808309
:1039700080911001909111010E94A81D81110E9457
:103980008A1C80911001909111010C94A11108954D
:103990000C94C71C98E0899F90011124262B20933A
:1039A0004C020E94CF1A80914C0285958595859591
:1039B0000C94C81C10924C0280E00C94C81C2091FE
:1039C0004C028095822380934C02982F977079F453
:1039D00030E0482F082E000C550B2417350739F01E
:1039E0008595859585950E94F01A0C94DA1C0895AA
:1039F00080E090E00E94AA2721E08C3E9E4F09F0D3
:103A000020E0822F089582E090E00C949C2783E0D0
:103A100090E00C949C27CF9384E090E00E949C2738
:103A2000C82F81E290E00E949C272C2F30E0A90152
:103A3000582BCA01CF910895CF93C92F682F84E0E6
:103A400090E00E94B0276C2F81E290E0CF910C941F
:103A5000B02786E090E00C949C27682F86E090E0E9
:103A60000C94B027AB01BC018FE090E00C94C2270E
:103A7000AB01BC0183E190E00C94C22760E070E0F0
:103A8000CB010C94381D60E070E0CB010E94321D28
:103A90000C943E1D6CEE7EEF80E090E00E94CE27FD
:103AA00060E082E090E00E94B02760E083E090E078
:103AB0000E94B027109248021092490210924A02C6
:103AC00010924B0260E084E090E00E94B02760E03A
:103AD00081E290E00E94B02760E085E090E00E94E3
:103AE000B02760E086E090E00E94B0276FEF87E0AB
:103AF00090E00E94B02740E050E0BA0188E090E0FA
:103B00000E94C22760E08DE090E00E94B02740E074
:103B100050E0BA0188E190E00E94C22760E087E1AE
:103B200090E00E94B02740E050E0BA018CE190E0C4
:103B30000E94C22760E080E290E00E94B0270C94CF
:103B4000431D0C944A1D682F8EE090E00C94B02722
:103B5000FC01329680911C01882331F08091D302C0
:103B600087FF02C09EE101C096E080E0915028F0FE
:103B700021912223D9F38F5FF9CF08959C01FC0195
:103B800032969FEF80E04191461789F09F3F19F4EC
:103B9000411101C0982F8F5F8630A9F79F3F39F000
:103BA000F901E90FF11D97FDFA95628308950895D3
:103BB000FC01329608962081261301C010823196AE
:103BC000E817F907C1F70895262F2695269526951B
:103BD0002E3168F4FC01E20FF11D677021E030E046
:103BE00001C0220F6A95EAF78281282B228308956B
:103BF000262F2695269526952E3170F4FC01E20F8E
:103C0000F11D677021E030E001C0220F6A95EAF7EC
:103C10002095828128232283089520911C0122234C
:103C200029F02091D30227FD0C94E41D0C94BE1DB5
:103C300020911C01222329F02091D30227FD0C940E
:103C4000F81D0C94D81D20911C01FC0132962223F2
:103C500031F08091D30287FF02C08EE101C086E07F
:103C6000DF011D928A95E9F7089508950C94351E99
:103C70000E94361E8091D902843061F11092720246
:103C800020E488E190E00FB6F894A8958093600056
:103C90000FBE2093600080E00E94E20E80E00E9450
:103CA000EA030E94361E83B7817F846083BF83B797
:103CB000816083BF7894889583B78E7F83BF0FB66A
:103CC000F894A895809160008861809360001092BC
:103CD00060000FBE089508950895CF930E946B1E53
:103CE0000E94D4060E946C1EC0E08C2F0E947B06AE
:103CF000892B29F4CF5FC530C1F780E001C081E096
:103D0000CF91089508950C94821E0E9493160E94EC
:103D1000F70D0E9495110E94EA030C94831E1F92D6
:103D20000F920FB60F9211248F939F93AF93BF936F
:103D300080917202811113C08091CF029091D002C4
:103D4000A091D102B091D2024196A11DB11D8093E4
:103D5000CF029093D002A093D102B093D202BF9130
:103D6000AF919F918F910F900FBE0F901F9018955C
:103D700082E084BD93E095BD9AEF97BD80936E007D
:103D800008952FB7F8948091CF029091D002A0911E
:103D9000D102B091D2022FBF0895CF92DF92EF925D
:103DA000FF920F931F932FB7F8944091CF02509139
:103DB000D0026091D1027091D2022FBF6A017B01C3
:103DC000EE24FF248C0120E030E0C016D106E2068C
:103DD000F30610F4415051099A01281B390BC9010F
:103DE0001F910F91FF90EF90DF90CF9008957894FE
:103DF0001F920F920FB60F9211248F939F93AF9340
:103E0000BF938091CF029091D002A091D102B09146
:103E1000D2020196A11DB11D8093CF029093D002D2
:103E2000A093D102B093D202BF91AF919F918F9195
:103E30000F900FBE0F901F90189581E08093E000C7
:103E400080E28093D8001092C9008FE19EE4019730
:103E5000F1F700C0000087E090EBDC018093E20204
:103E60009093E302A093E402B093E5029CE088E122
:103E70000FB6F894A895809360000FBE90936000F1
:103E8000FFCF0E94F81C811102C00E94A11D0E9458
:103E9000031D809371020E940B1D9093D4028093A6
:103EA000D3020E94071D682F70E080E090E00C9420
:103EB0006E1A0F931F93482F50E0FA013597EF3396
:103EC000F10508F07FC0E857FF4F0C9463270E946C
:103ED000A11D71C080917102817F8E7F80937102DC
:103EE00081E0809373026FC00E9493160FEF13ED71
:103EF00020E3015010402040E1F700C000000E9484
:103F00001D1F59C080917102982F9095917090FB60
:103F100080F98093710291114EC0897F877F10C014
:103F20008091710281FB222720F991E0922790FB7A
:103F300081F9809371029923F1F18091710281607E
:103F40008093710238C08091710282FB222720F990
:103F500091E0922790FB82F9ECCF8091710283FB74
:103F6000222720F991E0922790FB83F9E2CF0E946B
:103F700093168091D30287FB222720F991E09227A4
:103F800090FB87F98093D30216C0895301C08D51ED
:103F900041E050E060E070E08A019B0104C0000F46
:103FA000111F221F331F8A95D2F7C901B8010E9441
:103FB0006E1A0E94931681E006C061E070E080E016
:103FC00090E0F5CF80E01F910F91089580E0089573
:103FD00080E00895CF93C82F80917302882319F051
:103FE000813031F02BC00E94481C823249F504C058
:103FF0000E94481C823261F48C2F0E94E61F8111BE
:1040000004C08C2F0E94591F17C081E090E014C09B
:104010008C2F0E94E81F81110EC0C43149F018F4A2
:10402000CB3049F00FC0C93219F0C83321F00AC0B3
:104030001092730207C081E0817006C01092730273
:1040400080E002C080E0F8CFCF9108958091940283
:1040500008950895CF93DF9300D01F92CDB7DEB7B8
:104060009091D902943019F589837B836A8382E029
:104070008093E9008FEF9091E800815095FD06C094
:1040800095ED9A95F1F700008111F5CF8091E80048
:1040900085FF0DC040E050E063E070E0CE01019686
:1040A0000E945F228091E8008E778093E8000F9055
:1040B0000F900F90DF91CF910895CF93DF93EC0194
:1040C0000E944222823011F0843031F4BE0184E03B
:1040D000DF91CF910C942A20DF91CF910895BC01FC
:1040E0006058710983E00C942A20CF93DF93EC0190
:1040F0000E944222823011F08430D9F580911C0157
:10410000882339F08091D30287FF03C060E282E008
:1041100002C068E081E08093E9008FEF9091E800B1
:10412000815095FD06C095ED9A95F1F7000081113B
:10413000F5CF8091E80085FF1CC080911C018111A2
:1041400005C040E050E068E070E003C070E040E08F
:1041500050E0CE010E945F228091E8008E7780932C
:10416000E80080E2FE01A4E7B2E001900D928A959A
:10417000E1F7DF91CF9108958091D802811109C0B4
:104180000E94F4230E9451248091E2008460809375
:10419000E20008951092D8020895089508950C94AD
:1041A000851E42E061EC81E00E946E2342E261ECF8
:1041B00082E00C946E238091DB02833009F460C0AE
:1041C00030F4813071F0823009F499C008958A305A
:1041D00009F485C08B3009F46BC0893009F0A7C0A1
:1041E00020C08091DA02813A09F0A1C08091E800F4
:1041F000877F8093E8008091DE029091DF02892B17
:1042000021F460E284E792E003C060E080E090E0A7
:1042100070E00E94AA228091E8008B778093E800EA
:1042200008958091DA02813209F081C08091DE0226
:104230009091DF02029708F07AC08091E800877FB2
:104240008093E8008091E80082FD05C08091D9024A
:104250008111F8CF6CC02091F3008091F20090E0C2
:10426000922B029729F48091F1008B7F813021F409
:104270008091F100809394028091E8008B7753C085
:104280008091DA02813A09F052C08091DE02909169
:10429000DF02892B09F04BC08091E800877F809373
:1042A000E8008091E80080FFFCCF80911C0136C0BF
:1042B0008091DA028132D9F58091DE029091DF029D
:1042C000892BA9F58091E800877F8093E8000E9400
:1042D000A3238091DC0280931C010C94931680919F
:1042E000DA02813221F58091E800877F8093E8002F
:1042F0000E94A3238091DD0280939502089580910E
:10430000DA02813AA1F48091E800877F8093E80087
:104310008091E80080FFFCCF809195028093F100AE
:104320008091E8008E778093E8000C94A323089591
:1043300084B7877F84BF0FB6F894A89580916000FA
:10434000886180936000109260000FBE90E080E86A
:104350000FB6F89480936100909361000FBE0E94A5
:10436000F5110E94F4230E9451248091E2008460A0
:104370008093E20078940E94E0260E94FD1182E181
:1043800091E00E9490118091D902853069F40E94D9
:10439000381E8091D7028823B1F30E946D1E8823B6
:1043A00091F30E944922EFCF0E940912ECCF0C94A6
:1043B000D921292F332723303105C9F064F4213066
:1043C000310581F02230310509F04CC08BE390E0DB
:1043D00029E935E04BC02132310521F12232310586
:1043E00089F140C082E190E024ED35E03FC099279B
:1043F0008130910571F02CF4892BA1F5E5E9F5E008
:104400000DC08230910541F0039761F5EDE5F5E0CF
:1044100005C0E5E7F5E002C0E3E6F5E0849190E051
:104420009F0124C06115710541F061307105D1F41F
:1044300089E090E024EC35E019C089E090E02BEAB7
:1044400035E014C06115710541F06130710551F41A
:1044500081E790E026EE35E009C080E490E027E5B2
:1044600036E004C080E090E020E030E0FA013183E3
:10447000208308958091D902843011F081E008955D
:1044800082E0089580919602811102C00C943A2234
:10449000089580E189BD82E189BD09B400FEFDCFA8
:1044A0008091D8008F7D8093D8008091E000826059
:1044B0008093E0008091E00081FDFCCF0895CF92D1
:1044C000DF92EF92FF920F931F93CF93DF93EC0154
:1044D0008B016A010E94C223811133C0C114D1042F
:1044E00039F0F60180819181081B190BC80FD91F83
:1044F000E12CF12C0115110519F18091E80085FDE1
:1045000016C08091E8008E778093E800C114D10432
:1045100049F0F60180819181E80EF91EF182E08276
:1045200085E00FC00E94C223882321F30AC089912D
:104530008093F10001501109FFEFEF1AFF0ADACF63
:1045400080E0DF91CF911F910F91FF90EF90DF906E
:10455000CF9008952091E0023091E10226173707AD
:1045600048F06115710539F42091E8002E77209309
:10457000E80001C0B90140E061157105A9F1209181
:10458000D902222309F443C0253009F442C0209106
:10459000E80023FD40C02091E80022FD32C02091B8
:1045A000E80020FFE9CF4091F3002091F20030E0D5
:1045B000342BFC01CF016115710559F0283031050C
:1045C00040F481918093F100615071092F5F3F4F5A
:1045D000F1CF41E02830310509F040E02091E800BA
:1045E0002E772093E800C8CF4111C9CF0AC080912F
:1045F000D902882361F0853061F08091E80083FD65
:104600000AC08091E80082FFF2CF80E0089582E046
:10461000089583E0089581E008952091E0023091AB
:10462000E1022617370748F06115710539F420912A
:10463000E8002E772093E80001C0B901FC0120E0DA
:104640006115710591F18091D902882309F440C068
:10465000853009F43FC08091E80083FD3DC0809122
:10466000E80082FD2FC08091E80080FFE9CF209113
:10467000F3008091F20090E0922B6115710559F0E2
:104680008830910540F424912093F10031966150D7
:1046900071090196F2CF21E0089709F020E080919E
:1046A000E8008E778093E800CBCF2111CCCF0AC0F1
:1046B0008091D902882361F0853061F08091E80013
:1046C00083FD0AC08091E80082FFF2CF80E0089568
:1046D00082E0089583E0089581E00895982F97304F
:1046E00058F59093E900981739F07091EC002091FB
:1046F000ED005091F00003C0242F762F50E021FFF1
:1047000019C03091EB003E7F3093EB003091ED000B
:104710003D7F3093ED003091EB0031603093EB0042
:104720007093EC002093ED005093F0002091EE0088
:1047300027FF07C09F5FD3CF8F708093E90081E090
:10474000089580E008958091DA0287FF11C080917A
:10475000E80082FD05C08091D9028111F8CF11C017
:104760008091E8008B770BC08091D902882349F0B3
:104770008091E80080FFF8CF8091E8008E778093E9
:10478000E80008952091E4003091E50095E640911D
:10479000EC00842F817040FF22C08091E80080FDF2
:1047A0001CC08091D902882391F0853091F08091CE
:1047B000EB0085FD10C04091E4005091E5004217E8
:1047C000530729F39A01915011F784E0089582E08C
:1047D000089583E0089581E0089580E00895409170
:1047E000E80042FFDECF08950E9462240E946A24FE
:1047F000E0EEF0E0808181608083E8EDF0E0808190
:104800008F77808319BCA7EDB0E08C918E7F8C935D
:1048100080818F7E80831092D80208950F931F931A
:10482000CF93DF930E9462240E946A24C8EDD0E0F7
:1048300088818F77888388818068888388818F7D4D
:10484000888319BC1092D9021092D5021092D70217
:104850001092D60200EE10E0F80180818B7F8083F9
:1048600088818160888342E060E080E00E946E235E
:10487000E1EEF0E080818E7F8083E2EEF0E08081E7
:1048800081608083808188608083F80180818E7F51
:104890008083888180618883DF91CF911F910F9100
:1048A0000895E8EDF0E080818F7E8083E7EDF0E011
:1048B00080818160808384E082BF81E08093D80220
:1048C0000C940E24E8EDF0E080818E7F80831092BE
:1048D000E20008951092DA001092E10008951F920C
:1048E0000F920FB60F9211242F933F934F935F9324
:1048F0006F937F938F939F93AF93BF93EF93FF93A8
:104900008091E10082FF0BC08091E20082FF07C02E
:104910008091E1008B7F8093E1000E94DF268091EF
:10492000DA0080FF1FC08091D80080FF1BC08091FB
:10493000DA008E7F8093DA008091D90080FF0DC06D
:1049400080E189BD82E189BD09B400FEFDCF81E02F
:104950008093D9020E94BC2005C019BC1092D902D4
:104960000E94CA208091E10080FF19C08091E2007E
:1049700080FF15C08091E2008E7F8093E2008091DD
:10498000E20080618093E2008091D8008062809391
:10499000D80019BC85E08093D9020E94CE20809176
:1049A000E10084FF30C08091E20084FF2CC080E1F0
:1049B00089BD82E189BD09B400FEFDCF8091D80098
:1049C0008F7D8093D8008091E1008F7E8093E100FD
:1049D0008091E2008F7E8093E2008091E20081600E
:1049E0008093E2008091D502882311F084E007C013
:1049F0008091E30087FD02C081E001C083E08093E5
:104A0000D9020E94CF208091E10083FF29C08091CC
:104A1000E20083FF25C08091E100877F8093E10061
:104A200082E08093D9021092D5028091E1008E7FBE
:104A30008093E1008091E2008E7F8093E20080917C
:104A4000E20080618093E20042E060E080E00E944A
:104A50006E238091F00088608093F0000E94CD204A
:104A6000FF91EF91BF91AF919F918F917F916F9146
:104A70005F914F913F912F910F900FBE0F901F901C
:104A800018951F920F920FB60F9211242F933F93F8
:104A90004F935F936F937F938F939F93AF93BF9346
:104AA000CF93DF93EF93FF93C091E900CF70809194
:104AB000EC00D82FD17080FDD0E81092E9008091F1
:104AC000F000877F8093F00078940E9485251092F3
:104AD000E9008091F00088608093F000CD2BCF70CA
:104AE000C093E900FF91EF91DF91CF91BF91AF911A
:104AF0009F918F917F916F915F914F913F912F91F6
:104B00000F900FBE0F901F9018951F93CF93DF93B8
:104B1000CDB7DEB7AA970FB6F894DEBF0FBECDBFF4
:104B2000EAEDF2E088E08E0F9091F10091938E1300
:104B3000FBCF0E94DB208091E80083FF28C1809199
:104B4000DA029091DB02492F50E04A30510508F01B
:104B50001EC1FA01E953FF4F0C946327803821F0FE
:104B6000823809F014C108C08091D6029091D70212
:104B7000992389F082600FC08091DE028F708730A8
:104B800008F005C18093E9008091EB0085FB882740
:104B900080F91092E9009091E800977F9093E800E7
:104BA0008093F1001092F100D0C0282F2D7F09F0E2
:104BB000EEC0882319F0823061F0E9C08091DC02F8
:104BC000813009F0E4C0933009F080E08093D7028F
:104BD0002EC08091DC0281112AC08091DE028F708C
:104BE0002FEF280F263008F0D2C08093E9002091E3
:104BF000EB0020FF1CC0933021F48091EB00806219
:104C000014C09091EB0090619093EB0021E030E0B4
:104C1000A90102C0440F551F8A95E2F74093EA00AC
:104C20001092EA008091EB0088608093EB00109274
:104C3000E9008091E800877F8093E8000E94A32329
:104C4000A6C08111A4C01091DC021F778091E300FF
:104C50008078812B8093E3008091E800877F8093A8
:104C6000E8000E94A3238091E80080FFFCCF8091A0
:104C7000E30080688093E300111102C082E001C06C
:104C800083E08093D90283C08058823008F07FC0CF
:104C90008091DC029091DD028C3D53E0950779F51F
:104CA00083E08A838AE289834FB7F894DE01139602
:104CB00020E03EE051E2E32FF0E050935700E49112
:104CC00020FF03C0E295EF703F5FEF708E2F90E002
:104CD000EA3010F0C79601C0C0968D939D932F5F68
:104CE000243149F74FBF8091E800877F8093E80027
:104CF0006AE270E0CE0101960E94AA2215C060917E
:104D0000DE027091DF02AE014F5F5F4F0E94D7213C
:104D1000BC01892BE1F19091E800977F9093E80026
:104D200089819A810E940D238091E8008B7780937E
:104D3000E8002DC0803859F58091E800877F809386
:104D4000E8008091D5028093F1008091E8008E7791
:104D500073CF81111CC09091DC029230C0F480911D
:104D6000E800877F8093E8009093D5020E94A323F8
:104D70008091D502811106C08091E30087FD02C0B9
:104D800081E001C084E08093D9020E94D12080910B
:104D9000E80083FF0AC08091E800877F8093E800E5
:104DA0008091EB0080628093EB00AA960FB6F89496
:104DB000DEBF0FBECDBFDF91CF911F910895089543
:104DC000CF938091D9028823A1F0C091E900CF70E0
:104DD0009091EC00892F817090FD80E8C82B109293
:104DE000E9008091E80083FD0E948525CF70C09383
:104DF000E900CF910895DB018F939F930E9478275C
:104E0000BF91AF91A29F800D911DA39F900DB29F66
:104E1000900D1124089587FB082E062687FD8195A5
:104E200067FD61950E9483270EF4919507FC81959B
:104E30000895AA1BBB1B51E107C0AA1FBB1FA617E1
:104E4000B70710F0A61BB70B881F991F5A95A9F733
:104E500080959095BC01CD01089597FB072E16F41F
:104E6000009407D077FD09D00E94192707FC05D0D0
:104E70003EF4909581959F4F0895709561957F4F71
:104E80000895A1E21A2EAA1BBB1BFD010DC0AA1F8B
:104E9000BB1FEE1FFF1FA217B307E407F50720F0A3
:104EA000A21BB30BE40BF50B661F771F881F991F1E
:104EB0001A9469F760957095809590959B01AC0167
:104EC000BD01CF010895EE0FFF1F0590F491E02D75
:104ED0000994A29FB001B39FC001A39F700D811DD3
:104EE0001124911DB29F700D811D1124911D0895F3
:104EF0000E946927A59F900DB49F900DA49F800DDF
:104F0000911D11240895991B79E004C0991F9617EB
:104F100008F0961B881F7A95C9F780950895FC01C3
:104F20004150504030F001900616D1F73197CF0133
:104F30000895882799270895F999FECF92BD81BDDC
:104F4000F89A992780B50895A6E1B0E044E050E0D2
:104F50000C94D627A8E1B0E042E050E00C94D627AC
:104F6000262FF999FECF92BD81BDF89A019700B422
:104F7000021639F01FBA20BD0FB6F894FA9AF99AC2
:104F80000FBE08950396272F0E94B1270E94B027D5
:104F9000252F0E94B127242F0C94B1270196272F8B
:104FA0000E94B1270C94B027DC01CB01FC01F999D8
:104FB000FECF06C0F2BDE1BDF89A319600B40D9265
:0C4FC00041505040B8F70895F894FFCF1E
:104FCC0001020A0A0A01191A1B1C1D1E1F2021228C
:104FDC004E022620752029206F205D2001E200E979
:104FEC0000EA00B500B600B700CD008301CC008A02
:104FFC000192019401210223022402250226022798
:10500C00022A02B300B4006F007000818283F0F1B9
:10501C00C6676636943132353497963390919293B5
:10502C00950001020202020606060909090909098E
:10503C000F0F0F0F0F0F151515181919191919191D
:10504C00191919192324E200E900EA00B500B60089
:10505C00B700CD008301CC008A019201940121029A
:10506C00230224022502260227022A02B300B400DE
:08507C006F00700081828300C7
:00000001FF
